:020000040800F2
:100000000000082095420008CD410008D1410008B9
:10001000D5410008D9410008DD410008000000007A
:10002000000000000000000000000000E1410008A6
:10003000E541000800000000E9410008ED4100082A
:10004000E5420008E5420008E5420008E5420008F4
:10005000E5420008E5420008FD41000805420008AD
:100060000D420008154200081D420008E542000844
:10007000E5420008E5420008E5420008E5420008C4
:10008000E5420008E5420008E5420008E5420008B4
:10009000E5420008E5420008E54200082542000864
:1000A000E5420008E5420008E5420008E542000894
:1000B000E5420008E5420008E5420008E542000884
:1000C000E5420008E5420008E5420008E542000874
:1000D000E5420008E5420008E5420008E542000864
:1000E000E5420008E5420008E5420008E542000854
:1000F000E5420008E5420008E5420008E542000844
:10010000E5420008E5420008E5420008E542000833
:10011000E5420008E5420008E5420008E542000823
:10012000E5420008E5420008E5420008E542000813
:10013000E5420008E5420008E5420008E542000803
:10014000E5420008E5420008E5420008E5420008F3
:10015000E5420008E5420008E5420008E5420008E3
:10016000E5420008E5420008E5420008E5420008D3
:10017000E5420008E5420008E5420008E5420008C3
:10018000E5420008E5420008E5420008E5420008B3
:10019000E5420008E5420008E5420008E5420008A3
:1001A000E5420008E5420008E5420008E542000893
:1001B000E5420008E5420008E5420008E542000883
:1001C000E5420008E542000800000000E5420008A2
:1001D000E5420008E5420008E5420008E542000863
:1001E000E5420008E5420008E5420008E542000853
:0801F000E5420008E5420008A9
:1002000010B5054C237833B9044B13B10448AFF350
:1002100000800123237010BD780000200000000042
:10022000584B000808B5034B1BB103490348AFF313
:10023000008008BD000000007C000020584B000832
:1002400053B94AB9002908BF00281CBF4FF0FF313D
:100250004FF0FF3000F072B9ADF1080C6DE904CE3B
:1002600000F006F8DDF804E0DDE9022304B0704791
:100270002DE9F047089E04468846002B4BD18A4260
:10028000154667D9B2FA82F24AB1C2F1200701FAE3
:1002900002F320FA07F7954047EA030894404FEA33
:1002A000154E230CB8FBFEF71FFA85FC0EFB1788D2
:1002B00043EA084307FB0CF1994209D9EB1807F10F
:1002C000FF3080F01B81994240F21881023F2B449D
:1002D0005B1AA4B2B3FBFEF00EFB103344EA0344F6
:1002E00000FB0CFCA44509D92C1900F1FF3380F068
:1002F0000781A44540F2048102382C4440EA0740BB
:10030000A4EB0C0400271EB1D4400023C6E900432F
:100310003946BDE8F0878B4209D9002E00F0EB800A
:100320000027C6E9000138463946BDE8F087B3FA30
:1003300083F7002F47D18B4202D3824200F2FA802A
:10034000841A61EB030301209846002EE0D0C6E931
:100350000048DDE702B9FFDEB2FA82F2002A40F07F
:100360008F80491B4FEA154E1FFA85F80127B1FB14
:10037000FEFC230C0EFB1C1143EA014308FB0CF1AD
:10038000994207D9EB180CF1FF3002D2994200F2E2
:10039000CD808446591AA3B2B1FBFEF00EFB1014B7
:1003A00043EA044408FB00F8A04507D92C1900F1E2
:1003B000FF3302D2A04500F2B6801846A4EB080431
:1003C00040EA0C409FE7C7F1200CBB4022FA0CFE2C
:1003D0004EEA030E01FA07F420FA0CF521FA0CF3A9
:1003E0004FEA1E482543B3FBF8F92C0C08FB1933E0
:1003F0001FFA8EFA44EA034309FB0AF49C4202FA0C
:1004000007F200FA07F10BD91EEB030309F1FF30E5
:1004100080F087809C4240F28480A9F102097344F5
:100420001B1BADB2B3FBF8F008FB103345EA0344E5
:1004300000FB0AFAA24508D91EEB040400F1FF33C1
:100440006BD2A24569D90238744440EA0940A0FB46
:100450000289A4EB0A044C45C2464B4654D351D002
:10046000002E69D0B1EB0A0564EB030404FA0CFC1E
:10047000FD40FC404CEA0505C6E90054002747E76B
:10048000C2F1200320FA03F7954001FA02F021FAA5
:1004900003F34FEA154E3843010CB3FBFEF71FFA86
:1004A00085F80EFB173341EA034107FB08F38B4243
:1004B00004FA02F407D9691807F1FF3C2FD28B42E6
:1004C0002DD9023F2944CB1A81B2B3FBFEF00EFBBB
:1004D000103341EA034100FB08F38B4207D9691846
:1004E00000F1FF3C17D28B4215D902382944C91AB2
:1004F00040EA07473BE73746304609E70746E7E665
:100500001846FBE64145ABD2B8EB020A69EB0E0296
:1005100001381346A4E76046E9E7184695E76746C1
:10052000D1E781467CE702382C4447E7ACF1020C66
:100530002B442FE7384608E73746E9E6704700BF07
:10054000034613F8012B002AFBD1181A0138704713
:1005500001F0FF01102A2BDB10F0070F08D010F874
:10056000013B013A8B422DD010F0070F42B3F6D178
:10057000F0B441EA012141EA014122F007047FF091
:1005800000070023F0E80256083C85EA010586EAE8
:10059000010685FA47F5A3FA87F586FA47F6A5FA24
:1005A00087F68EB9EED1F0BC01F0FF0102F0070230
:1005B00032B110F8013B013A83EA010313B1F8D1DB
:1005C0000020704701387047002D06BF35460338BC
:1005D000073815F0010F07D1013015F4807F02BFF5
:1005E000013015F4C03F0130F0BC0138704700BF46
:1005F00038B50D4C4FF47A730C49054622780868DB
:10060000B3FBF2F3B0FBF3F000F000FA08B90F2DE2
:1006100001D9012038BD002229464FF0FF3000F0FB
:10062000B3F96560002038BD0000002010000020F4
:1006300008B5032000F094F90020FFF7D9FF03F07C
:1006400075FC002008BD00BF034A044B11681B78ED
:100650000B441360704700BFAC0000200000002076
:10066000014B1868704700BFAC00002038B5044645
:10067000FFF7F6FF0546631C02D0044B1B781C44B1
:10068000FFF7EEFF401BA042FAD338BD0000002068
:10069000002800F09180F8B5036C0446002B00F0B0
:1006A0008180236CDB0604D50023012084F83C30D4
:1006B000F8BD236C4D4A4E491A4023684D4D42F017
:1006C000020222644A6822F440324A604A68606842
:1006D00002434A605A68216922F48072D4F808C043
:1006E000E7685A605868A66A40EA0120AE4258603E
:1006F000586820F040705860596841EA0C01596010
:10070000996821F4006199609A6842EA07029A6048
:1007100054D09968E06A21F0706199609A68164334
:100720009E60996821F0405199609A6802439A60EE
:100730009968A56921F00201206A99609A6842EAE5
:1007400045029A60002842D15A6822F400625A6039
:10075000D86A0026E56920F47000D4F830C06A1E1B
:100760006769D8623046DD6A45EA0255DD629D68F8
:1007700025F400759D60996841EA4C21996099685B
:1007800021F4806199609A6842EA87229A606664DF
:10079000236C23F0030343F001032364002384F854
:1007A0003C30F8BD436480F83C3003F007FC236C18
:1007B000DB063FF579AF7CE7012070479A6822F0AD
:1007C00070629A609A6822F040529A60B0E7586866
:1007D000626A40F40060511E58605A6822F4604218
:1007E0005A605A6842EA41325A60B1E7FDEEFFFFB3
:1007F000002301400100000F90F83C300022F0B5CA
:10080000012B83B0019200F09A800D6801220368E9
:10081000092D80F83C20AFB28A6828D805EB450640
:100820004FF0070C1C690CFA06FC02FA06F624EAE3
:100830000C041C611A6916431E614E68062E06EBF5
:1008400086022DD8053A1F24596B944007FA02F20C
:1008500021EA04015963596B0A435A633C4A9342A3
:1008600030D0002380F83C30184603B0F0BD07EBD1
:1008700047064FF0070CDC681E3EDFF8D8E00CFAA4
:1008800006FC754524EA0C04DC605BD002FA06F62F
:10089000DA681643DE604E68062E06EB8602D1D972
:1008A0000C2E37D8A2F123041F26196BA64007FA95
:1008B00004F221EA060119631C6B1443244A934293
:1008C0001C63CED1122D33D0224B9D4201D0112D6D
:1008D000C7D1214A1F4953688D4243F40003536036
:1008E000BFD102F146721D4B02F52E321B6802F297
:1008F0008332A2FB03239B0C03EB83035B00019376
:10090000019B002BADD0019B013B0193019B002B70
:10091000F9D1A6E7A2F141011F26DC6A8E4007FA51
:1009200001F224EA0604DC62D96A0A43DA6295E736
:10093000D2F8043343F48003C2F8043391E7022071
:1009400003B0F0BDDE6846EA0266DE6075E700BF10
:100950000020014012000010002301401000002080
:1009600007490002074BCA6800F4E06010B44FF674
:10097000FF0422405DF8044B13431843C8607047DE
:1009800000ED00E00000FA05174BDB68C3F302231B
:1009900030B4C3F107051C1D042D28BF0425062C07
:1009A00018D9033B4FF0FF349C4022EA04044FF077
:1009B000FF32002802FA05F221EA020101FA03F2ED
:1009C00042EA04024FEA0212D2B206DB074B1A5483
:1009D00030BC704700242346E9E700F00F00044BC9
:1009E0001A5430BC704700BF00ED00E000E400E0A6
:1009F00014ED00E000F01F010123034A40098B4081
:100A000042F82030704700BF00E100E00138B0F14B
:100A1000807F0DD2074B0022072130B4F025064C11
:100A20005860104684F823509A60196030BC7047B3
:100A30000120704710E000E000ED00E0044A0428C7
:100A400013680CBF43F0040323F0040313607047E2
:100A500010E000E0704700BF08B5FFF7FBFF08BDDE
:100A600088B1037910B503F0FF0204463BB10023BF
:100A700002210122217118462361227110BD4271A9
:100A800003F0BEFAF3E70120704700BF4379012B62
:100A90001DD070B4D1E900310468022640F6FE751D
:100AA0000B430671C02105FA02F625689340914078
:100AB00025EA060501262B4300252360226822EA49
:100AC0000102226006714571284670BC70470223FE
:100AD000184670472DE9F04FDFF82CC283B08E46E0
:100AE0000025DFF82892D1F8008003E00135102DB1
:100AF00000F0B6800123AB4008EA03018B42F5D138
:100B0000DEF8044024F01007022F40F0AC80EF081C
:100B100005F0070A4FF00F0BDEF8102000EB8707F7
:100B20004FEA8A0A3E6A0BFA0AFB02FA0AF24FEA15
:100B3000450A26EA0B064FF0030B32430BFA0AFB79
:100B400004F003063A626FEA0B02076806FA0AF637
:100B500017403E4306608668C4F3001706EA020B9E
:100B6000DEF80C60AF4006FA0AF646EA0B0686602D
:100B7000466826EA03031F434760C668E700DEF8BD
:100B8000083002EA060203FA0AF343EA0203C360EA
:100B9000ACD5D9F8446025F0030705F003030F2214
:100BA00046F4804607F180479B00C9F8446007F58A
:100BB0009C37D9F8446002FA03FA06F4804601969D
:100BC000484E019AB042BA6822EA0A0220D006F5DD
:100BD0008066B0425ED0444EB04260D0434EB042D8
:100BE00062D0434EB04264D0424EB0426BD0424ECF
:100BF000B0426DD0414EB04260D0414EB0426CD058
:100C0000404EB0420CBF09260A2606FA03F31A43E7
:100C1000BA60E603DCF800306FEA010205F1010575
:100C200054BF13400B43A703CCF80030DCF804306A
:100C300054BF13400B43E602CCF80430DCF8083014
:100C400054BF13400B43A402CCF80830DCF80C303E
:100C500054BF13400B43102DCCF80C307FF44AAF37
:100C600003B0BDE8F08F4FEA450A0322D0F800B088
:100C7000013F04EA020602FA0AF2012F6FEA0202B9
:100C800006FA0AF602EA0B0B46EA0B0606603FF686
:100C900074AF60E7012606FA03F31A43B8E70226A9
:100CA00006FA03F31A43B3E7032606FA03F31A43DB
:100CB000AEE7042606FA03F31A43A9E7072606FA65
:100CC00003F31A43A4E7052606FA03F31A439FE742
:100CD000062606FA03F31A439AE7082606FA03F3F0
:100CE0001A4395E70000024000080240000C024051
:100CF000001002400014024000180240001C024094
:100D00000020024000240240003C01400038024024
:100D10000369194214BF01200020704702B9090479
:100D2000816170474369594041617047044A516984
:100D3000014200D1704708B5506102F0DBFC08BDEC
:100D4000003C01401B4A1C4B116C41F0805130B5F6
:100D5000116483B0126C1C4602F080520192019A19
:100D60001A6842F480321A60FFF77AFC054605E003
:100D7000FFF776FC401BB0F57A7F17D86368DA037B
:100D8000F6D523680C4D43F400332360FFF768FC6D
:100D9000044605E0FFF764FC001BB0F57A7F05D838
:100DA0006B689B03F6D5002003B030BD032003B071
:100DB00030BD00BF00380240007000400D490E48B1
:100DC0004A6808B54B6802F03F02496813F4800393
:100DD000C1F3881118BF0023A1FB0001FFF730FA0F
:100DE000044B5B68C3F3014301335B00B0FBF3F0DA
:100DF00008BD00BF003802400024F400002800F0C5
:100E0000348103682DE9F041DD0782B0044635D511
:100E1000AB498A6802F00C02042A00F0FE808A685E
:100E200002F00C02082A00F0F4806368B3F5803FFA
:100E300010D0002B00F01B81B3F5A02FA04B1A6837
:100E400000F0628122F480321A601A6822F4802253
:100E50001A6004E09A4A136843F480331360FFF782
:100E6000FFFB974D064605E0FFF7FAFB801B642861
:100E700000F2EE802B689A03F6D523689F0742D4D0
:100E80001A0717D56369002B00F0B0808C4B5A6F9E
:100E90001D4642F001025A67FFF7E2FB064605E0F5
:100EA000FFF7DEFB801B022800F2D2806B6F9B07EE
:100EB000F6D523685D076BD5814B1A6CD00000F125
:100EC000ED801A6C012542F080521A641B6C03F00D
:100ED00080530193019B7B4B1A68D10540F1A78099
:100EE000A368012B39D0002B00F0DA80052B744B5E
:100EF0001A6F00F0118122F001021A671A6F22F0B6
:100F000004021A672EE06E4A916811F00C0F62D04D
:100F1000916801F00C0108295AD0E368002B00F019
:100F2000DF80674B1A681D4642F001021A60FFF726
:100F300097FB064605E0FFF793FB801B022800F2B3
:100F400087802B689807F6D52B68226923F0F80371
:100F500043EAC2032B60236892E7594A136F43F0B8
:100F600001031367FFF77CFB554E804641F288373B
:100F700005E0FFF775FBA0EB0800B84268D8336FB7
:100F80009B07F6D525B14E4A136C23F080531364AA
:100F9000A369CBB14A4A916801F00C01082921D01C
:100FA000022B136800F0C08023F080731446136096
:100FB000FFF756FB054604E0FFF752FB401B0228F3
:100FC00046D823689B01F7D4002002B0BDE8F08129
:100FD00052685602A1D43A4A126895073CD5E26895
:100FE000012A39D0012002B0BDE8F081344B5A6F9C
:100FF0001D4622F001025A67FFF732FB064604E065
:10100000FFF72EFB801B022822D86B6F9F07F7D4B7
:101010004FE74A6850027FF508AF294A12689103EA
:101020007FF52CAF6268002A7FF428AFDAE71A68F0
:101030001E4642F480721A60FFF712FB07463368BF
:10104000DA053FF54DAFFFF70BFBC01B6428F6D95F
:10105000032002B0BDE8F081194920690A6822F036
:10106000F80242EAC0020A600AE701207047144B06
:101070001A681D4622F480321A601A6822F480220F
:101080001A60FFF7EDFA064604E0FFF7E9FA801B65
:101090006428DDD82B689B03F7D4EEE600251AE719
:1010A000074B41F288381A6F1E4622F001021A6778
:1010B0001A6F22F004021A67FFF7D2FA074608E017
:1010C0000038024000700040FFF7CAFAC01B4045DC
:1010D000BED8336F9807F7D4002D3FF459AF52E7CD
:1010E0002C4B1A681D4622F001021A60FFF7B8FA6D
:1010F000064604E0FFF7B4FA801B0228A8D82B6844
:101100009907F7D42368BBE642F480221A601A6874
:1011100042F480321A60A2E642F004021A671A6FA3
:1011200042F001021A671DE723F080731546136031
:10113000FFF796FA064604E0FFF792FA801B0228B2
:1011400086D82B689901F7D4D4E90732616A134332
:10115000D4E90A2043EA8113216B52080D4C43EA7B
:101160000063013A43EA017343EA02436B602B6870
:1011700043F080732B60FFF773FA054605E0FFF735
:101180006FFA401B02283FF663AF23689A01F6D539
:101190001AE700BF0038024078B14E4A136803F0E6
:1011A0000F038B420BD2136823F00F030B43136022
:1011B000136803F00F038B4201D0012070470368CE
:1011C0002DE9F0419D0714D55C0704D5424CA26877
:1011D00042F4E052A2601A0704D53F4CA26842F4E0
:1011E0006042A2603C4C8568A26822F0F0022A436B
:1011F000A260DF0704460D4621D54268364B012A1E
:101200001B685ED0022A61D0990728D5324941F285
:1012100088388B680E4623F0030313438B60FFF777
:101220001FFA074604E0FFF71BFAC01B40454BD8E6
:10123000B368626803F00C03B3EB820FF3D1254A65
:10124000136803F00F03AB420CD9136823F00F03AC
:101250002B431360136803F00F03AB4202D001204D
:10126000BDE8F08123685A0706D51B49E0688A6803
:1012700022F4E05202438A601B0707D5164A21690F
:10128000936823F4604343EAC1039360124B9B6865
:1012900003F00C03082B10D0104A0F4B0020104C09
:1012A0009B681049C3F30313E35C22FA03F30B605A
:1012B000FFF79EF90020BDE8F081FFF77FFD0246B1
:1012C000EBE79E03A2D4CAE70320C9E798019DD4A7
:1012D000C5E700BF003C0240003802400024F40093
:1012E000086B000810000020044B9B6803F00C03FF
:1012F000082B01D002487047FFF760BD003802405C
:101300000024F400014B1868704700BF1000002053
:10131000044B054A9B680549C3F382230868D35CE4
:10132000D840704700380240186B000810000020B9
:10133000044B054A9B680549C3F342330868D35CF4
:10134000D840704700380240186B00081000002099
:1013500003682DE9F04313F0010683B004460BD077
:101360009F4A916821F400019160466B9168314376
:10137000B6FA86F67609916013F4002510D09849E4
:10138000E56BD1F88C20B5F5801F22F4401242EABB
:101390000502C1F88C2000F0D481B5FA85F56D09FD
:1013A000D90210D58E48216CD0F88C20B1F5800F71
:1013B00022F4400242EA0102C0F88C2000F0BF8112
:1013C000002908BF012513F0807F18BF01269A0667
:1013D00000F16D81DA060CD5814AD2F88C1021F02B
:1013E0008071C2F88C10D2F88C10A06B0143C2F847
:1013F0008C105F0408D57A49606ED1F8902022F4F1
:1014000040320243C1F89020180408D57449A06EF8
:10141000D1F8902022F440220243C1F89020D90351
:1014200008D56F49E06ED1F8902022F440120243B3
:10143000C1F890209A0308D56949206FD1F890200F
:1014400022F440020243C1F890205F0608D56449A7
:10145000606CD1F8902022F003020243C1F8902082
:10146000180608D55E49A06CD1F8902022F00C0235
:101470000243C1F89020D90508D55949E06CD1F84C
:10148000902022F030020243C1F890209A0508D53E
:101490005349206DD1F8902022F0C0020243C1F8D8
:1014A00090205F0508D54E49606DD1F8902022F458
:1014B00040720243C1F89020180508D54849A06D34
:1014C000D1F8902022F440620243C1F89020D90460
:1014D00008D54349E06DD1F8902022F440520243F0
:1014E000C1F890209A0408D53D49206ED1F890208B
:1014F00022F440420243C1F890205F0208D53849E7
:10150000A06FD1F8902022F080620243C1F89020B1
:1015100098020CD53249E06FD1F89020B0F1006FFD
:1015200022F0006208BF01250243C1F8902013F0A9
:10153000080F18BF0125590308D52949606FD1F854
:10154000902022F040720243C1F890201A0209D57F
:101550002349D4F88000D1F8902022F08052024331
:10156000C1F890205F0109D51D49D4F88400D1F855
:10157000902022F000520243C1F89020180109D5B2
:101580001749D4F88800D1F88C2022F00072024369
:10159000C1F88C20D9000BD4B3F1007F16D0F2072C
:1015A00014D4012D00F0D080002003B0BDE8F083FA
:1015B0000B49B3F1007FD4F88C00D1F88C2022F0D5
:1015C000806242EA0002C1F88C20E8D1044B1A681C
:1015D0001E4622F080621A60FFF742F8074606E0D6
:1015E00000380240FFF73CF8C01B64285BD8336822
:1015F0001B01F7D42368DF0712D5626B82B9D6F8D6
:101600008420D6F8847002F44032606807F0706776
:10161000A1683A4342EA801242EA0172C6F8842085
:101620001E0300F10F81D80204D5226CB2F5800FA1
:1016300000F00D81D90111D5A44E6068D6F8842040
:10164000D6F8847002F07062216907F0E0473A43EF
:1016500042EA801242EA0142C6F884209A010DD57E
:10166000236962681B04D4E9021043EA8213974A93
:1016700043EA006343EA0173C2F88430934B1A686B
:101680001E4642F080621A60FEF7EAFF074604E059
:10169000FEF7E6FFC01B642805D833681B01F7D5A9
:1016A000012D81D150E0032003B0BDE8F083874ACB
:1016B000874B116C1F4641F080511164126C02F08F
:1016C00080520192019A1A6842F480721A60FEF701
:1016D000C7FF804605E0FEF7C3FFA0EB08006428C3
:1016E000E1D83B68DB05F6D5784A236B116F03F42C
:1016F000407011F4407111D088420FD0116F176FF4
:1017000021F4407147F480371767176F27F480374B
:1017100017671167116FCF0700F1C380B0F5407FE5
:1017200000F0B18069498A6822F4F8128A60674A39
:10173000C3F30B03116F0B43136723684AE60126BB
:1017400041E6002501262BE6604B1A681D4622F073
:1017500080521A60FEF784FF064604E0FEF780FF21
:10176000801B64289FD82B689F00F7D423681D0333
:1017700000F19280D8021DD5226CDAB9534965690F
:10178000D1F88820D1F8886002F44032A06906F0D0
:10179000E046324342EA851242EA0062C1F88820FC
:1017A000D1F88C20A06A22F4F852013842EA0022D3
:1017B000C1F88C20990215D5E26FB2F1006F11D1FA
:1017C00042496569D1F88820D1F8886002F07062DA
:1017D000206A06F0E046324342EA851242EA0042BD
:1017E000C1F888201A0719D5384A6569D2F88810D7
:1017F000D2F8883001F07061E06903F440330B43A4
:1018000043EA851343EA0073C2F88830D2F88C307B
:10181000E16A23F440330B43C2F88C302B4B1A6837
:101820001C4642F080521A60FEF71AFF054605E09A
:10183000FEF716FF401B64283FF635AF23689B0078
:10184000F6D5B1E6E26BB2F5801F7FF4ECAE1F4E29
:101850006068D6F88420D6F8847002F44032E168DB
:1018600007F0E0473A4342EA801242EA0162C6F8D2
:101870008420D6F88C10626A21F01F01013A0A43D5
:10188000C6F88C20D6E6114812498268194022F425
:10189000F8120A4382604AE7E26B002A3FF46EAF17
:1018A00068E7174641F28838FEF7DAFE814606E01F
:1018B000FEF7D6FEA0EB090040453FF6F4AE3B6FC5
:1018C0009907F5D5236B03F4407027E700380240F1
:1018D00000700040FFFCFF0F0346D0E90020516874
:1018E000B0F5827F21F0E001516014D0996AB1F522
:1018F000005F08D111684DF6FF700140116011685A
:1019000041F40051116001210022032083F85D1091
:1019100083F85C2070479968B1F5004F02D0B1F5AB
:10192000806FE3D1116821F040011160DEE700BF54
:1019300070B505460C4616462B6801E0621C04D1C2
:10194000986810F08000F9D170BD24B1FEF788FED0
:10195000801B8442F0D82846BDE87040FFF7BCBF2A
:101960002DE9F041074682B00C46164698463D6880
:101970000AE0B4F5C06F05D1297BC9B28DF8071014
:101980009DF80720731C05D1A8682040F1D102B052
:10199000BDE8F0812EB1FEF763FEA0EB08008642A1
:1019A000E5D8384602B0BDE8F041FFF795BF00BF6B
:1019B000F8B5436804460E461746B3F5827F23D038
:1019C0003A4631462046FFF7B3FF0546A8B963689B
:1019D000B3F5827F01D02846F8BDA368B3F5004F68
:1019E00002D0B3F5806FF6D13B4632464FF4C0616A
:1019F0002046FFF7B5FF0028EDD0236E032543F006
:101A0000200328462366F8BD8368B3F5004F02D053
:101A1000B3F5806FD4D12268136823F040031360BC
:101A2000CEE700BF70B50D46164613464FF4C051C1
:101A30002A460446FFF794FF70B9324629462046ED
:101A4000FFF776FF40B933462A464FF4C06120467F
:101A5000FFF786FF00B970BD236E032043F020031B
:101A6000236670BD2DE9F843044601200F46164653
:101A700084F85C009946089DFEF7F2FD94F85D102D
:101A800080466268C9B2012910D0B2F5827F08D0C1
:101A900002200122002384F85D2084F85C30BDE838
:101AA000F883A368002BF3D10429F1D1B9F1000F19
:101AB00018BF002E00D00FB90120EAE794F85D307E
:101AC000042B02D0052384F85D30E36800212664EE
:101AD000B3F5E06F2166A4F84490A4F84690A7639C
:101AE000A4F83C90A4F83E90C4E9131121684DD9A4
:101AF0004B6823F480534B600B68580603D40B6883
:101B000043F040030B60002A00F0B780E38F9BB2E4
:101B1000012B00F0B2804FF00109E38F9BB22BB98B
:101B2000B4F846309BB2002B00F08780B9F1000F6B
:101B30000FD0E38F9BB263B123689A68910708D5F1
:101B400037F8022B4FF00009DA60E38F013B9BB2BC
:101B5000E387B4F846309BB273B123689A68D20722
:101B60000AD5DB684FF0010926F8023BB4F846308D
:101B7000013B9BB2A4F84630681CCED0FEF770FD46
:101B8000A0EB08008542C8D8032082E7B4F84630AD
:101B9000012B4B6840F28B8023F480534B600B6821
:101BA0005B0640F18B80002A6FD0E38F9BB2012B44
:101BB0006BD04FF00109E38F9BB223B9B4F84630E4
:101BC0009BB2002B39D0B9F1000F12D0E38F9BB23A
:101BD0007BB123689A6891070BD5E28F012A5CD903
:101BE00037F8022B4FF00009DA60E38F023B9BB21B
:101BF000E387B4F846309BB2B3B123689A68D20742
:101C000012D5B4F84620012A24D9DA6826F8022B26
:101C1000B4F84620023A92B2A4F84620B4F846201E
:101C2000012A23D94FF001096B1CC4D0FEF718FD1F
:101C3000A0EB08008542BED8A6E7424629462046CA
:101C4000FFF7F0FE08B120232366206E003018BF96
:101C500001201EE71B7B4FF0010933704E44B4F89E
:101C60004630013B9BB2A4F84630DDE75A684FF09E
:101C7000010942F480525A60D6E737F8023BCB6044
:101C8000E38F013B9BB2E38745E717F8013B0B73FA
:101C9000E38F013B9BB2E3878BE73A784FF0000973
:101CA00001371A73E38F013B9BB2E387A1E743F44B
:101CB00080534B600B6858063FF575AF0B6843F0D7
:101CC00040030B606FE700BF00285DD0002290F852
:101CD0005D302DE9F0418262044603F0FF02002BE3
:101CE0004DD0E76802232268B7F5E06F84F85D30D5
:101CF00027F40061136894BF4FF48055002523F04A
:101D00004003B1F5E06F136035D1A66A236B2BB9A0
:101D1000B7F5E06F8CBF022301232363A1684FF066
:101D20000008636820690B43616903430B43D4E9EE
:101D300006010B43616A4FEA104C00F4007E0F432A
:101D4000216A0CF0040C40460B43616B0F4343EADD
:101D50000E034FF0010E47EA0C0733433D43136077
:101D60005560D36923F40063D361C4F8608084F8BC
:101D70005DE0BDE8F08100231E46A362C6E780F85F
:101D80005C2002F05FF9ACE7012070472DE9F041DB
:101D90001E4690F85C3082B0012B69D001230446C6
:101DA0000D46904680F85C30FEF75AFC94F85D30A2
:101DB0000746012B09D002200122002384F85D2070
:101DC00084F85C3002B0BDE8F081002D54D0B8FA40
:101DD00088F35B09002B4FD1A1680322A563B1F5FD
:101DE000004F84F85D20A4F83C8023662364A4F8A7
:101DF0003E80A4F844302268A4F84630C4E9133386
:101E000003D1136843F48043136013685B0603D463
:101E1000136843F040031360E368B3F5E06F34D90F
:101E2000E08F80B270B123689A68900751D535F879
:101E3000022BDA60E38F013B9BB2E387E08F80B235
:101E40000028F0D13A4631462046FFF7EBFD08B1B5
:101E500020232366A36833B922680193D3680193D2
:101E600093680193019B206E003018BF0120A3E707
:101E7000022002B0BDE8F08101209DE72A780135FB
:101E80001A73E38F013B9BB2E387E08F80B2002897
:101E9000D8D023689A68920711D5E28F012AEDD92C
:101EA00035F8022BDA60E38F023B9BB2E387E08FC9
:101EB00080B20028C6D023689A689207EDD436B164
:101EC000731CE2D0FEF7CCFBC01BB042DDD3032075
:101ED00072E7002EFBD0711CA2D0FEF7C1FBC01B25
:101EE000B0429DD3F3E700BF2DE9F04147681E469D
:101EF00082B00446B7F5827F90460D4690F85C307C
:101F000015D0012B23D0012384F85C30FEF7A8FB09
:101F100094F85D300746012B1DD0022001220023DA
:101F200084F85D2084F85C3002B0BDE8F0818268FE
:101F3000002AE6D10422012B80F85D2007D0434619
:101F40000A460096FFF78EFD02B0BDE8F081022040
:101F500002B0BDE8F081002D7CD0B8FA88F35B09AF
:101F6000002B77D10422E168A36384F85D20B1F5EA
:101F7000E06F22682366A387A4F84680E387256480
:101F8000A4F84480C4E9133353688CBF23F480530E
:101F900043F480535360A368B3F5004F03D1136833
:101FA00023F48043136013685B0603D4136843F083
:101FB00040031360B1F5E06F2AD8B4F846309BB205
:101FC0008BB123689A68D0073AD51B7B05F8013B93
:101FD000B4F84630013B9BB2A4F84630B4F8463022
:101FE0009BB2002BEDD13A4631462046FFF7E0FC8C
:101FF00008B120232366206E003018BF01208DE732
:1020000036B3731C04D0FEF72BFBC01BB0421FD2AB
:10201000B4F846309BB2002BE5D023689A68D2070B
:10202000EED5DB6825F8023BB4F84630013B9BB2A5
:10203000A4F84630B4F846309BB2002BEDD1D2E77D
:1020400036B1711CB9D0FEF70BFBC01BB042B4D344
:10205000032063E7012061E703680122186A02FA9E
:1020600001F120EA010010B418620B4C1A6AA34275
:1020700041EA020119620AD0084A934207D01A685D
:1020800000205DF8044B42F001021A6070475A6C60
:1020900042F400425A64F2E70000014000040140AB
:1020A000704700BFFFF7D8BF90F83C30012B66D0D7
:1020B00003685F4AF0B40224012580F83D409C6823
:1020C00080F83C5022400C68402C9A6000F09780C9
:1020D00019D9702C00F081802BD9B4F5805F77D0AE
:1020E000B4F5005F1CD1CC68D1E9015299682A434C
:1020F00021F47F4142EA04220A439A609A6842F43A
:1021000080429A600CE0102C43D02FD9202C39D07B
:10211000302C05D19A6822F0700242F037029A60A2
:102120000023012280F83C3080F83D201846F0BCA6
:102130007047502C34D0602CF2D11C6A4D6824F0CA
:102140001004CE681C6299691A6A21F4704122F069
:10215000A00241EA063142EA051299611A629A68C0
:1021600022F0700242F067029A60D9E7002CD7D1C2
:102170009A6822F0700242F007029A60D0E70222C9
:10218000104670479A6822F0700242F027029A6067
:10219000C6E79A6822F0700242F017029A60BFE721
:1021A0001E6A1D6A4C6826F00A0625F00105CF68F4
:1021B00034431D629A6922F0F00242EA07129A61E2
:1021C0001C629A6822F0700242F057029A60A7E7F8
:1021D0009968184A0A409A60A2E7D1E90142CD689D
:1021E00022439C68144942EA052224F47F44224396
:1021F0009A609A68114041F07701996090E71E6AF1
:102200001D6A4C6826F00A0625F00105CF683443A4
:102210001D629A6922F0F00242EA07129A611C627A
:102220009A6822F0700242F047029A6078E700BF95
:102230008800FEFFF8FFFEFF88FFFEFFF0B4324E7D
:10224000B0F1804F314FA0EB06060368A0EB070703
:10225000B6FA86F6B7FA87F74FEA56164FEA5717D7
:1022600025D026BB2A4A90423ED002F58062904299
:102270003AD002F5806290423BD0002F39D1254AF6
:10228000904218D002F58062904214D002F580622C
:10229000904210D0A2F5983290420CD002F58062A4
:1022A000904208D002F58062904208D103E023F00A
:1022B00070034D682B4323F44073CD682B434A6968
:1022C00023F080038C6813430A680360C46282624F
:1022D00026B91FB90123F0BC436170470B69036342
:1022E0000123F0BC4361704723F070034A68134335
:1022F000E1E7094A23F070034C68904243EA040383
:10230000D9D0002FD7D1BAE7000001400004014026
:102310000004004000400140000C0040B8B190F8BB
:102320003D3010B503F0FF0204465BB10223206884
:10233000211D84F83D30FFF781FF0123002084F840
:102340003D3010BD80F83C2001F0E8FEEEE70120B2
:10235000704700BFB8B190F83D3010B503F0FF02F0
:1023600004465BB102232068211D84F83D30FFF74D
:1023700065FF0123002084F83D3010BD80F83C202B
:10238000FFF78EFEEEE70120704700BF00284BD01C
:102390002DE9F84390F83D3005460C4603F0FF0266
:1023A000002B3CD029460220204A51F8043B85F8F6
:1023B0003D009E681846324001269A60FFF73EFFB6
:1023C0002369A769A0681A01296840EA0728E76914
:1023D000D1F808C0164842EA07228B6927681840DE
:1023E000E368D4F820904CEA07071A430B6A48EADE
:1023F0000008606923F0AA0E63680E4C42EA0932B5
:1024000043EA00138F6008EA0404002043EA0E0345
:1024100022438A610B6285F83D60BDE8F88380F84D
:102420003C2001F059FEBDE701207047F8FFFEFF98
:10243000FCFCFFFF0303FFFFF0B4046A8D6824F087
:1024400001040E68124A0462036A446823F002031E
:1024500087692B430F4D3A40A84242EA06020AD050
:1024600005F58065A84206D04968446082614163F1
:102470000362F0BC704723F00803CF684D6924F471
:1024800040748E693B43354323F004032C43EBE750
:102490008CFFFEFF00000140F0B4046A8D6824F058
:1024A00010040E68144A0462036A446823F020038F
:1024B000876943EA0513114D3A40A84242EA0622D1
:1024C0000AD005F58065A84206D04968446082615B
:1024D00081630362F0BC704723F08003CF684D69CD
:1024E00024F440648E6943EA0713354323F0400324
:1024F00044EA8504E9E700BFFF8CFFFE00000140CD
:10250000F0B4046A8D6824F480740E68144A04627E
:10251000036A446823F40073C76943EA0523114D35
:102520003A40A84242EA06020AD005F58065A84270
:1025300006D049684460C261C1630362F0BC704761
:1025400023F40063CF684D6924F440548E6943EA54
:102550000723354323F4806344EA0514E9E700BF09
:102560008CFFFEFF00000140F0B4046A8D6824F483
:1025700080540E680F4A0462036A446823F40053CF
:10258000C76943EA05330C4D3A40A84242EA0622A5
:102590000AD005F58065A84206D049684460C2614A
:1025A00001640362F0BC704724F480444D6944EA3E
:1025B0008514F2E7FF8CFFFE00000140F0B4046ACE
:1025C0008D6824F480340E680F4A0462036A4468FC
:1025D00023F40033476D43EA05430C4D3A40A842CB
:1025E00042EA06020AD005F58065A84206D049688D
:1025F0004460426581650362F0BC704724F4803416
:102600004D6944EA0524F2E78FFFFEFF0000014018
:10261000F0B4046A8D6824F480140E680F4A0462D2
:10262000036A446823F40013476D43EA05530C4DD5
:102630003A40A84242EA06220AD005F58065A8423F
:1026400006D0496844604265C1650362F0BC7047CA
:1026500024F480244D6944EA8524F2E7FF8FFFFECD
:102660000000014090F83C30012B70B41FD002688C
:10267000114D5368AA42946814D005F58065AA42AA
:1026800010D00E680025896824F0800423F07003C0
:10269000214333432E465360916080F83C503046CE
:1026A00070BC704723F470034D682B43E9E70226A2
:1026B000304670BC704700BF0000014038B590F84C
:1026C0003C30012B00F08D800D4602230121044691
:1026D00080F83D3080F83C10142A1DD8DFE802F065
:1026E0000B1C1C1C371C1C1C4A1C1C1C5C1C1C1CB2
:1026F0006F1C1C1C240029460068FFF79DFE236800
:102700002869996941F008019961996921F00401EA
:1027100099619A6902439A6100230122184684F85C
:102720003D2084F83C3038BD29460068FFF770FF33
:1027300023682869596D41F400615965596D21F488
:10274000806159655A6D42EA00225A65E4E72946DC
:102750000068FFF7A1FE23682869996941F40061C8
:102760009961996921F4806199619A6942EA00222C
:102770009A61D1E729460068FFF7C2FE23682869FD
:10278000D96941F00801D961D96921F00401D96101
:10279000DA690243DA61BFE729460068FFF7E4FE21
:1027A00023682869D96941F40061D961D96921F4A4
:1027B0008061D961DA6942EA0022DA61ACE7294630
:1027C0000068FFF7FBFE23682869596D41F0080196
:1027D0005965596D21F0040159655A6D02435A65D6
:1027E0009AE7022038BD00BF2DE9F843089D8046D6
:1027F0000F4616469946D8F8004001E06B1C0AD1F6
:10280000E06937EA00030CBF01200020B042F5D098
:102810000020BDE8F8833DB1FDF722FFA0EB0900E1
:10282000A842E8D3D8F800402368202200210320E2
:1028300023F4D0732360A36823F00103A36088F816
:10284000692088F8681088F86A20E2E7F8B504463D
:102850008368A249E669E768A14DD0E904201A43DC
:10286000236802431868AB4201EA000142EA06020B
:1028700042EA0102A1691A605868226A20F44050B5
:1028800042EA010240EA07005860996821F4306189
:1028900042EA01029A6043D0924A93421DD0924A82
:1028A000934200F09080914A934200F0B880904AA1
:1028B000934247D08F4A934200F09F808E4A9342C2
:1028C00000F0E9808D4A934200F0F680B6F5004FA3
:1028D00000F0D28001221046F8BD8949894AD1F81A
:1028E000901001F00C010A441279B6F5004F1FD088
:1028F000082AEFD801A151F822F000BFBB29000837
:1029000071290008632A0008D5280008132A000846
:10291000D5280008D5280008D5280008E92900088E
:10292000774A7849D2F8902002F003028A5CDCE70B
:10293000082A00F2A180DFE802F04328809F6F9F01
:102940009F9F8E0002F5F432D2F8902002F440727C
:10295000B2F5807F5AD02BD9B2F5007F6AD0B2F59C
:10296000407F3ED0B2E7002AB0D1B6F5004F0CD080
:10297000FEF7DEFC0022D4E9001300EB5300B0FBAD
:10298000F3F080B2C8601046F8BDFEF7D1FC00221B
:10299000D4E90035690801EB4000B0FBF5F0C0F365
:1029A000420120F00F00014389B2D9601046F8BD02
:1029B000002A8BD1B6F5004F02D0FEF7A9FCD9E76B
:1029C000FEF7A6FCE3E702F5F832D2F8902002F019
:1029D0003002102A1AD0EBD9202A2BD0302A7FF4CB
:1029E00075AFB6F5004F36D060680022410801F59A
:1029F0000041B1FBF0F189B2D7E702F59232D2F88B
:102A0000902002F44062B2F5806F38D1B6F5004FE5
:102A100002D0FEF769FCADE7FEF766FCB7E702F50A
:102A2000F632D2F8902002F0C002402AEED0BFD990
:102A3000802A2DD1B6F5004F13D1616800223248AB
:102A400000EB5100B0FBF1F0C0F3420120F00F00A9
:102A5000014389B2A9E761680022480800F5803087
:102A6000F0E760680022294901EB5001B1FBF0F169
:102A700089B21046D960F8BD0021012295E77FF6A2
:102A800072AFB2F5006FD5D0B2F5406FA9D01DE797
:102A9000C02AA6D01AE702F5E032D2F8902002F45C
:102AA0004052B2F5805FB1D082D9B2F5005FC1D09B
:102AB000B2F5405F95D009E702F5DE32D2F89020FA
:102AC00002F44042B2F5804FA0D07FF671AFB2F56C
:102AD000004FAFD0B2F5404F83D0F7E6F369FFEF78
:102AE000001001400044004000480040004C0040FD
:102AF000005000400014014000780040007C00407D
:102B000000380240704B00080048E8010024F4003F
:102B1000436ADA0710B406D50168846A4A6822F469
:102B2000003222434A609C0706D50168C46A4A689D
:102B300022F4803222434A60590706D50168046BAB
:102B40004A6822F4802222434A601A0706D50168A7
:102B5000446B4A6822F4004222434A60DC0606D5F0
:102B60000168846B8A6822F4805222438A60990645
:102B700006D50168C46B8A6822F4005222438A6039
:102B80005A060AD50168046C4A68B4F5801F22F41D
:102B9000801242EA04024A600BD01B0606D5026886
:102BA000816C536823F400230B4353605DF8044B9E
:102BB00070474A68446C22F4C00222434A60ECE742
:102BC00070B50025044682B0C566FDF749FD226850
:102BD000126813070AD400232022184684F86920BB
:102BE00084F8683084F86A2002B070BD6FF07E46C9
:102BF00003462A464FF4001100962046FFF7F4FDE5
:102C00000028E8D0032002B070BD00BF90B390F858
:102C1000693010B503F0FF02044603B32268242391
:102C2000204684F86930136823F001031360FFF72E
:102C30000DFE012818D0636AC3B9236820465A687C
:102C400022F490425A609A6822F02A029A601A6826
:102C500042F00102BDE810401A60FFF7B1BF80F8F2
:102C6000682001F08BFAD9E7012010BD2046FFF75C
:102C70004FFFE2E70120704770B582B00022442385
:102C8000114D02AE114C8DF8002006F8043D0022D3
:102C900010212846FEF742F86423012231462046DF
:102CA000FFF774F86423012269462046FFF71CF9F8
:102CB000012210212846FEF731F89DF80030FF2B45
:102CC000E5D102B070BD00BF00080240CC02002078
:102CD00070B50B4C05460E46FFF7CEFF204600228E
:102CE0001021FEF71BF83246294664230548FFF7FA
:102CF0004DF8204601221021BDE87040FEF70EB8C5
:102D000000080240CC020020F0B5002383B044222A
:102D100007460E46194D1A4C8DF800308DF80420E8
:102D2000FF2B4FF000024FF01001284611D0FDF7A5
:102D3000F5FF6423012201A92046FFF727F80123AC
:102D4000694620461A46FFF7CFF89DF80030FF2B62
:102D50000CD13A46314664230948FFF7C5F80122F1
:102D600010210648FDF7DAFF03B0F0BD0122102163
:102D70002846FDF7D3FF9DF80030D1E70008024058
:102D8000CC0200202DE9F04182B0104D7723104E87
:102D900002AC80460F4628460022102104F8043D6C
:102DA000FDF7BCFF2146304664230122FEF7EEFF0B
:102DB0004246394664233046FFF796F828460122FA
:102DC0001021FDF7ABFF02B0BDE8F0810008024022
:102DD000CC02002070B582B000224423124D02AE16
:102DE000124C8DF8002006F8043D00224FF480714B
:102DF0002846FDF793FF6423012231462046FEF763
:102E0000C5FF6423012269462046FFF76DF80122C1
:102E10004FF480712846FDF781FF9DF80030FF2BAD
:102E2000E3D102B070BD00BF000C0240B000002032
:102E300070B50C4C05460E46FFF7CCFF204600222D
:102E40004FF48071FDF76AFF324629466423064835
:102E5000FEF79CFF204601224FF48071BDE87040D0
:102E6000FDF75CBF000C0240B000002030B51C46EE
:102E700085B0002311258DF8011001468DF803203F
:102E800001A8224603938DF802408DF80050CDE949
:102E9000013301F04DFAFFF79DFF211D6846C9B2CD
:102EA000FFF7C6FF05B030BDF0B5002383B0442264
:102EB00007460E461A4D1B4C8DF800308DF8042045
:102EC000FF2B4FF000024FF48071284611D0FDF720
:102ED00025FF6423012201A92046FEF757FF0123A5
:102EE000694620461A46FEF7FFFF9DF80030FF2B8B
:102EF0000DD13A46314664230A48FEF7F5FF012218
:102F00004FF480710648FDF709FF03B0F0BD0122C0
:102F10004FF480712846FDF701FF9DF80030CFE7A0
:102F2000000C0240B00000202DE9F04182B0114DAC
:102F30006623114E02AC07468846284600224FF40D
:102F4000807104F8013DFDF7E9FE21463046642317
:102F50000122FEF71BFF4246394664233046FEF746
:102F600015FF284601224FF48071FDF7D7FE02B00D
:102F7000BDE8F081000C0240B000002010B5012235
:102F8000084C11462046FDF7C9FE0520FDF76EFBF3
:102F9000204600220121FDF7C1FE0520BDE81040BA
:102FA000FDF764BB0004024010B582B03323002259
:102FB00002ACADF8042004F8053DFFF75DFE2046A5
:102FC0000121FFF785FE01A90220FFF79DFE9DF874
:102FD000043003F00D03052B07D04FF49A7301A8BA
:102FE0000221ADF80430FFF773FE02B010BD00BF40
:102FF000F0B583B0002540F21533074602AC0E460B
:103000008DF80250022124F8083D2046FFF760FEAB
:1030100008233222204619468DF80170ADF802507F
:103020008DF804608DF805308DF806308DF8073086
:103030008DF80020FFF74CFE03B0F0BD07EE900ABC
:10304000B6EE0E6B1D480023B8EE677B1C4AF0B548
:1030500027EE067B1B4F1C4E87B00025FCEEC77B7E
:1030600017EE901A4C09A7FB0474E40A013CE4B281
:1030700004FB0000091AA6FB0101C808090CC004E2
:10308000FDF7DEF810F500268DF80440300A8DF8C3
:103090000760320C0D4B8DF806008DF80520019A63
:1030A00002930595CDE90325FFF7E6FD08210DEB19
:1030B0000100FFF70DFE07B0F0BD00BFE070720029
:1030C000A08601008DA93C02B5814E1B1140040071
:1030D00010B582B00121044602AB03F8011D184669
:1030E000FFF7F6FDFFF7C8FD21460820FFF70CFEAD
:1030F00002B010BD10B50A4C01224FF48051204699
:10310000FDF70CFE0520FDF7B1FA204600224FF432
:103110008051FDF703FE0520BDE81040FDF7A6BA7B
:103120000004024010B582B03323002202ACADF897
:10313000042004F8053DFFF74DFE20460121FFF76E
:1031400077FE01A90220FFF7AFFE9DF8043003F0DF
:103150000D03052B07D04FF49A7301A80221ADF897
:103160000430FFF765FE02B010BD00BF10B50023AC
:1031700082B0090131248DF801008DF802108DF81C
:1031800004208DF803308DF805308DF806308DF869
:103190000040FFF71FFE07216846FFF749FE02B017
:1031A00010BD00BFF0B583B040F2153300260D46C8
:1031B00002AC07468DF80660022124F8043D204643
:1031C0001646FFF735FE084B204604210193FFF712
:1031D0002FFE29463846FFF7A7FE2A463046032130
:1031E000FFF7C4FF03B0F0BD200000FF07EE900A18
:1031F000B6EE0E6B19480023B8EE677B184AF0B59F
:1032000027EE067B174E184D83B0FCEEC77B17EEFA
:10321000901A4C09A6FB0464E40A013CE4B204FBE6
:103220000000091AA5FB0101C808090CC004FDF73C
:1032300007F8042310F500268DF8044000224021F1
:10324000350C0DEB0300340A8DF807608DF805503E
:103250008DF80640FFF70AFE03B0F0BDE070720083
:10326000A08601008DA93C02B5814E1B10B582B02D
:103270000121044602AB03F8011D1846FFF7D8FDF3
:10328000FFF7A8FD21460820FFF70EFE02B010BD93
:1032900010B50022124C80211248FDF73FFD052099
:1032A000FDF7E4F9204601224FF48061FDF736FD79
:1032B0003220FDF7DBF9204600224FF48061FDF754
:1032C0002DFDFA20FDF7D2F9204601224FF480614E
:1032D000FDF724FD3220BDE81040FDF7C7B900BF5F
:1032E000000402400010024010B5002202210446F2
:1032F0001548FDF713FD002204211348FDF70EFDCC
:10330000C82300BF013BFCD1104A44F0B804C823D5
:103310005169C9B25161516941EA0421516100BF4B
:10332000013BFCD1012280210848FDF7F7FCC822AF
:1033300000BF013AFCD180210448FDF7EFFCC8230F
:1033400000BF013BFCD110BD000402400010024050
:1033500010B50022022104461548FDF7DFFC0022CB
:1033600004211348FDF7DAFCC82300BF013BFCD160
:10337000104A44F04004C8235169C9B251615169EF
:1033800041EA0421516100BF013BFCD101228021AF
:103390000848FDF7C3FCC82200BF013AFCD18021D8
:1033A0000448FDF7BBFCC82300BF013BFCD110BDA6
:1033B000000402400010024010B500220221044621
:1033C0001548FDF7ABFC002204211348FDF7A6FCCD
:1033D000C82300BF013BFCD1104A44F0C004C823FD
:1033E0005169C9B25161516941EA0421516100BF7B
:1033F000013BFCD1012280210848FDF78FFCC82247
:1034000000BF013AFCD180210448FDF787FCC823A6
:1034100000BF013BFCD110BD00040240001002407F
:1034200010B50122022104461448FDF777FC002262
:1034300004211248FDF772FCC82300BF013BFCD1F8
:103440000F4AC8235169C9B25161516941EA042147
:10345000516100BF013BFCD1012280210848FDF7EA
:103460005DFCC82200BF013AFCD180210448FDF771
:1034700055FCC82300BF013BFCD110BD0004024035
:103480000010024010B50022022104461648FDF744
:1034900045FC002204211448FDF740FCC82300BF6E
:1034A000013BFCD1114A44F03E04C823516901F4A8
:1034B0007F415161516941EA0421516100BF013BE3
:1034C000FCD1012280210948FDF728FCC82200BF59
:1034D000013AFCD180210548FDF720FCC82300BF3C
:1034E000013BFCD110BD00BF0004024000100240AF
:1034F00000220121154838B51546FDF70FFC0221C1
:1035000012482A46FDF70AFC2A4604210F48FDF717
:1035100005FC2846FFF7B6FF2846FFF74DFF0024BD
:103520002846FFF7E1FEE0B20134FFF711FF00206B
:10353000FFF776FF402CF3D10135EDB2082DEED127
:103540000120BDE83840FFF79DBF00BF00080240E2
:103550002DE9F04F85B01C460F46029000200392E3
:10356000FFF72AFF012C66D0022C02D005B0BDE87F
:10357000F08F0023DDF80C90DFF870B15A4E019304
:10358000039C2046FCF7DCFFA9EB04038342EDD249
:103590000024DDE9013203EB020821E0FDF7BEFB68
:1035A000002202213046FDF7B9FB012204213046FA
:1035B000FDF7B4FB05F001003844C0B2FFF794FEFC
:1035C0000AF03F00FFF7C4FE99F8003003EB430315
:1035D0000BEBC303185D0134FFF722FF182C21D039
:1035E000E5B208EB550ABAF13F0F14DD0122BAF13A
:1035F0007F0F30461146D1DD01221146FDF78EFBCB
:10360000304601220221FDF789FB002204213046C9
:10361000FDF784FBCEE7002201213046FDF77EFB5B
:103620000122BEE7019B09F1010903F10C0A5FFACF
:103630008AF30193A4E7DDF80C804FF0000BDFF86C
:10364000B0A0C146284E4046FCF77AFFA9EB08031C
:1036500098428BD9029B002503EB0B041FE0FDF77A
:103660005DFB002202213046FDF758FB01220421B8
:103670003046FDF753FB3846FFF736FE04F03F00B7
:10368000FFF766FE99F80030013403EB43030AEBC1
:103690004303585D0135FFF7C3FE062D1CD03F2CB8
:1036A00013DD01227F2C30461146D8DD0122114660
:1036B000FDF734FB304601220221FDF72FFB0022EB
:1036C00004213046FDF72AFBD5E7002201213046D0
:1036D000FDF724FB0122C5E70BF1060B09F10109F7
:1036E0005FFA8BFBAFE700BF0008024008530008F9
:1036F000844B0008202800D070472DE9F041364C5B
:1037000086B02178C9B2012902D006B0BDE8F081A7
:1037100006AD324E05F8140D2846FFF7D9FA3146AA
:103720000820FFF7F1FAB378DB0607D420232846F8
:1037300001218DF80430FFF7CBFAE6E7284E4FF46D
:10374000004128484FF00008FDF7ECFA31466120AF
:10375000FFF718FB40F2153302212846ADF804307C
:103760008DF80680FFF7B4FA96F813C03046377D1F
:10377000424696F815E03F02B17DF37D47EA0C47DB
:1037800096F818C01E0247EA0E0746EA0146612174
:1037900046EA0C06FFF706FD6368BB4200D067608F
:1037A000A368B34200D0A660626828460E4900F0C4
:1037B000E3FD01232A4602217220FFF7C9FEA26819
:1037C0000A49284600F0D8FD01232A460321722029
:1037D000FFF7BEFEAAE700BF94000020F80100201A
:1037E0009401002000000240206B0008286B0008B4
:1037F0002E4A4FF4A0202E4B116C41F0805170B531
:103800001164B8B0126C022401264FF4800502F056
:10381000805208210092009A1A6842F440421A60CD
:10382000D8221B68089007A803F4404307960D941C
:103830000193019B1092CDE91144CDE90E51FDF7A2
:10384000DDFA00B1FEE7FDF77DFA034600B1FEE7C1
:103850004FF480520F264FF4A055072102A804937D
:1038600003940296CDE90552FDF796FC034600B19C
:10387000FEE7402214A825931492FDF769FD044643
:1038800000B1FEE7FDF73EFD4FF47A73B0FBF3F0B5
:10389000FDF7BCF80420FDF7D1F8224621464FF091
:1038A000FF30FDF771F838B070BD00BF003802403E
:1038B0000070004080B596B00126FCF7B9FEDFF835
:1038C0001C93FFF795FFB64B00224FF68C711D6BD2
:1038D0004FF017081446B34845F010051D63032543
:1038E0001F6B07F010070097009F1F6B47F08007C2
:1038F0001F631F6B07F080070197019F1F6B47F045
:1039000004071F631F6B07F004070297029F1F6BDA
:1039100037431F631F6B37400397039F1F6B47F0AD
:1039200002071F631F6B07F002070497049F1F6BBA
:1039300047F008071F6320271B6B03F0080305935C
:10394000059BFDF7EBF9224641F607419648FDF746
:10395000E5F9324610219448FDF7E0F9324641F28C
:1039600001019248FDF7DAF9224640F206418F48FC
:10397000FDF7D4F932464FF480718D48FDF7CEF94A
:1039800022464FF400418B48FDF7C8F922462946EC
:103990008748FDF7C3F90C230DA98248CDE90D3600
:1039A000CDE90F44FDF796F843230DA97D480F9408
:1039B000CDE90D39FDF78EF80DA97B481095CDF8AE
:1039C0003480CDE90E64FDF785F80DA976480D9792
:1039D000CDE90E94FDF77EF841F207430DA9734837
:1039E00010950D93CDE90E64FDF774F84FF68073D2
:1039F0000DA96C4810950D93CDE90E64FDF76AF89A
:103A00004FF480730DA96A4810950D93CDE90E64AB
:103A1000FDF760F84FF427730DA965480D93CDE9C4
:103A20000E94FDF757F84FF400430DA961480D932C
:103A30001094CDE90E64FDF74DF84FF4E0530DA955
:103A400059480D931094CDE90E64FDF743F80DA984
:103A50005748CDE90D56CDE90F44FDF73BF8224616
:103A600021460620FCF790FF0620FCF7C3FF224604
:103A700021460720FCF788FF0720FCF7BBFF224602
:103A800021460820FCF780FF0820FCF7B3FF224600
:103A900021460920FCF778FF0920FCF7ABFF2246FE
:103AA00021460A20FCF770FF0A20FCF7A3FF2246FC
:103AB00021464046404DFCF767FF4046FCF79AFF21
:103AC0003E494FF480323E4B2846AC602C61AC61DD
:103AD0002C62EC62EC60EE612C636E61AB62C5E956
:103AE0000012FCF7D5FD00B1FEE703460DA92846FC
:103AF0000F93CDE90D36FCF77FFE00B1FEE7314CA8
:103B0000314B20462360FCF7ABFF034600B1FEE7D4
:103B100020461A460DA9CDE90D33FCF7B7FF00B1D9
:103B2000FEE72A4B4FF4007107224FF48275284EAE
:103B30004FF4E06498609862DF611E605D60DC6055
:103B40009961DA62C3E90400C3E90800C3E90C0023
:103B50001846FEF7B9F8034600B1FEE71D4C40F6E3
:103B60006F011D4D6322A06020462361A361E260C6
:103B7000C4E90051FEF7D2FB00B1FEE716AD4FF4E9
:103B80008053204645F8343D2946FEF78DFA00B1B2
:103B9000FEE72046FEF7DEFB034608B3FEE700BF64
:103BA00000380240001002400008024000040240B9
:103BB000000C0240000002400002002000200140F2
:103BC0000100000FB802002000740040B000002087
:103BD00000380040140100200008004000002110BF
:103BE00006A9204606930893FEF73CFD034600B164
:103BF000FEE7602620461A460DA911930D96CDE9E1
:103C00000E33FEF75BFD00B1FEE704220DA9B448B8
:103C1000FEF754FD00B1FEE708220DA9B048FEF7FB
:103C20004DFD044600B1FEE7AD4800F08DFAAD4B06
:103C3000AD4E4FF4E1310C2218461C615A61C3E9C4
:103C40000244C3E90644C3E90844C3E90061FEF73E
:103C5000DDFF00B1FEE7A54B2821A54A4FF482778E
:103C60004FF4E0664FF400741A600722986098627F
:103C70005F60DE60DA62C3E90400C3E90800C3E9FB
:103C80000C001846C3E90641FEF71EF8034600B1D2
:103C9000FEE7984C0126984A0DA90E9020461293F3
:103CA000A36122600D960F961396CDE91033CDE9EE
:103CB0001433C4E90133C4E90333FEF767FB034659
:103CC00000B1FEE72046294609930B93FEF7CAFC94
:103CD000044600B1FEE76420FCF7C8FC22463146EA
:103CE0008648FDF71BF8224602218448FDF716F8A6
:103CF000224604218148FDF711F8FFF7C9FAFFF7C2
:103D0000F7FBFFF73BF9FFF7F5F90DA8FFF7E0F92F
:103D10009DF83530442B09D0794C20464FF40041B2
:103D2000FDF700F86420FCF7A1FCF6E79DF83630BB
:103D3000632BF1D10DA8FFF799FA9DF83530442B8C
:103D4000EAD19DF83630632BE6D14FF000086D4F75
:103D500007EB08060DACD6F80C3606F5C0663068E1
:103D60007168B268367C0FC42670FEF785FF9DF837
:103D700034100DF13500FEF7ABFF9DF83430013300
:103D800043441FFA83F8B8F5C17FE1D94FF000082A
:103D900007EB08060DACD6F80C3606F5C0663068A1
:103DA0007168B268367C0FC42670FFF713F89DF86F
:103DB00034100DF13500FFF73BF89DF83430013336
:103DC00043441FFA83F8B8F5C17FE1D920244E4E51
:103DD00001210DA88DF83440FEF77AFF01210DA8CE
:103DE0008DF83440FFF724F830680124FFF726F9F6
:103DF0007068FFF7FBF9454FFFF7D6F84FF014084E
:103E0000FFF790F961210020FFF7F2F84FF00A0C5C
:103E100028462346224622218DF824C0FFF726F8A3
:103E20003B4A322300212E4814702E257B63FEF777
:103E300039F90421C7F838802948FEF733F90821F9
:103E4000C7F83C802648FEF72DF900212346314A69
:103E50000846FFF77DFB23462F4A00218A20FFF703
:103E600077FB32682D490DA800F086FA0DF13A0172
:103E700009220DF13B0000F066FA23460DAA02214B
:103E800000208DF83A50FFF763FB726824490DA8B3
:103E900000F072FA0DF13A0109220DF13B0000F039
:103EA00052FA032100200DAA23468DF83A50FFF75D
:103EB0004FFB40211B48FCF72BFF28B123461A4A31
:103EC00007210020FFF744FB0D4C20464FF4004132
:103ED000FCF728FF4FF47A70FCF7C8FBF5E700BF4A
:103EE000140100204802002000100140CC020020F4
:103EF000003001405401002000040040000802404E
:103F000000000240844B0008080000200008004028
:103F100094000020346B0008486B0008506B0008C8
:103F20005C6B000800100240686B0008224B032005
:103F30001A6C42F0805200B51A6483B01A6C02F019
:103F400080520092009A5A6C42F480425A645B6C30
:103F500003F480430193019BFCF702FD00226FF004
:103F60000B001146FCF710FD00226FF00A0011460D
:103F7000FCF70AFD00226FF009001146FCF704FD72
:103F800000226FF004001146FCF7FEFC00226FF0E7
:103F900003001146FCF7F8FC00226FF00100114607
:103FA000FCF7F2FC00224FF0FF30114603B05DF841
:103FB00004EBFCF7E9BC00BF0038024002680E4B7E
:103FC0009A4200D0704703F58C330C485A6C42F487
:103FD000807270B55A6486B05B6C0F26032500248E
:103FE00003F4807301A901960093009BCDE902546C
:103FF000FCF770FD06B070BD0020014000000240DB
:1040000002680E4B9A4200D0704703F5E2330C4829
:104010001A6C42F0005270B51A6486B01B6C102600
:104020000325002403F0005301A901960093009B8F
:10403000CDE90254FCF74EFD06B070BD007400409F
:104040000000024003681F4A934270B588B01FD039
:104050001D4A934201D008B070BD1C4B4FF4604123
:10406000022000261A6C0325052442F480421A64BB
:104070001B6C039103A903F480430490144802933A
:10408000029B0794CDE90565FCF724FD08B070BDDF
:104090000E4BE021022000265A6C0325052442F431
:1040A00080525A645B6C039103A903F4805304901B
:1040B00008480193019B0794CDE90565FCF70AFDCB
:1040C00008B070BD003001400038004000380240A8
:1040D000000402400000024002680E4B9A4200D0E9
:1040E000704703F50D330C4870B51A6C022586B085
:1040F00030262A43002401A91A641B6C01962B4028
:10410000029505950093009BCDE90344FCF7E2FC82
:1041100006B070BD00040040000402400268094B74
:104120009A4200D0704703F50C3382B01A6C42F00B
:1041300004021A641B6C03F004030193019B02B098
:10414000704700BF0008004002680A4B9A4200D046
:10415000704710B586B0022300224FF4E04401A955
:1041600005480392CDE90143CDE90433FCF7B2FCE5
:1041700006B010BD00080040000C02400268114B60
:104180009A4200D0704703F594334FF4C061022087
:104190005A6C42F0100270B55A6486B05B6C00260F
:1041A0000191032503F010030290072401A9009355
:1041B0000548009B0594CDE90365FCF78BFC06B030
:1041C00070BD00BF0010014000000240704700BFFA
:1041D000FEE700BFFEE700BFFEE700BFFEE700BF4F
:1041E000704700BF704700BF704700BF08B5FCF7BD
:1041F0002BFABDE80840FCF72FBC00BF0120FCF7FC
:1042000095BD00BF0220FCF791BD00BF0420FCF764
:104210008DBD00BF0820FCF789BD00BF1020FCF752
:1042200085BD00BF08B52020FCF780FD4020FCF7CD
:104230007DFD8020FCF77AFD4FF40070BDE808405A
:10424000FCF774BD0F4A104BD2F888000F4940F4B8
:10425000700070B4C2F88800002418684FF0006540
:104260000B4E40F0010018609C6018680140196016
:104270005E60196821F480211960DC60956070BC73
:10428000704700BF00ED00E000380240FFFFF6FE7F
:1042900010300024DFF834D0002103E00C4B5B58D1
:1042A000435004310B480C4B42189A42F6D30B4A48
:1042B00002E0002342F8043B094B9A42F9D3FFF78E
:1042C000C1FF00F011F8FFF7F5FA70470000082071
:1042D000BC6B00080000002078000020780000205F
:1042E00034030020FEE7000070B50D4E0D4CA41BFA
:1042F000A4100025A54209D10B4E0C4C00F02CFC5B
:10430000A41BA4100025A54205D170BD56F8253088
:1043100098470135EEE756F8253098470135F2E722
:10432000B46B0008B46B0008B46B0008B86B0008ED
:1043300010B5431E0A44914200D110BD11F8014B43
:1043400003F8014FF7E7884210B501EB020307D8E5
:10435000421E99420AD011F8014B02F8014FF8E7CA
:104360008342F5D98118D21AD34200D110BD13F877
:10437000014D01F8014DF7E70EB400B59CB01DAB3F
:10438000029006906FF00041094807910491094995
:1043900053F8042B05910068019302A900F066F818
:1043A000029B00221A701CB05DF804EB03B070474A
:1043B000140000200802FFFF2DE9F0478E689E429E
:1043C00082460C469046994637D88A8912F4906FF7
:1043D00031D0256809696F1A6569022305EB450527
:1043E00095FBF3F509F101033B449D4238BF1D469F
:1043F000530530D5294600F007FB064650B90C237B
:10440000CAF80030A38943F04003A3814FF0FF3086
:10441000BDE8F0873A462169FFF78AFFA38923F4B4
:10442000906343F08003A381266165613E44ED1BE8
:104430002660A5604E464E4500D94E46324641465E
:104440002068FFF780FFA3689B1BA36023681E44BE
:1044500026600020DCE72A4600F030FB06460028F4
:10446000E2D12169504600F081FAC8E72DE9F04F0A
:104470001D468B891F069DB080460C4616460FD5FB
:104480000B696BB9402100F0BFFA2060206128B9A8
:104490000C23C8F800304FF0FF30C8E040236361C0
:1044A0000023099320238DF8293030238DF82A30FA
:1044B00003954FF0010B37463D4615F8013B0BB114
:1044C000252B3ED1B7EB060A0BD053463246214688
:1044D0004046FFF771FF013000F0A480099B534470
:1044E00009933B78002B00F09D8000234FF0FF32B2
:1044F000CDE90523049307938DF853301A932F4683
:10450000052217F8011B5048FCF722F8049BD0B98C
:10451000D90644BF20228DF853201A0744BF2B220E
:104520008DF853202A782A2A15D0079A2F46002082
:104530000A25394611F8013B303B092B4DD9B8B15A
:104540000FE02F46B8E7404A801A0BFA00F01843F4
:1045500004903D46D3E7039A111D12680391002A87
:1045600001DB079204E0524243F0020307920493F6
:104570003B782E2B0CD17B782A2B33D1039B1A1D31
:104580001B680392002BB8BF4FF0FF33023705932F
:104590002E4D397803222846FBF7DAFF38B1402345
:1045A000401B03FA00F0049B03430137049339785E
:1045B00027488DF8281006227E1CFBF7C9FF00282B
:1045C00038D0244B13BB039B073323F00703083376
:1045D0000393099B4B4409936DE705FB02320120CD
:1045E0000F46A6E700230137059319460A253846EA
:1045F00010F8012B303A092A03D9002BC8D00591B5
:10460000C6E705FB012101230746F0E703AB009352
:104610002246114B04A94046AFF30080B0F1FF3FA2
:104620008146D6D1A3895B063FF535AF09981DB009
:10463000BDE8F08F03AB00932246074B04A9404628
:1046400000F082F8EAE700BF786B00087E6B000894
:10465000826B000800000000B94300082DE9F04714
:1046600091461F468A680B69DDF820809342B8BFE7
:104670001346C9F8003091F8432006460C4612B1A3
:104680000133C9F800302368990642BFD9F80030D9
:104690000233C9F80030256815F0060507D104F18A
:1046A000190AE368D9F800209B1AAB4228DC94F879
:1046B00043302268003318BF012392062DD404F141
:1046C000430239463046C047013020D02368E568B0
:1046D000D9F8002003F00603042B08BFAD1AA36825
:1046E00022690CBF25EAE57500259342C4BF9B1AD9
:1046F000ED184FF000091A344D451AD1002008E09A
:104700000123524639463046C047013003D14FF0AD
:10471000FF30BDE8F0870135C3E7E1185A1C3020AF
:1047200081F84300224494F8451082F84310023384
:10473000C5E70123224639463046C0470130E6D05E
:1047400009F10109D8E700002DE9F04301F1430C1C
:104750000C46097E85B06E291746064698460C9A87
:1047600000F0B38022D8632936D00AD8002900F09F
:10477000B980582900F0838004F1420584F8421082
:1047800032E0642901D06929F6D120681368050652
:1047900003F104012AD51B681160002B03DA2D22D6
:1047A0005B4284F843206F480A2239E0732900F005
:1047B0009D8008D86F2920D07029DDD1236843F06F
:1047C0002003236003E0752917D07829D4D17823FA
:1047D00084F84530644855E01368191D1B68116062
:1047E00004F1420584F8423001238CE01B6811601B
:1047F00010F0400F18BF1BB2CFE713682568181DD3
:104800001060280601D51B6802E06806FBD51B88EE
:1048100054486F2914BF0A220822002184F843104B
:104820006568A560002DC0F29580216821F0040123
:104830002160002B3DD1002D40F08E806546082A76
:104840000BD12368DB0708D5236962689A42DEBF73
:10485000302305F8013C05F1FF35ACEB050323617E
:10486000CDF800803B4603AA21463046FFF7F6FE0E
:1048700001304DD14FF0FF3005B0BDE8F08339482D
:1048800084F84510136821681D1D1B6815600A0611
:104890000BD5CA0744BF41F0200121601BB9226833
:1048A00022F0200222601022B7E74D0648BF9BB2DB
:1048B000EFE76546B3FBF2F102FB1133C35C05F889
:1048C000013D0B460029F5D1B9E7136825686169F8
:1048D000181D106028061B6801D5196002E06A06E1
:1048E000FBD51980002323616546B9E71368191DBC
:1048F00011601D68626800212846FBF729FE08B197
:10490000401B606063682361002384F84330A7E79D
:1049100023692A4639463046C0470130AAD0236869
:104920009B0713D4E068039B9842B8BF1846A3E7DF
:1049300001234A4639463046C04701309AD00135F6
:10494000E368039A9B1AAB42F2DCEBE7002504F123
:104950001909F5E7002BACD1037884F8423004F153
:1049600042056CE7896B00089A6B000838B505466C
:10497000002945D051F8043C0C1F002BB8BFE418A7
:1049800000F0D2F81F4A1368104633B96360146010
:104990002846BDE8384000F0C8B8A3420CD92168C9
:1049A0006218934204BF1A685B68636004BF5218C0
:1049B00022600460ECE713465A680AB1A242FAD9B1
:1049C00019685818A0420BD1206801445818824237
:1049D0001960DDD1106852685A6001441960D7E748
:1049E00002D90C232B60D3E7206821188A4204BF28
:1049F00011685268626004BF091821605C60C7E7F3
:104A000038BD00BFA000002070B5CD1C25F0030507
:104A100008350C2D38BF0C25002D064601DBA942B8
:104A200003D90C233360002070BD00F07DF8214ACB
:104A30001468214691B9204C23681BB9304600F018
:104A400063F820602946304600F05EF8431C24D10C
:104A50000C233360304600F068F8E4E70B685B1B1A
:104A600018D40B2B0FD90B60CD50CC18304600F06A
:104A70005CF804F10B00231D20F00700C31AD3D00B
:104A80005A42E250D0E78C424B6816BF6360136015
:104A90000C46EBE70C464968CCE7C41C24F0030441
:104AA000A04205D0211A304600F02EF80130CFD0B8
:104AB0002560DBE7A0000020A4000020F8B5074631
:104AC00014460E4621B91146BDE8F840FFF79CBFD9
:104AD00022B9FFF74BFF25462846F8BD00F026F81F
:104AE000A0420FD221463846FFF78EFF0546002828
:104AF000F2D031462246FFF71BFC31463846FFF71D
:104B000035FFE9E73546E7E738B5064C00230546AB
:104B10000846236000F012F8431C02D1236803B159
:104B20002B6038BD300300207047704751F8043CBB
:104B3000181F002BBCBF0B58C0187047044A05490A
:104B40001368002B08BF0B461844106018467047C6
:104B5000A800002038030020F8B500BFF8BC08BC4E
:104B60009E467047F8B500BFF8BC08BC9E4670472B
:104B70000104020800101010041010100210101090
:104B800008000000000000000000003E4551453EC6
:104B9000003E6B6F6B3E001C3E7C3E1C00183C7E52
:104BA0003C180030367F363000185C7E5C18000000
:104BB00000000000000000000000000000000000F5
:104BC0000000000000000030484A360E0006297937
:104BD000290600000000000000607E0A353F002A20
:104BE0001C361C2A00007F3E1C0800081C3E7F006B
:104BF0000014367F361400005F005F000006097F56
:104C0000017F00224D555922006060606000001451
:104C1000B6FFB6140004067F06040010307F301083
:104C20000008083E1C0800081C3E080800784040A8
:104C3000404000083E083E0800303C3F3C30000346
:104C40000F3F0F030000000000000000065F060099
:104C500000070300070300247E247E2400242B6A1F
:104C600012000063130864630036495620500000A8
:104C70000703000000003E4100000000413E00002C
:104C800000083E1C3E080008083E08080000E060DE
:104C9000000000080808080800006060000000200C
:104CA00010080402003E5149453E0000427F40008A
:104CB00000625149494600224949493600181412F8
:104CC0007F10002F49494931003C4A4949300001D1
:104CD0007109050300364949493600064949291E2C
:104CE00000006C6C00000000EC6C00000008142256
:104CF000410000242424242400004122140800023E
:104D000001590906003E415D551E007E1111117EBC
:104D1000007F49494936003E41414122007F4141DF
:104D2000413E007F49494941007F09090901003E90
:104D30004149497A007F0808087F0000417F41000F
:104D400000304040403F007F08142241007F404037
:104D50004040007F0204027F007F0204087F003E83
:104D60004141413E007F09090906003E4151215E53
:104D7000007F090919660026494949320001017F6F
:104D80000101003F4040403F001F2040201F003FE6
:104D9000403C403F00631408146300070870080794
:104DA00000714945430000007F41410000020408B2
:104DB0001020000041417F000004020102048080B5
:104DC0008080808000000307000000205454547845
:104DD000007F444444380038444444280038444464
:104DE000447F00385454540800087E090900001814
:104DF000A4A4A47C007F040478000000007D40008F
:104E0000004080847D00007F102844000000007F67
:104E10004000007C04180478007C0404780000380A
:104E20004444443800FC444444380038444444FC7E
:104E300000447844040800085454542000043E44BC
:104E40002400003C40207C00001C2040201C003C32
:104E50006030603C006C10106C00009CA0603C0056
:104E6000006454544C0000083E41410000000077AB
:104E70000000000041413E08000201020100003C28
:104E80002623263C001EA1E12112003D40207D008A
:104E90000038545455090020555555780020555474
:104EA0005578002055555478002057555778001CE8
:104EB000A2E22214003855555508003855545508BB
:104EC0000038555554080000017C41000000017D68
:104ED00041000000017C4000007029242970007806
:104EE0002F252F78007C545455450034547C545859
:104EF000007E097F4949003845453900003845445E
:104F00003900003945443800003C41217D00003D16
:104F100041207C00009CA1603D00003D42423D00DC
:104F2000003C41403D0080706858380400483E49CC
:104F30004962007E615D433F002214081422004054
:104F4000887E09020020545555780000007D4100FC
:104F5000003844453900003C40217D00007A090AB0
:104F60007100007A1122790000085555555E004EF7
:104F700051514E000030484D40203E415D4B553E62
:104F800004040404041C0017084C6A500017083479
:104F90002A780000307D3000000814000814001446
:104FA00008001408441144114411AA55AA55AA55E1
:104FB000BBEEBBEEBBEE000000FF0000080808FFE0
:104FC00000000070282529700070292529700070C4
:104FD000292528703E415D55413E0AFB00FF000037
:104FE00000FF00FF00000AFA02FE00000A0B080F93
:104FF000000000182466240000292A7C2A290808B9
:1050000008F800000000000F08080808080F08084A
:10501000080808F80808000000FF08080808080841
:105020000808080808FF080800205655567900703F
:105030002A252A71000F080B0A0A00FE02FA0A0A42
:105040000A0B080B0A0A0AFA02FA0A0A00FF00FB16
:105050000A0A0A0A0A0A0A0A0AFB00FB0A0A005D8F
:105060002222225D00225559300000087F49413E2E
:10507000007C55555544007C55545544007C55558D
:1050800054440000000700000000447D450000007B
:10509000457D45000000457C45000808080F0000DC
:1050A000000000F80808FFFFFFFFFFFFF0F0F0F03E
:1050B000F0F00000007700000000457D44000F0F75
:1050C0000F0F0F0F003C42433D0000FE4A4A3400E0
:1050D000003C43433D00003D43423C000032494A0E
:1050E0003100003A4546390000FC20201C0000FE3B
:1050F000AA28100000FFA5241800003C40413D00F4
:10510000003C41413D00003D41403C00009CA0610D
:105110003D000004087109040000020202000000C2
:10512000070300000000080808000000242E2400E7
:1051300000242424242405170A342A780006097F31
:10514000017F00224D5559220008082A0808000056
:1051500008181800000609090600000008000800E9
:1051600000000800000000020F00000000090F0509
:10517000000000090D0A0000003C3C3C3C0000001F
:10518000000000000702010101E8480008130000C8
:105190000000674B000811000400000018301011D7
:1051A000200C0003000702710005E848000000051C
:1051B0001120010C421011200C1C8000B0100CE8D2
:1051C00000530624DD000E11200A280002C008004A
:1051D00012002101710F11200B391212801A2000C8
:1051E00000280CA4230D1120094503007D0100FFB8
:1051F0000609100611200250940A061120025403D9
:1052000007091120055B40040478201011210C00CF
:105210007E641BBA580BDDCED6E6F6001011210CC9
:105220000C030315F03F007E641BBA580B0F1121CD
:105230000B18DDCED6E6F600030315F03F0511226C
:1052400001031D0C1140080037090000033320FE44
:1052500008320000000000000005175610CAF005D3
:10526000171310CAF00811010400071000000711FD
:105270000203000A00000911100500040A001F3192
:1052800009111105000BB42BB42B1011120C0100E5
:1052900030FFFF2032000000006161091112050E8D
:1052A00061140000800A112006000500070AFC8036
:1052B000061120020B01DE0511200118050F112037
:1052C0000B1E301000E8004A06E97907FF0C112098
:1052D000082A020000128093014A0B11200739109E
:1052E00010001A11480E0B11200747E30100800639
:1052F0000118051120015084051120015D070811D6
:10530000400400350F93330000000000000000004F
:10531000000000000000000000000000000000008D
:105320000000F0030C0C0210321131220122312254
:10533000321102100C0CF0030000F003FC0FFE1FF2
:10534000CE1ECF3DFF3DCF3DCE1EFE1FFC0FF00316
:1053500000000000F000F801F803F007E00FF0078C
:10536000F803F801F0000000000000008000C00118
:10537000E003F007F80FF007E003C0018000000031
:1053800000008003C007C007B813FC1BFC1FFC1BF8
:10539000B813C007C0078003000000008003C007E7
:1053A000E017F01BFC1FF01BE017C0078003000094
:1053B00000000000000000000000000000000000ED
:1053C00000000000000000000000000000000000DD
:1053D00000000000000000000000000000000000CD
:1053E00000000000000000000000000000000000BD
:1053F00000000000000000000000000000000000AD
:10540000000000000000000000000000000000009C
:1054100000008003C007600C20082008600CC8074B
:10542000A8031800780000000000000000007000D1
:10543000F8088C09043F043F8C09F808700000004C
:10544000000000000000000000000000000000005C
:10545000000000000000000000000006000F000F28
:10546000FF0733006630CC789879F03F00000000E9
:1054700000008000C809F0073006180C1E3C180C0C
:105480003006F007C8098000000000000000FC1F83
:10549000F80FF007E003C0018000000000000000EA
:1054A0000000000000008000C001E003F007F80FDA
:1054B000FC1F0000000000000000000000001004BD
:1054C000180C1C1CFE3F1C1C180C100400000000D3
:1054D000000000000000FE37FE3700000000FE372D
:1054E000FE37000000000000000038007C00C6000D
:1054F0008200FE3FFE3F0200FE3FFE3F0200000032
:1055000000000000DC08FE192211221122112211D4
:10551000E61FC40E0000000000000000000000387C
:1055200000380038003800380038003800380000F3
:1055300000000000000008440C4C0E5CFF7F0E5C75
:105540000C4C0844000000000000000000001000A7
:1055500018001C00FE3F1C00180010000000000096
:105560000000000000000004000C001CFE3F001CB6
:10557000000C00040000000000000000800080001B
:10558000800080008000F007E003C0018000000080
:10559000000000008000C001E003F00780008000F0
:1055A00080008000800000000000003F00200020FC
:1055B000002000200020002000200020002000000B
:1055C00000008000C001E003F00780008000800040
:1055D000F007E003C001800000000004000600079F
:1055E0008007C007E007C007800700070006000427
:1055F000000020006000E000E001E003E007E003BD
:10560000E001E00060002000000000000000000059
:10561000000000000000000000000000000000008A
:1056200000000000000000007C00FF33FF337C001E
:1056300000000000000000000000000000003C002E
:105640003C00000000003C003C00000000000000A6
:1056500000000002101E901FF0037E021E1E901F0D
:10566000F0037E021E001000000000007804FC0C15
:10567000CC0CFF3FFF3FCC0CCC0F88070000000094
:10568000000000303838381C380E00078003C00195
:10569000E038703838381C0000000000001FB83FA8
:1056A000FC31C621E2373E1E1C1C003600220000E1
:1056B000000000000000000027003F001F00000065
:1056C0000000000000000000000000000000F003E7
:1056D000FC0FFE1F07380120012000000000000021
:1056E000000000000000012001200738FE1FFC0F11
:1056F000F00300000000000000000000980CB80E4D
:10570000E003F80FF80FE003B80E980C000000005B
:1057100000000000800180018001F00FF00F800187
:105720008001800100000000000000000000000077
:1057300000B800F800780000000000000000000041
:105740000000000080018001800180018001800153
:105750008001800100000000000000000000000047
:105760000038003800380000000000000000000091
:1057700000000018001C000E00078003C001E000BC
:10578000700038001C000E000000F807FE1F061E07
:1057900003338331C330633033301E18FE1FF807E4
:1057A0000000000000000C300C300E30FF3FFF3FC7
:1057B000003000300030000000001C301E38073C74
:1057C000033E03378333C331E33077303E301C3040
:1057D00000000C0C0E1C0738C330C330C330C3307C
:1057E000C330E7397E1F3C0E0000C003E0037003A6
:1057F00038031C030E030703FF3FFF3F00030003B2
:1058000000003F0C7F1C63386330633063306330CB
:105810006330E338C31F830F0000C00FF01FF83957
:10582000DC30CE30C730C330C330C339801F000FE7
:1058300000000300030003000330033C030FC30315
:10584000F3003F000F0003000000000FBC1FFE39F3
:10585000E730C330C330C330E730FE39BC1F000F20
:1058600000003C007E00E730C330C330C338C31CA7
:10587000C30EE707FE03FC0000000000000000006C
:10588000701C701C701C0000000000000000000074
:105890000000000000000000709C70FC707C0000A4
:1058A000000000000000000000000000C000E00157
:1058B000F00338071C0E0E1C0738033000000000F0
:1058C0000000000060066006600660066006600674
:1058D0006006600660060000000000000330073824
:1058E0000E1C1C0E3807F003E001C0000000000091
:1058F00000001C001E00070003008337C337E300CD
:1059000077003E001C0000000000F80FFE1F071883
:10591000F333FB371B36FB37FB370736FE03F80143
:1059200000000038003FE007FC061F061F06FC06CB
:10593000E007003F003800000000FF3FFF3FC3309A
:10594000C330C330C330E730FE39BC1F000F000046
:105950000000F003FC0F0E1C073803300330033047
:1059600007380E1C0C0C00000000FF3FFF3F033007
:1059700003300330033007380E1CFC0FF003000027
:105980000000FF3FFF3FC330C330C330C330C330DC
:10599000C3300330033000000000FF3FFF3FC3006F
:1059A000C300C300C300C300C30003000300000022
:1059B0000000F003FC0F0E1C07380330C330C33067
:1059C000C330C73FC63F00000000FF3FFF3FC0009D
:1059D000C000C000C000C000C000FF3FFF3F00008B
:1059E00000000000000003300330FF3FFF3F0330A2
:1059F00003300000000000000000000E001E003810
:105A000000300030003000300038FF1FFF0700007A
:105A10000000FF3FFF3FC000E001F00338071C0E0D
:105A20000E1C0738033000000000FF3FFF3F00302E
:105A30000030003000300030003000300030000016
:105A40000000FF3FFF3F1E007800E001E00178000A
:105A50001E00FF3FFF3F00000000FF3FFF3F0E0022
:105A60003800F000C0030007001CFF3FFF3F0000AC
:105A70000000F003FC0F0E1C07380330033007381A
:105A80000E1CFC0FF00300000000FF3FFF3F8301EE
:105A90008301830183018301C701FE007C000000B4
:105AA0000000F003FC0F0E1C073803300336073EDE
:105AB0000E1CFC3FF03300000000FF3FFF3F83015E
:105AC000830183038307830FC71DFE387C300000EA
:105AD00000003C0C7E1CE738C330C330C330C330F9
