:020000040800F2
:100000000000082061370008993600089D36000876
:10001000A1360008A5360008A93600080000000037
:10002000000000000000000000000000AD360008E5
:10003000B136000800000000B5360008B9360008E7
:10004000B1370008B1370008B1370008B1370008F0
:10005000B1370008B1370008C9360008D1360008AA
:10006000D9360008E1360008E9360008B137000843
:10007000B1370008B1370008B1370008B1370008C0
:10008000B1370008B1370008B1370008B1370008B0
:10009000B1370008B1370008B1370008F136000861
:1000A000B1370008B1370008B1370008B137000890
:1000B000B1370008B1370008B1370008B137000880
:1000C000B1370008B1370008B1370008B137000870
:1000D000B1370008B1370008B1370008B137000860
:1000E000B1370008B1370008B1370008B137000850
:1000F000B1370008B1370008B1370008B137000840
:10010000B1370008B1370008B1370008B13700082F
:10011000B1370008B1370008B1370008B13700081F
:10012000B1370008B1370008B1370008B13700080F
:10013000B1370008B1370008B1370008B1370008FF
:10014000B1370008B1370008B1370008B1370008EF
:10015000B1370008B1370008B1370008B1370008DF
:10016000B1370008B1370008B1370008B1370008CF
:10017000B1370008B1370008B1370008B1370008BF
:10018000B1370008B1370008B1370008B1370008AF
:10019000B1370008B1370008B1370008B13700089F
:1001A000B1370008B1370008B1370008B13700088F
:1001B000B1370008B1370008B1370008B13700087F
:1001C000B1370008B137000800000000B13700085F
:1001D000B1370008B1370008B1370008B13700085F
:1001E000B1370008B1370008B1370008B13700084F
:0801F000B1370008B137000827
:1001F80010B5054C237833B9044B13B10448AFF359
:1002080000800123237010BD0C00002000000000B6
:10021800FC37000808B5034B1BB103490348AFF38B
:10022800008008BD0000000010000020FC37000816
:1002380053B94AB9002908BF00281CBF4FF0FF3145
:100248004FF0FF3000F072B9ADF1080C6DE904CE43
:1002580000F006F8DDF804E0DDE9022304B0704799
:100268002DE9F047089E04468846002B4BD18A4268
:10027800154667D9B2FA82F24AB1C2F1200701FAEB
:1002880002F320FA07F7954047EA030894404FEA3B
:10029800154E230CB8FBFEF71FFA85FC0EFB1788DA
:1002A80043EA084307FB0CF1994209D9EB1807F117
:1002B800FF3080F01B81994240F21881023F2B44A5
:1002C8005B1AA4B2B3FBFEF00EFB103344EA0344FE
:1002D80000FB0CFCA44509D92C1900F1FF3380F070
:1002E8000781A44540F2048102382C4440EA0740C3
:1002F800A4EB0C0400271EB1D4400023C6E9004338
:100308003946BDE8F0878B4209D9002E00F0EB8012
:100318000027C6E9000138463946BDE8F087B3FA38
:1003280083F7002F47D18B4202D3824200F2FA8032
:10033800841A61EB030301209846002EE0D0C6E939
:100348000048DDE702B9FFDEB2FA82F2002A40F087
:100358008F80491B4FEA154E1FFA85F80127B1FB1C
:10036800FEFC230C0EFB1C1143EA014308FB0CF1B5
:10037800994207D9EB180CF1FF3002D2994200F2EA
:10038800CD808446591AA3B2B1FBFEF00EFB1014BF
:1003980043EA044408FB00F8A04507D92C1900F1EA
:1003A800FF3302D2A04500F2B6801846A4EB080439
:1003B80040EA0C409FE7C7F1200CBB4022FA0CFE34
:1003C8004EEA030E01FA07F420FA0CF521FA0CF3B1
:1003D8004FEA1E482543B3FBF8F92C0C08FB1933E8
:1003E8001FFA8EFA44EA034309FB0AF49C4202FA14
:1003F80007F200FA07F10BD91EEB030309F1FF30EE
:1004080080F087809C4240F28480A9F102097344FD
:100418001B1BADB2B3FBF8F008FB103345EA0344ED
:1004280000FB0AFAA24508D91EEB040400F1FF33C9
:100438006BD2A24569D90238744440EA0940A0FB4E
:100448000289A4EB0A044C45C2464B4654D351D00A
:10045800002E69D0B1EB0A0564EB030404FA0CFC26
:10046800FD40FC404CEA0505C6E90054002747E773
:10047800C2F1200320FA03F7954001FA02F021FAAD
:1004880003F34FEA154E3843010CB3FBFEF71FFA8E
:1004980085F80EFB173341EA034107FB08F38B424B
:1004A80004FA02F407D9691807F1FF3C2FD28B42EE
:1004B8002DD9023F2944CB1A81B2B3FBFEF00EFBC3
:1004C800103341EA034100FB08F38B4207D969184E
:1004D80000F1FF3C17D28B4215D902382944C91ABA
:1004E80040EA07473BE73746304609E70746E7E66D
:1004F8001846FBE64145ABD2B8EB020A69EB0E029F
:1005080001381346A4E76046E9E7184695E76746C9
:10051800D1E781467CE702382C4447E7ACF1020C6E
:100528002B442FE7384608E73746E9E6704700BF0F
:1005380038B50D4C4FF47A730C4905462278086893
:10054800B3FBF2F3B0FBF3F000F000FA08B90F2D9B
:1005580001D9012038BD002229464FF0FF3000F0B4
:10056800B3F96560002038BD0000002008000020B5
:1005780008B5032000F094F90020FFF7D9FF02F036
:1005880037FF002008BD00BF034A044B11681B78E1
:100598000B441360704700BF2C00002000000020AF
:1005A800014B1868704700BF2C00002038B504467E
:1005B800FFF7F6FF0546631C02D0044B1B781C446A
:1005C800FFF7EEFF401BA042FAD338BD0000002021
:1005D800002800F09180F8B5036C0446002B00F069
:1005E8008180236CDB0604D50023012084F83C308D
:1005F800F8BD236C4D4A4E491A4023684D4D42F0D0
:10060800020222644A6822F440324A604A686068FA
:1006180002434A605A68216922F48072D4F808C0FB
:10062800E7685A605868A66A40EA0120AE425860F6
:10063800586820F040705860596841EA0C015960C8
:10064800996821F4006199609A6842EA07029A6001
:1006580054D09968E06A21F0706199609A681643ED
:100668009E60996821F0405199609A6802439A60A7
:100678009968A56921F00201206A99609A6842EA9E
:1006880045029A60002842D15A6822F400625A60F2
:10069800D86A0026E56920F47000D4F830C06A1ED4
:1006A8006769D8623046DD6A45EA0255DD629D68B1
:1006B80025F400759D60996841EA4C219960996814
:1006C80021F4806199609A6842EA87229A60666498
:1006D800236C23F0030343F001032364002384F80D
:1006E8003C30F8BD436480F83C3002F0C9FE236C0E
:1006F800DB063FF579AF7CE7012070479A6822F066
:1007080070629A609A6822F040529A60B0E758681E
:10071800626A40F40060511E58605A6822F46042D0
:100728005A605A6842EA41325A60B1E7FDEEFFFF6B
:10073800002301400100000F90F83C300022F0B582
:10074800012B83B0019200F09A800D6801220368A2
:10075800092D80F83C20AFB28A6828D805EB4506F9
:100768004FF0070C1C690CFA06FC02FA06F624EA9C
:100778000C041C611A6916431E614E68062E06EBAE
:1007880086022DD8053A1F24596B944007FA02F2C5
:1007980021EA04015963596B0A435A633C4A93425C
:1007A80030D0002380F83C30184603B0F0BD07EB8A
:1007B80047064FF0070CDC681E3EDFF8D8E00CFA5D
:1007C80006FC754524EA0C04DC605BD002FA06F6E8
:1007D800DA681643DE604E68062E06EB8602D1D92B
:1007E8000C2E37D8A2F123041F26196BA64007FA4E
:1007F80004F221EA060119631C6B1443244A93424C
:100808001C63CED1122D33D0224B9D4201D0112D25
:10081800C7D1214A1F4953688D4243F400035360EE
:10082800BFD102F146721D4B02F52E321B6802F24F
:100838008332A2FB03239B0C03EB83035B0001932E
:10084800019B002BADD0019B013B0193019B002B29
:10085800F9D1A6E7A2F141011F26DC6A8E4007FA0A
:1008680001F224EA0604DC62D96A0A43DA6295E7EF
:10087800D2F8043343F48003C2F8043391E702202A
:1008880003B0F0BDDE6846EA0266DE6075E700BFC9
:100898000020014012000010002301400800002041
:1008A80007490002074BCA6800F4E06010B44FF62D
:1008B800FF0422405DF8044B13431843C860704797
:1008C80000ED00E00000FA05174BDB68C3F30223D4
:1008D80030B4C3F107051C1D042D28BF0425062CC0
:1008E80018D9033B4FF0FF349C4022EA04044FF030
:1008F800FF32002802FA05F221EA020101FA03F2A6
:1009080042EA04024FEA0212D2B206DB074B1A543B
:1009180030BC704700242346E9E700F00F00044B81
:100928001A5430BC704700BF00ED00E000E400E05E
:1009380014ED00E000F01F010123034A40098B4039
:1009480042F82030704700BF00E100E00138B0F104
:10095800807F0DD2074B0022072130B4F025064CCA
:100968005860104684F823509A60196030BC70476C
:100978000120704710E000E000ED00E0044A042880
:1009880013680CBF43F0040323F00403136070479B
:1009980010E000E0704700BF08B5FFF7FBFF08BD97
:1009A80088B1037910B503F0FF0204463BB1002378
:1009B80002210122217118462361227110BD427162
:1009C80002F080FDF3E70120704700BF4379012B57
:1009D8001DD070B4D1E900310468022640F6FE75D6
:1009E8000B430671C02105FA02F625689340914031
:1009F80025EA060501262B4300252360226822EA02
:100A08000102226006714571284670BC70470223B6
:100A1800184670472DE9F04FDFF82CC283B08E4698
:100A28000025DFF82892D1F8008003E00135102D69
:100A380000F0B6800123AB4008EA03018B42F5D1F0
:100A4800DEF8044024F01007022F40F0AC80EF08D5
:100A580005F0070A4FF00F0BDEF8102000EB8707B0
:100A68004FEA8A0A3E6A0BFA0AFB02FA0AF24FEACE
:100A7800450A26EA0B064FF0030B32430BFA0AFB32
:100A880004F003063A626FEA0B02076806FA0AF6F0
:100A980017403E4306608668C4F3001706EA020B57
:100AA800DEF80C60AF4006FA0AF646EA0B068660E6
:100AB800466826EA03031F434760C668E700DEF876
:100AC800083002EA060203FA0AF343EA0203C360A3
:100AD800ACD5D9F8446025F0030705F003030F22CD
:100AE80046F4804607F180479B00C9F8446007F543
:100AF8009C37D9F8446002FA03FA06F48046019656
:100B0800484E019AB042BA6822EA0A0220D006F595
:100B18008066B0425ED0444EB04260D0434EB04290
:100B280062D0434EB04264D0424EB0426BD0424E87
:100B3800B0426DD0414EB04260D0414EB0426CD010
:100B4800404EB0420CBF09260A2606FA03F31A43A0
:100B5800BA60E603DCF800306FEA010205F101052E
:100B680054BF13400B43A703CCF80030DCF8043023
:100B780054BF13400B43E602CCF80430DCF80830CD
:100B880054BF13400B43A402CCF80830DCF80C30F7
:100B980054BF13400B43102DCCF80C307FF44AAFF0
:100BA80003B0BDE8F08F4FEA450A0322D0F800B041
:100BB800013F04EA020602FA0AF2012F6FEA020272
:100BC80006FA0AF602EA0B0B46EA0B0606603FF63F
:100BD80074AF60E7012606FA03F31A43B8E7022662
:100BE80006FA03F31A43B3E7032606FA03F31A4394
:100BF800AEE7042606FA03F31A43A9E7072606FA1E
:100C080003F31A43A4E7052606FA03F31A439FE7FA
:100C1800062606FA03F31A439AE7082606FA03F3A8
:100C28001A4395E70000024000080240000C024009
:100C3800001002400014024000180240001C02404C
:100C48000020024000240240003C014000380240DD
:100C580002B909048161704743695940416170478D
:100C6800044A5169014200D1704708B5506102F049
:100C7800ABF808BD003C01401B4A1C4B116C41F00D
:100C8800805130B5116483B0126C1C4602F080525A
:100C98000192019A1A6842F480321A60FFF780FCC8
:100CA800054605E0FFF77CFC401BB0F57A7F17D8B6
:100CB8006368DA03F6D523680C4D43F400332360E8
:100CC800FFF76EFC044605E0FFF76AFC001BB0F571
:100CD8007A7F05D86B689B03F6D5002003B030BD3A
:100CE800032003B030BD00BF003802400070004050
:100CF8000D490E484A6808B54B6802F03F0249683A
:100D080013F48003C1F3881118BF0023A1FB00016D
:100D1800FFF78EFA044B5B68C3F3014301335B00B2
:100D2800B0FBF3F008BD00BF003802400024F40017
:100D3800002800F0348103682DE9F041DD0782B016
:100D4800044635D5AB498A6802F00C02042A00F043
:100D5800FE808A6802F00C02082A00F0F4806368BA
:100D6800B3F5803F10D0002B00F01B81B3F5A02F06
:100D7800A04B1A6800F0628122F480321A601A6867
:100D880022F480221A6004E09A4A136843F48033FC
:100D98001360FFF705FC974D064605E0FFF700FCDA
:100DA800801B642800F2EE802B689A03F6D523682E
:100DB8009F0742D41A0717D56369002B00F0B0804B
:100DC8008C4B5A6F1D4642F001025A67FFF7E8FB49
:100DD800064605E0FFF7E4FB801B022800F2D280FC
:100DE8006B6F9B07F6D523685D076BD5814B1A6C33
:100DF800D00000F1ED801A6C012542F080521A648F
:100E08001B6C03F080530193019B7B4B1A68D1053F
:100E180040F1A780A368012B39D0002B00F0DA80BD
:100E2800052B744B1A6F00F0118122F001021A672A
:100E38001A6F22F004021A672EE06E4A916811F0C8
:100E48000C0F62D0916801F00C0108295AD0E368B0
:100E5800002B00F0DF80674B1A681D4642F0010244
:100E68001A60FFF79DFB064605E0FFF799FB801B1C
:100E7800022800F287802B689807F6D52B6822692C
:100E880023F0F80343EAC2032B60236892E7594A28
:100E9800136F43F001031367FFF782FB554E80463B
:100EA80041F2883705E0FFF77BFBA0EB0800B8426A
:100EB80068D8336F9B07F6D525B14E4A136C23F0DB
:100EC80080531364A369CBB14A4A916801F00C01BD
:100ED800082921D0022B136800F0C08023F080730A
:100EE80014461360FFF75CFB054604E0FFF758FB68
:100EF800401B022846D823689B01F7D4002002B083
:100F0800BDE8F08152685602A1D43A4A12689507A2
:100F18003CD5E268012A39D0012002B0BDE8F08151
:100F2800344B5A6F1D4622F001025A67FFF738FB0F
:100F3800064604E0FFF734FB801B022822D86B6FBB
:100F48009F07F7D44FE74A6850027FF508AF294A50
:100F5800126891037FF52CAF6268002A7FF428AFEE
:100F6800DAE71A681E4642F480721A60FFF718FB27
:100F780007463368DA053FF54DAFFFF711FBC01B95
:100F88006428F6D9032002B0BDE8F0811949206928
:100F98000A6822F0F80242EAC0020A600AE7012061
:100FA8007047144B1A681D4622F480321A601A687A
:100FB80022F480221A60FFF7F3FA064604E0FFF7EE
:100FC800EFFA801B6428DDD82B689B03F7D4EEE684
:100FD80000251AE7074B41F288381A6F1E4622F09F
:100FE80001021A671A6F22F004021A67FFF7D8FA8B
:100FF800074608E00038024000700040FFF7D0FACA
:10100800C01B4045BED8336F9807F7D4002D3FF476
:1010180059AF52E72C4B1A681D4622F001021A609C
:10102800FFF7BEFA064604E0FFF7BAFA801B02286B
:10103800A8D82B689907F7D42368BBE642F4802226
:101048001A601A6842F480321A60A2E642F004027A
:101058001A671A6F42F001021A671DE723F08073BE
:1010680015461360FFF79CFA064604E0FFF798FA66
:10107800801B022886D82B689901F7D4D4E9073257
:10108800616A1343D4E90A2043EA8113216B5208A9
:101098000D4C43EA0063013A43EA017343EA024311
:1010A8006B602B6843F080732B60FFF779FA054675
:1010B80005E0FFF775FA401B02283FF663AF236887
:1010C8009A01F6D51AE700BF0038024078B14E4AB7
:1010D800136803F00F038B420BD2136823F00F033E
:1010E8000B431360136803F00F038B4201D00120F8
:1010F800704703682DE9F0419D0714D55C0704D5B6
:10110800424CA26842F4E052A2601A0704D53F4C50
:10111800A26842F46042A2603C4C8568A26822F052
:10112800F0022A43A260DF0704460D4621D5426833
:10113800364B012A1B685ED0022A61D0990728D550
:10114800324941F288388B680E4623F00303134373
:101158008B60FFF725FA074604E0FFF721FAC01B6A
:1011680040454BD8B368626803F00C03B3EB820FB9
:10117800F3D1254A136803F00F03AB420CD9136867
:1011880023F00F032B431360136803F00F03AB42E4
:1011980002D00120BDE8F08123685A0706D51B4913
:1011A800E0688A6822F4E05202438A601B0707D588
:1011B800164A2169936823F4604343EAC1039360A4
:1011C800124B9B6803F00C03082B10D0104A0F4BEE
:1011D8000020104C9B681049C3F30313E35C22FA08
:1011E80003F30B60FFF7A4F90020BDE8F081FFF7D7
:1011F8007FFD0246EBE79E03A2D4CAE70320C9E7B6
:1012080098019DD4C5E700BF003C02400038024069
:101218000024F400AC39000808000020044B9B6847
:1012280003F00C03082B01D002487047FFF760BD9C
:10123800003802400024F400014B1868704700BFD2
:1012480008000020044B054A9B680549C3F3822324
:101258000868D35CD840704700380240BC390008A1
:1012680008000020044B054A9B680549C3F3423334
:101278000868D35CD840704700380240BC39000881
:101288000800002003682DE9F04313F0010683B03D
:1012980004460BD09F4A916821F400019160466B87
:1012A80091683143B6FA86F67609916013F4002501
:1012B80010D09849E56BD1F88C20B5F5801F22F441
:1012C800401242EA0502C1F88C2000F0D481B5FA38
:1012D80085F56D09D90210D58E48216CD0F88C207F
:1012E800B1F5800F22F4400242EA0102C0F88C20D6
:1012F80000F0BF81002908BF012513F0807F18BFC7
:1013080001269A0600F16D81DA060CD5814AD2F8D9
:101318008C1021F08071C2F88C10D2F88C10A06B60
:101328000143C2F88C105F0408D57A49606ED1F881
:10133800902022F440320243C1F89020180408D5C6
:101348007449A06ED1F8902022F440220243C1F8DB
:101358009020D90308D56F49E06ED1F8902022F487
:1013680040120243C1F890209A0308D56949206FBA
:10137800D1F8902022F440020243C1F890205F0681
:1013880008D56449606CD1F8902022F0030202432A
:10139800C1F89020180608D55E49A06CD1F89020B5
:1013A80022F00C020243C1F89020D90508D559490A
:1013B800E06CD1F8902022F030020243C1F890206E
:1013C8009A0508D55349206DD1F8902022F0C00223
:1013D8000243C1F890205F0508D54E49606DD1F8E9
:1013E800902022F440720243C1F89020180508D5D5
:1013F8004849A06DD1F8902022F440620243C1F818
:101408009020D90408D54349E06DD1F8902022F402
:1014180040520243C1F890209A0408D53D49206EF5
:10142800D1F8902022F440420243C1F890205F0294
:1014380008D53849A06FD1F8902022F08062024385
:10144800C1F8902098020CD53249E06FD1F890206D
:10145800B0F1006F22F0006208BF01250243C1F815
:10146800902013F0080F18BF0125590308D5294902
:10147800606FD1F8902022F040720243C1F89020AA
:101488001A0209D52349D4F88000D1F8902022F017
:1014980080520243C1F890205F0109D51D49D4F854
:1014A8008400D1F8902022F000520243C1F8902025
:1014B800180109D51749D4F88800D1F88C2022F0F2
:1014C80000720243C1F88C20D9000BD4B3F1007F1D
:1014D80016D0F20714D4012D00F0D080002003B0FC
:1014E800BDE8F0830B49B3F1007FD4F88C00D1F844
:1014F8008C2022F0806242EA0002C1F88C20E8D1F8
:10150800044B1A681E4622F080621A60FFF748F8FA
:10151800074606E000380240FFF742F8C01B64287F
:101528005BD833681B01F7D42368DF0712D5626BD9
:1015380082B9D6F88420D6F8847002F44032606804
:1015480007F07067A1683A4342EA801242EA0172E2
:10155800C6F884201E0300F10F81D80204D5226C3E
:10156800B2F5800F00F00D81D90111D5A44E606845
:10157800D6F88420D6F8847002F07062216907F0EA
:10158800E0473A4342EA801242EA0142C6F8842020
:101598009A010DD5236962681B04D4E9021043EA55
:1015A8008213974A43EA006343EA0173C2F884301E
:1015B800934B1A681E4642F080621A60FEF7F0FFED
:1015C800074604E0FEF7ECFFC01B642805D8336823
:1015D8001B01F7D5012D81D150E0032003B0BDE8F0
:1015E800F083874A874B116C1F4641F08051116484
:1015F800126C02F080520192019A1A6842F48072C9
:101608001A60FEF7CDFF804605E0FEF7C9FFA0EBA4
:1016180008006428E1D83B68DB05F6D5784A236BD7
:10162800116F03F4407011F4407111D088420FD04B
:10163800116F176F21F4407147F480371767176FE0
:1016480027F4803717671167116FCF0700F1C38040
:10165800B0F5407F00F0B18069498A6822F4F81239
:101668008A60674AC3F30B03116F0B431367236840
:101678004AE6012641E6002501262BE6604B1A685A
:101688001D4622F080521A60FEF78AFF064604E0E3
:10169800FEF786FF801B64289FD82B689F00F7D42D
:1016A80023681D0300F19280D8021DD5226CDAB997
:1016B80053496569D1F88820D1F8886002F440322E
:1016C800A06906F0E046324342EA851242EA006227
:1016D800C1F88820D1F88C20A06A22F4F852013889
:1016E80042EA0022C1F88C20990215D5E26FB2F1C6
:1016F800006F11D142496569D1F88820D1F8886016
:1017080002F07062206A06F0E046324342EA85122F
:1017180042EA0042C1F888201A0719D5384A656993
:10172800D2F88810D2F8883001F07061E06903F4CB
:1017380040330B4343EA851343EA0073C2F8883009
:10174800D2F88C30E16A23F440330B43C2F88C3072
:101758002B4B1A681C4642F080521A60FEF720FF95
:10176800054605E0FEF71CFF401B64283FF635AF31
:1017780023689B00F6D5B1E6E26BB2F5801F7FF4D3
:10178800ECAE1F4E6068D6F88420D6F8847002F458
:101798004032E16807F0E0473A4342EA801242EA01
:1017A8000162C6F88420D6F88C10626A21F01F0105
:1017B800013A0A43C6F88C20D6E6114812498268D5
:1017C800194022F4F8120A4382604AE7E26B002AC1
:1017D8003FF46EAF68E7174641F28838FEF7E0FE3F
:1017E800814606E0FEF7DCFEA0EB090040453FF627
:1017F800F4AE3B6F9907F5D5236B03F4407027E7E8
:101808000038024000700040FFFCFF0F0346D0E99B
:1018180000205168B0F5827F21F0E001516014D0BA
:10182800996AB1F5005F08D111684DF6FF70014063
:101838001160116841F40051116001210022032058
:1018480083F85D1083F85C2070479968B1F5004F04
:1018580002D0B1F5806FE3D1116821F04001116029
:10186800DEE700BF70B505460C4616462B6801E05A
:10187800621C04D1986810F08000F9D170BD24B1C1
:10188800FEF78EFE801B8442F0D82846BDE87040E3
:10189800FFF7BCBF2DE9F041074682B00C4616465B
:1018A80098463D680AE0B4F5C06F05D1297BC9B2F6
:1018B8008DF807109DF80720731C05D1A8682040F3
:1018C800F1D102B0BDE8F0812EB1FEF769FEA0EBC0
:1018D80008008642E5D8384602B0BDE8F041FFF777
:1018E80095BF00BFF8B5436804460E461746B3F5E2
:1018F800827F23D03A4631462046FFF7B3FF05469C
:10190800A8B96368B3F5827F01D02846F8BDA368FB
:10191800B3F5004F02D0B3F5806FF6D13B4632469F
:101928004FF4C0612046FFF7B5FF0028EDD0236EC5
:10193800032543F0200328462366F8BD8368B3F5E2
:10194800004F02D0B3F5806FD4D12268136823F01A
:1019580040031360CEE700BF70B50D461646134628
:101968004FF4C0512A460446FFF794FF70B9324637
:1019780029462046FFF776FF40B933462A464FF4FA
:10198800C0612046FFF786FF00B970BD236E0320B3
:1019980043F02003236670BD2DE9F8430446012077
:1019A8000F46164684F85C009946089DFEF7F8FD38
:1019B80094F85D1080466268C9B2012910D0B2F56A
:1019C800827F08D002200122002384F85D2084F859
:1019D8005C30BDE8F883A368002BF3D10429F1D16A
:1019E800B9F1000F18BF002E00D00FB90120EAE7A7
:1019F80094F85D30042B02D0052384F85D30E36849
:101A080000212664B3F5E06F2166A4F84490A4F899
:101A18004690A763A4F83C90A4F83E90C4E913113B
:101A280021684DD94B6823F480534B600B685806E6
:101A380003D40B6843F040030B60002A00F0B78022
:101A4800E38F9BB2012B00F0B2804FF00109E38FC6
:101A58009BB22BB9B4F846309BB2002B00F08780BC
:101A6800B9F1000F0FD0E38F9BB263B123689A6876
:101A7800910708D537F8022B4FF00009DA60E38F99
:101A8800013B9BB2E387B4F846309BB273B123683D
:101A98009A68D2070AD5DB684FF0010926F8023B9D
:101AA800B4F84630013B9BB2A4F84630681CCED04F
:101AB800FEF776FDA0EB08008542C8D8032082E730
:101AC800B4F84630012B4B6840F28B8023F48053E6
:101AD8004B600B685B0640F18B80002A6FD0E38F68
:101AE8009BB2012B6BD04FF00109E38F9BB223B956
:101AF800B4F846309BB2002B39D0B9F1000F12D0A0
:101B0800E38F9BB27BB123689A6891070BD5E28F6C
:101B1800012A5CD937F8022B4FF00009DA60E38F0D
:101B2800023B9BB2E387B4F846309BB2B3B123685B
:101B38009A68D20712D5B4F84620012A24D9DA685F
:101B480026F8022BB4F84620023A92B2A4F84620AE
:101B5800B4F84620012A23D94FF001096B1CC4D0E0
:101B6800FEF71EFDA0EB08008542BED8A6E7424658
:101B780029462046FFF7F0FE08B120232366206E91
:101B8800003018BF01201EE71B7B4FF0010933709E
:101B98004E44B4F84630013B9BB2A4F84630DDE72A
:101BA8005A684FF0010942F480525A60D6E737F874
:101BB800023BCB60E38F013B9BB2E38745E717F815
:101BC800013B0B73E38F013B9BB2E3878BE73A78CA
:101BD8004FF0000901371A73E38F013B9BB2E3878B
:101BE800A1E743F480534B600B6858063FF575AF87
:101BF8000B6843F040030B606FE700BF00285DD01F
:101C0800002290F85D302DE9F0418262044603F02D
:101C1800FF02002B4DD0E76802232268B7F5E06F7A
:101C280084F85D3027F40061136894BF4FF4805541
:101C3800002523F04003B1F5E06F136035D1A66AA3
:101C4800236B2BB9B7F5E06F8CBF02230123236305
:101C5800A1684FF00008636820690B43616903437A
:101C68000B43D4E906010B43616A4FEA104C00F4B8
:101C7800007E0F43216A0CF0040C40460B43616B55
:101C88000F4343EA0E034FF0010E47EA0C073343B4
:101C98003D4313605560D36923F40063D361C4F8EE
:101CA800608084F85DE0BDE8F08100231E46A362F1
:101CB800C6E780F85C2001F027FCACE701207047FC
:101CC8002DE9F0411E4690F85C3082B0012B69D0B6
:101CD800012304460D46904680F85C30FEF760FC10
:101CE80094F85D300746012B09D002200122002319
:101CF80084F85D2084F85C3002B0BDE8F081002DE6
:101D080054D0B8FA88F35B09002B4FD1A16803229D
:101D1800A563B1F5004F84F85D20A4F83C802366E4
:101D28002364A4F83E80A4F844302268A4F846301E
:101D3800C4E9133303D1136843F480431360136871
:101D48005B0603D4136843F040031360E368B3F5FC
:101D5800E06F34D9E08F80B270B123689A68900739
:101D680051D535F8022BDA60E38F013B9BB2E3874C
:101D7800E08F80B20028F0D13A4631462046FFF77E
:101D8800EBFD08B120232366A36833B922680193C9
:101D9800D368019393680193019B206E003018BFAC
:101DA8000120A3E7022002B0BDE8F08101209DE7F1
:101DB8002A7801351A73E38F013B9BB2E387E08FE2
:101DC80080B20028D8D023689A68920711D5E28F8C
:101DD800012AEDD935F8022BDA60E38F023B9BB27A
:101DE800E387E08F80B20028C6D023689A689207FC
:101DF800EDD436B1731CE2D0FEF7D2FBC01BB04263
:101E0800DDD3032072E7002EFBD0711CA2D0FEF7B1
:101E1800C7FBC01BB0429DD3F3E700BF2DE9F041DB
:101E280047681E4682B00446B7F5827F90460D4645
:101E380090F85C3015D0012B23D0012384F85C3056
:101E4800FEF7AEFB94F85D300746012B1DD002204B
:101E58000122002384F85D2084F85C3002B0BDE8DC
:101E6800F0818268002AE6D10422012B80F85D20E7
:101E780007D043460A460096FFF78EFD02B0BDE83C
:101E8800F081022002B0BDE8F081002D7CD0B8FAC4
:101E980088F35B09002B77D10422E168A36384F8F7
:101EA8005D20B1F5E06F22682366A387A4F8468019
:101EB800E3872564A4F84480C4E9133353688CBFCE
:101EC80023F4805343F480535360A368B3F5004F61
:101ED80003D1136823F48043136013685B0603D4AB
:101EE800136843F040031360B1F5E06F2AD8B4F8E3
:101EF80046309BB28BB123689A68D0073AD51B7BD2
:101F080005F8013BB4F84630013B9BB2A4F84630D3
:101F1800B4F846309BB2002BEDD13A463146204604
:101F2800FFF7E0FC08B120232366206E003018BFBD
:101F380001208DE736B3731C04D0FEF731FBC01BBC
:101F4800B0421FD2B4F846309BB2002BE5D02368CC
:101F58009A68D207EED5DB6825F8023BB4F846301C
:101F6800013B9BB2A4F84630B4F846309BB2002B34
:101F7800EDD1D2E736B1711CB9D0FEF711FBC01B09
:101F8800B042B4D3032063E7012061E7704700BF84
:101F980090F83C30012B66D003685F4AF0B4022405
:101FA800012580F83D409C6880F83C5022400C6830
:101FB800402C9A6000F0978019D9702C00F081802D
:101FC8002BD9B4F5805F77D0B4F5005F1CD1CC680D
:101FD800D1E9015299682A4321F47F4142EA042257
:101FE8000A439A609A6842F480429A600CE0102C86
:101FF80043D02FD9202C39D0302C05D19A6822F023
:10200800700242F037029A600023012280F83C30C7
:1020180080F83D201846F0BC7047502C34D0602C16
:10202800F2D11C6A4D6824F01004CE681C629969CC
:102038001A6A21F4704122F0A00241EA063142EA0C
:10204800051299611A629A6822F0700242F06702DA
:102058009A60D9E7002CD7D19A6822F0700242F032
:1020680007029A60D0E70222104670479A6822F069
:10207800700242F027029A60C6E79A6822F070025E
:1020880042F017029A60BFE71E6A1D6A4C6826F084
:102098000A0625F00105CF6834431D629A6922F0CB
:1020A800F00242EA07129A611C629A6822F07002F2
:1020B80042F057029A60A7E79968184A0A409A605E
:1020C800A2E7D1E90142CD6822439C68144942EA5B
:1020D800052224F47F4422439A609A68114041F013
:1020E8007701996090E71E6A1D6A4C6826F00A0617
:1020F80025F00105CF6834431D629A6922F0F00289
:1021080042EA07129A611C629A6822F0700242F051
:1021180047029A6078E700BF8800FEFFF8FFFEFFDD
:1021280088FFFEFFF0B4324EB0F1804F314FA0EB84
:1021380006060368A0EB0707B6FA86F6B7FA87F72C
:102148004FEA56164FEA571725D026BB2A4A90421F
:102158003ED002F5806290423AD002F58062904209
:102168003BD0002F39D1254A904218D002F5806221
:10217800904214D002F58062904210D0A2F59832B5
:1021880090420CD002F58062904208D002F580623D
:10219800904208D103E023F070034D682B4323F4E9
:1021A8004073CD682B434A6923F080038C6813433E
:1021B8000A680360C462826226B91FB90123F0BCB1
:1021C800436170470B6903630123F0BC43617047A7
:1021D80023F070034A681343E1E7094A23F07003C8
:1021E8004C68904243EA0403D9D0002FD7D1BAE70C
:1021F800000001400004014000040040004001408C
:10220800000C0040B8B190F83D3010B503F0FF0263
:1022180004465BB102232068211D84F83D30FFF796
:1022280081FF0123002084F83D3010BD80F83C2058
:1022380001F0D6F9EEE70120704700BFB8B190F879
:102248003D3010B503F0FF0204465BB1022320685D
:10225800211D84F83D30FFF765FF0123002084F835
:102268003D3010BD80F83C20FFF790FEEEE70120DE
:10227800704700BF00284BD02DE9F84390F83D3057
:1022880005460C4603F0FF02002B3CD029460220ED
:10229800204A51F8043B85F83D009E6818463240B4
:1022A80001269A60FFF73EFF2369A769A0681A0113
:1022B800296840EA0728E769D1F808C0164842EAC1
:1022C80007228B6927681840E368D4F820904CEA05
:1022D80007071A430B6A48EA0008606923F0AA0E48
:1022E80063680E4C42EA093243EA00138F6008EA39
:1022F8000404002043EA0E0322438A610B6285F836
:102308003D60BDE8F88380F83C2001F047F9BDE75F
:1023180001207047F8FFFEFFFCFCFFFF0303FFFFEF
:10232800F0B4046A8D6824F001040E68124A04624D
:10233800036A446823F0020387692B430F4D3A4030
:10234800A84242EA06020AD005F58065A84206D0EE
:1023580049684460826141630362F0BC704723F0BE
:102368000803CF684D6924F440748E693B433543B4
:1023780023F004032C43EBE78CFFFEFF0000014031
:10238800F0B4046A8D6824F010040E68144A0462DC
:10239800036A446823F02003876943EA0513114D53
:1023A8003A40A84242EA06220AD005F58065A842CA
:1023B80006D049684460826181630362F0BC70475B
:1023C80023F08003CF684D6924F440648E6943EAA2
:1023D8000713354323F0400344EA8504E9E700BFC7
:1023E800FF8CFFFE00000140F0B4046A8D6824F4FD
:1023F80080740E68144A0462036A446823F4007304
:10240800C76943EA0523114D3A40A84242EA060249
:102418000AD005F58065A84206D049684460C261C3
:10242800C1630362F0BC704723F40063CF684D6951
:1024380024F440548E6943EA0723354323F4806328
:1024480044EA0514E9E700BF8CFFFEFF00000140E5
:10245800F0B4046A8D6824F480540E680F4A04624C
:10246800036A446823F40053C76943EA05330C4DF3
:102478003A40A84242EA06220AD005F58065A842F9
:1024880006D049684460C26101640362F0BC7047C9
:1024980024F480444D6944EA8514F2E7FF8CFFFE7A
:1024A80000000140F0B4046A8D6824F480340E689A
:1024B8000F4A0462036A446823F40033476D43EA11
:1024C80005430C4D3A40A84242EA06020AD005F5F7
:1024D8008065A84206D04968446042658165036208
:1024E800F0BC704724F480344D6944EA0524F2E7CF
:1024F8008FFFFEFF00000140F0B4046A8D6824F4E9
:1025080080140E680F4A0462036A446823F40013B7
:10251800476D43EA05530C4D3A40A84242EA062269
:102528000AD005F58065A84206D04968446042652E
:10253800C1650362F0BC704724F480244D6944EA05
:102548008524F2E7FF8FFFFE0000014090F83C3041
:10255800012B70B41FD00268114D5368AA429468C9
:1025680014D005F58065AA4210D00E680025896848
:1025780024F0800423F07003214333432E46536034
:10258800916080F83C50304670BC704723F470036B
:102598004D682B43E9E70226304670BC704700BF00
:1025A8000000014038B590F83C30012B00F08D80D8
:1025B8000D4602230121044680F83D3080F83C1086
:1025C800142A1DD8DFE802F00B1C1C1C371C1C1C2D
:1025D8004A1C1C1C5C1C1C1C6F1C1C1C240029464F
:1025E8000068FFF79DFE23682869996941F0080192
:1025F8009961996921F0040199619A6902439A6184
:1026080000230122184684F83D2084F83C3038BD68
:1026180029460068FFF770FF23682869596D41F45F
:1026280000615965596D21F4806159655A6D42EA16
:1026380000225A65E4E729460068FFF7A1FE2368EF
:102648002869996941F400619961996921F4806167
:1026580099619A6942EA00229A61D1E7294600689D
:10266800FFF7C2FE23682869D96941F00801D961DA
:10267800D96921F00401D961DA690243DA61BFE757
:1026880029460068FFF7E4FE23682869D96941F400
:102698000061D961D96921F48061D961DA6942EAB6
:1026A8000022DA61ACE729460068FFF7FBFE2368E1
:1026B8002869596D41F008015965596D21F00401E7
:1026C80059655A6D02435A659AE7022038BD00BF22
:1026D8002DE9F843089D80460F4616469946D8F8D6
:1026E800004001E06B1C0AD1E06937EA00030CBF27
:1026F80001200020B042F5D00020BDE8F8833DB1AC
:10270800FDF74EFFA0EB0900A842E8D3D8F8004037
:10271800236820220021032023F4D0732360A368B8
:1027280023F00103A36088F8692088F8681088F806
:102738006A20E2E7F8B504468368A249E669E768D3
:10274800A14DD0E904201A43236802431868AB421C
:1027580001EA000142EA060242EA0102A1691A609E
:102768005868226A20F4405042EA010240EA070011
:102778005860996821F4306142EA01029A6043D0B6
:10278800924A93421DD0924A934200F09080914A17
:10279800934200F0B880904A934247D08F4A9342C0
:1027A80000F09F808E4A934200F0E9808D4A934260
:1027B80000F0F680B6F5004F00F0D28001221046F6
:1027C800F8BD8949894AD1F8901001F00C010A44F2
:1027D8001279B6F5004F1FD0082AEFD801A151F899
:1027E80022F000BFAB280008612800085329000820
:1027F800C527000803290008C5270008C5270008C1
:10280800C5270008D9280008774A7849D2F89020C7
:1028180002F003028A5CDCE7082A00F2A180DFE804
:1028280002F04328809F6F9F9F9F8E0002F5F4322D
:10283800D2F8902002F44072B2F5807F5AD02BD99A
:10284800B2F5007F6AD0B2F5407F3ED0B2E7002AE9
:10285800B0D1B6F5004F0CD0FEF704FD0022D4E944
:10286800001300EB5300B0FBF3F080B2C8601046D1
:10287800F8BDFEF7F7FC0022D4E90035690801EB42
:102888004000B0FBF5F0C0F3420120F00F00014317
:1028980089B2D9601046F8BD002A8BD1B6F5004F31
:1028A80002D0FEF7CFFCD9E7FEF7CCFCE3E702F550
:1028B800F832D2F8902002F03002102A1AD0EBD960
:1028C800202A2BD0302A7FF475AFB6F5004F36D0CA
:1028D80060680022410801F50041B1FBF0F189B2BE
:1028E800D7E702F59232D2F8902002F44062B2F5AE
:1028F800806F38D1B6F5004F02D0FEF78FFCADE7F8
:10290800FEF78CFCB7E702F5F632D2F8902002F019
:10291800C002402AEED0BFD9802A2DD1B6F5004F8B
:1029280013D161680022324800EB5100B0FBF1F08E
:10293800C0F3420120F00F00014389B2A9E76168A2
:102948000022480800F58030F0E760680022294935
:1029580001EB5001B1FBF0F189B21046D960F8BD26
:102968000021012295E77FF672AFB2F5006FD5D04E
:10297800B2F5406FA9D01DE7C02AA6D01AE702F524
:10298800E032D2F8902002F44052B2F5805FB1D024
:1029980082D9B2F5005FC1D0B2F5405F95D009E7A2
:1029A80002F5DE32D2F8902002F44042B2F5804FB0
:1029B800A0D07FF671AFB2F5004FAFD0B2F5404F5F
:1029C80083D0F7E6F369FFEF0010014000440040B0
:1029D80000480040004C00400050004000140140F6
:1029E80000780040007C004000380240143800089D
:1029F8000048E8010024F400436ADA0710B406D559
:102A08000168846A4A6822F4003222434A609C07BB
:102A180006D50168C46A4A6822F4803222434A60B3
:102A2800590706D50168046B4A6822F480222243BC
:102A38004A601A0706D50168446B4A6822F40042C6
:102A480022434A60DC0606D50168846B8A6822F452
:102A5800805222438A60990606D50168C46B8A6849
:102A680022F4005222438A605A060AD50168046C8F
:102A78004A68B4F5801F22F4801242EA04024A60D0
:102A88000BD01B0606D50268816C536823F400231B
:102A98000B4353605DF8044B70474A68446C22F45A
:102AA800C00222434A60ECE770B50025044682B0B4
:102AB800C566FDF775FD2268126813070AD400235E
:102AC8002022184684F8692084F8683084F86A203F
:102AD80002B070BD6FF07E4603462A464FF40011DF
:102AE80000962046FFF7F4FD0028E8D0032002B046
:102AF80070BD00BF90B390F8693010B503F0FF02C5
:102B0800044603B322682423204684F869301368F6
:102B180023F001031360FFF70DFE012818D0636A44
:102B2800C3B9236820465A6822F490425A609A68CA
:102B380022F02A029A601A6842F00102BDE81040A9
:102B48001A60FFF7B1BF80F8682000F079FDD9E777
:102B5800012010BD2046FFF74FFFE2E70120704734
:102B680070B582B000224423114D02AE114C8DF88D
:102B7800002006F8043D002210212846FEF768F8D8
:102B88006423012231462046FFF79AF86423012284
:102B980069462046FFF742F9012210212846FEF730
:102BA80057F89DF80030FF2BE5D102B070BD00BF8B
:102BB800000802404C02002070B50B4C05460E463A
:102BC800FFF7CEFF204600221021FEF741F83246DB
:102BD800294664230548FFF773F82046012210218F
:102BE800BDE87040FEF734B8000802404C020020EF
:102BF80000B5002385B00168064A01910092CDE92D
:102C08000233FFF7ADFF08216846FFF7D5FF05B08F
:102C18005DF804FB11400400F0B5002383B04422A2
:102C280007460E46194D1A4C8DF800308DF80420D1
:102C3800FF2B4FF000024FF01001284611D0FEF78D
:102C480007F86423012201A92046FFF739F8012378
:102C5800694620461A46FFF7E1F89DF80030FF2B39
:102C68000CD13A46314664230948FFF7D7F80122C8
:102C780010210648FDF7ECFF03B0F0BD012210213A
:102C88002846FDF7E5FF9DF80030D1E7000802402F
:102C98004C0200202DE9F04182B0104D7723104EF0
:102CA80002AC80460F4628460022102104F8043D55
:102CB800FDF7CEFF2146304664230122FFF700F8D6
:102CC8004246394664233046FFF7A8F828460122D1
:102CD8001021FDF7BDFF02B0BDE8F08100080240F9
:102CE8004C02002010B50122084C11462046FDF781
:102CF800AFFF0520FDF75AFC204600220121FDF711
:102D0800A7FF0520BDE81040FDF750BC00040240B5
:102D180010B582B03323002202ACADF8042004F8C9
:102D2800053DFFF71DFF20460121FFF745FF01A9DB
:102D38000220FFF771FF9DF8043003F00D03052B07
:102D480007D04FF49A7301A80221ADF80430FFF7B9
:102D580033FF02B010BD00BFF0B583B0002540F2CC
:102D68001533074602AC0E468DF80250022124F8AE
:102D7800083D2046FFF720FF082332222046194647
:102D88008DF80170ADF802508DF804608DF80530AB
:102D98008DF806308DF807308DF80020FFF70CFF0E
:102DA80003B0F0BD10B582B00121044602AB03F8B0
:102DB800011D1846FFF700FFFFF7D2FE2146082045
:102DC800FFF72AFF02B010BD202800D07047194B2A
:102DD8001978C9B20129F9D130B583B0164D02ACC2
:102DE80004F8040D2046FFF7E7FE29460820FFF700
:102DF80013FFAB78DB0608D42023204601218DF889
:102E08000430FFF7D9FE03B030BD4FF400410B4842
:102E1800FDF722FF0A496120FFF73CFF002240F23C
:102E28001533022120468DF80620ADF80430FFF74F
:102E3800C3FEE1E7280000207801002000000240DE
:102E4800140100202E4A4FF4A0202E4B116C41F0A3
:102E5800805170B51164B8B0126C022401264FF489
:102E6800800502F0805208210092009A1A6842F404
:102E780040421A60D8221B68089007A803F4404310
:102E880007960D940193019B1092CDE91144CDE969
:102E98000E51FDF74DFF00B1FEE7FDF7EDFE0346CD
:102EA80000B1FEE74FF480520F264FF4A0550721DA
:102EB80002A8049303940296CDE90552FEF706F999
:102EC800034600B1FEE7402214A825931492FEF7AA
:102ED800D9F9044600B1FEE7FEF7AEF94FF47A736C
:102EE800B0FBF3F0FDF732FD0420FDF747FD224665
:102EF80021464FF0FF30FDF7E7FC38B070BD00BF4A
:102F0800003802400070004080B596B00126FDF7F9
:102F18002FFBDFF82093FFF795FFB74B00220C211A
:102F28001D6B4FF017081446B44845F010051D6393
:102F380003251F6B07F010070097009F1F6B47F0D2
:102F480080071F631F6B07F080070197019F1F6BA6
:102F580047F004071F631F6B07F004070297029FDF
:102F68001F6B37431F631F6B37400397039F1F6B0C
:102F780047F002071F631F6B07F002070497049FBF
:102F88001F6B47F008071F6320271B6B03F008031C
:102F98000593059BFDF75CFE224641F607419848DC
:102FA800FDF756FE324610219548FDF751FE324690
:102FB80041F201019348FDF74BFE224640F20641DB
:102FC8009048FDF745FE32464FF680718B48FDF775
:102FD8003FFE32464FF480718B48FDF739FE22469A
:102FE8004FF400418948FDF733FE224629468648BA
:102FF800FDF72EFE0C230DA98048CDE90D36CDE94D
:103008000F44FDF707FD43230DA97C480F94CDE934
:103018000D39FDF7FFFC0DA979481095CDF83480DE
:10302800CDE90E64FDF7F6FC0DA975480D97CDE9BD
:103038000E94FDF7EFFC41F207430DA97148109576
:103048000D93CDE90E64FDF7E5FC4FF680730DA9ED
:103058006A4810950D93CDE90E64FDF7DBFC4FF43B
:1030680080730DA9684810950D93CDE90E64FDF79E
:10307800D1FC4FF427730DA963480D93CDE90E9445
:10308800FDF7C8FC4FF400430DA960480D93109458
:10309800CDE90E64FDF7BEFC4FF4E0530DA9584886
:1030A8000D931094CDE90E64FDF7B4FC0DA95648B4
:1030B800CDE90D56CDE90F44FDF7ACFC224621467B
:1030C8000620FDF701FC0620FDF734FC22462146C8
:1030D8000720FDF7F9FB0720FDF72CFC22462146C7
:1030E8000820FDF7F1FB0820FDF724FC22462146C5
:1030F8000920FDF7E9FB0920FDF71CFC22462146C3
:103108000A20FDF7E1FB0A20FDF714FC22462146C0
:1031180040463F4DFDF7D8FB4046FDF70BFC3D49C7
:103128004FF480323C4B2846AC602C61AC612C6279
:10313800EC62EC60EE612C636E61AB62C5E9001273
:10314800FDF746FA00B1FEE703460DA928460F939E
:10315800CDE90D36FDF7F0FA00B1FEE72F4C304B04
:1031680020462360FDF71CFC034600B1FEE720461D
:103178001A460DA9CDE90D33FDF728FC00B1FEE78D
:10318800284B4FF4007107224FF48275264E4FF4F6
:10319800E06498609862DF611E605D60DC60996140
:1031A800DA62C3E90400C3E90800C3E90C00184661
:1031B800FEF724FD034600B1FEE71C4C1C4A2046DE
:1031C800A3612260C4E90133C4E90333FFF71AF8A5
:1031D80000B1FEE716AD4FF48053204645F8343D64
:1031E8002946FEF7D5FE00B1FEE72046FFF726F890
:1031F800034608B3FEE700BF003802400010024053
:103208000008024000040240000C02400000024096
:1032180080010020002001400100000F380200203A
:103228000074004030000020003800409400002066
:10323800000800400000211006A9204606930893C4
:10324800FFF784F9034600B1FEE7602620461A46D8
:103258000DA911930D96CDE90E33FFF7A3F900B12F
:10326800FEE704220DA95748FFF79CF900B1FEE7D5
:1032780008220DA95348FFF795F9044600B1FEE767
:10328800504800F0C3F9504B504E4FF4E1310C2236
:1032980018461C615A61C3E90244C3E90644C3E9FC
:1032A8000844C3E90061FFF725FC00B1FEE7484B7D
:1032B8004FF48277474A4FF4E0664FF400742821B0
:1032C8001A600722986098625F60DE60DA62C3E97C
:1032D8000400C3E90800C3E90C001846C3E9064125
:1032E800FEF78CFC00B1FEE73B4C01233B4A0DA9DD
:1032F8000E901290A0610D930F9313932260CDE965
:103308001000CDE91400C4E90100C4E90300204617
:10331800FEF7B0FF034600B1FEE7204629460993B1
:103328000B93FFF713F9044600B1FEE74FF4FA7068
:10333800FDF73CF9FFF7D6FC0DA8FFF733FD9DF824
:103348003530442B09D0264C20464FF40041FDF778
:1033580083FC6420FDF72AF9F6E79DF83630632BE5
:10336800F1D1204F3E190DADF36830687168B2682D
:10337800367C0FC52E70FFF7F3FB9DF834100DF166
:103388003500FFF719FC9DF8343001331C44A4B212
:10339800B4F5C17FE6D9202301210DA88DF834307A
:1033A800FFF70AFC104B0DA80D93FFF721FCFFF760
:1033B800AFFC61210020FFF7CFFC0C4B01221A70F3
:1033C800FEE700BF94000020C80100200010014063
:1033D8004C02002000300140D400002000040040CE
:1033E8000000024028380008350F933028000020DC
:1033F800224B03201A6C42F0805200B51A6483B045
:103408001A6C02F080520092009A5A6C42F4804280
:103418005A645B6C03F480430193019BFDF740FA07
:1034280000226FF00B001146FDF74EFA00226FF0F4
:103438000A001146FDF748FA00226FF0090011460C
:10344800FDF742FA00226FF004001146FDF73CFA3E
:1034580000226FF003001146FDF736FA00226FF0E4
:1034680001001146FDF730FA00224FF0FF301146F7
:1034780003B05DF804EBFDF727BA00BF003802403F
:1034880002680E4B9A4200D0704703F58C330C4803
:103498005A6C42F4807270B55A6486B05B6C0F2621
:1034A8000325002403F4807301A901960093009B6F
:1034B800CDE90254FDF7AEFA06B070BD0020014018
:1034C8000000024002680E4B9A4200D0704703F594
:1034D800E2330C481A6C42F0005270B51A6486B098
:1034E8001B6C10260325002403F0005301A9019644
:1034F8000093009BCDE90254FDF78CFA06B070BD2D
:10350800007400400000024003681F4A934270B5EF
:1035180088B01FD01D4A934201D008B070BD1C4B23
:103528004FF46041022000261A6C0325052442F45A
:1035380080421A641B6C039103A903F4804304902E
:1035480014480293029B0794CDE90565FDF762FADA
:1035580008B070BD0E4BE021022000265A6C0325EE
:10356800052442F480525A645B6C039103A903F466
:103578008053049008480193019B0794CDE90565A1
:10358800FDF748FA08B070BD00300140003800402F
:1035980000380240000402400000024002680E4B5E
:1035A8009A4200D0704703F50D330C4870B51A6C79
:1035B800022586B030262A43002401A91A641B6C10
:1035C80001962B40029505950093009BCDE9034495
:1035D800FDF720FA06B070BD000400400004024068
:1035E8000268094B9A4200D0704703F50C3382B049
:1035F8001A6C42F004021A641B6C03F00403019372
:10360800019B02B0704700BF0008004002680A4BE7
:103618009A4200D0704710B586B0022200234FF4BA
:10362800E04401A905480592CDE90142CDE90333FB
:10363800FDF7F0F906B010BD00080040000C02408C
:103648000268114B9A4200D0704703F594334FF447
:10365800C06102205A6C42F0100270B55A6486B0FC
:103668005B6C00260191032503F0100302900724E8
:1036780001A900930548009B0594CDE90365FDF772
:10368800C9F906B070BD00BF00100140000002403B
:10369800704700BFFEE700BFFEE700BFFEE700BFC0
:1036A800FEE700BF704700BF704700BF704700BF0C
:1036B80008B5FCF769FFBDE80840FDF76DB900BF24
:1036C8000120FDF7CDBA00BF0220FDF7C9BA00BF3F
:1036D8000420FDF7C5BA00BF0820FDF7C1BA00BF36
:1036E8001020FDF7BDBA00BF08B52020FDF7B8FAD5
:1036F8004020FDF7B5FA8020FDF7B2FA4FF40070CC
:10370800BDE80840FDF7ACBA0F4A104BD2F8880064
:103718000F4940F4700070B4C2F88800002418689B
:103728004FF000650B4E40F0010018609C6018686F
:10373800014019605E60196821F480211960DC601D
:10374800956070BC704700BF00ED00E00038024093
:10375800FFFFF6FE10300024DFF834D0002103E02C
:103768000C4B5B58435004310B480C4B42189A429F
:10377800F6D30B4A02E0002342F8043B094B9A4275
:10378800F9D3FFF7C1FF00F011F8FFF7BDFB704751
:1037980000000820D4390008000000200C00002098
:1037A8000C000020B0020020FEE7000070B50D4EAE
:1037B8000D4CA41BA4100025A54209D10B4E0C4C9E
:1037C80000F018F8A41BA4100025A54205D170BD6F
:1037D80056F8253098470135EEE756F825309847D2
:1037E8000135F2E7CC390008CC390008CC3900089B
:1037F800D0390008F8B500BFF8BC08BC9E46704731
:0C380800F8B500BFF8BC08BC9E46704735
:1038140001040208001010100410101002101010FF
:10382400080000000702010101E848000813000035
:103834000000674B0008110004000000183010114C
:10384400200C0003000702710005E8480000000591
:103854001120010C421011200C1C8000B0100CE847
:1038640000530624DD000E11200A280002C00800BF
:1038740012002101710F11200B391212801A20003D
:1038840000280CA4230D1120094503007D0100FF2D
:103894000609100611200250940A0611200254034E
:1038A40007091120055B40040478201011210C0045
:1038B4007E641BBA580BDDCED6E6F6001011210C3F
:1038C4000C030315F03F007E641BBA580B0F112143
:1038D4000B18DDCED6E6F600030315F03F051122E2
:1038E40001031D0C1140080037090000033320FEBA
:1038F40008320000000000000005175610CAF00549
:10390400171310CAF0081101040007100000071172
:103914000203000A00000911100500040A001F3107
:1039240009111105000BB42BB42B1011120C01005A
:1039340030FFFF2032000000006161091112050E02
:1039440061140000800A112006000500070AFC80AB
:10395400061120020B01DE0511200118050F1120AC
:103964000B1E301000E8004A06E97907FF0C11200D
:10397400082A020000128093014A0B112007391013
:1039840010001A11480E0B11200747E301008006AE
:103994000118051120015084051120015D0708114B
:1039A400400400350F9333000000000000000000C5
:1039B40001020304060708090000000001020304D1
:0839C400A4C8FF7F0100000010
:0439CC001D020008D0
:0439D000F9010008F1
:0C39D40001000000100000000024F400BE
:040000050800376157
:00000001FF
