:020000040800F2
:1000000000000820995000089D4F0008A14F0008EB
:10001000A54F0008A94F0008AD4F000800000000E0
:10002000000000000000000000000000B14F0008C8
:10003000B54F000800000000B94F0008BD4F000890
:10004000E9500008E9500008E9500008E9500008AC
:10005000E9500008E9500008CD4F0008D54F0008CE
:10006000DD4F0008E54F0008ED4F0008E95000089B
:10007000E9500008E9500008E9500008E95000087C
:10008000E9500008E9500008E9500008E95000086C
:10009000E9500008E9500008E9500008F54F000851
:1000A000E9500008E9500008E9500008E95000084C
:1000B000E9500008E9500008E9500008E95000083C
:1000C000E9500008E9500008E9500008E95000082C
:1000D000E950000815500008E9500008E9500008F0
:1000E000E9500008E9500008E9500008E95000080C
:1000F000E9500008E9500008E9500008E9500008FC
:10010000E9500008E9500008E9500008E9500008EB
:10011000E9500008E950000821500008E9500008A3
:10012000E9500008E9500008E9500008E9500008CB
:10013000E9500008E9500008E9500008E9500008BB
:10014000E9500008E9500008E9500008E9500008AB
:10015000E9500008E95000083D500008E950000847
:10016000E9500008E9500008E9500008E95000088B
:10017000E9500008E9500008E9500008E95000087B
:10018000E9500008E9500008E9500008E95000086B
:10019000E9500008E9500008E9500008E95000085B
:1001A000E9500008E9500008E9500008E95000084B
:1001B000E9500008E9500008E9500008E95000083B
:1001C000E9500008E950000800000000E95000086C
:1001D000E9500008E9500008E9500008E95000081B
:1001E000E9500008E9500008E9500008E95000080B
:0801F000E9500008E950000885
:1002000010B5054C237833B9044B13B10448AFF350
:1002100000800123237010BD780000200000000042
:100220007059000808B5034B1BB103490348AFF3ED
:10023000008008BD000000007C000020705900080C
:1002400053B94AB9002908BF00281CBF4FF0FF313D
:100250004FF0FF3000F072B9ADF1080C6DE904CE3B
:1002600000F006F8DDF804E0DDE9022304B0704791
:100270002DE9F047089E04468846002B4BD18A4260
:10028000154667D9B2FA82F24AB1C2F1200701FAE3
:1002900002F320FA07F7954047EA030894404FEA33
:1002A000154E230CB8FBFEF71FFA85FC0EFB1788D2
:1002B00043EA084307FB0CF1994209D9EB1807F10F
:1002C000FF3080F01B81994240F21881023F2B449D
:1002D0005B1AA4B2B3FBFEF00EFB103344EA0344F6
:1002E00000FB0CFCA44509D92C1900F1FF3380F068
:1002F0000781A44540F2048102382C4440EA0740BB
:10030000A4EB0C0400271EB1D4400023C6E900432F
:100310003946BDE8F0878B4209D9002E00F0EB800A
:100320000027C6E9000138463946BDE8F087B3FA30
:1003300083F7002F47D18B4202D3824200F2FA802A
:10034000841A61EB030301209846002EE0D0C6E931
:100350000048DDE702B9FFDEB2FA82F2002A40F07F
:100360008F80491B4FEA154E1FFA85F80127B1FB14
:10037000FEFC230C0EFB1C1143EA014308FB0CF1AD
:10038000994207D9EB180CF1FF3002D2994200F2E2
:10039000CD808446591AA3B2B1FBFEF00EFB1014B7
:1003A00043EA044408FB00F8A04507D92C1900F1E2
:1003B000FF3302D2A04500F2B6801846A4EB080431
:1003C00040EA0C409FE7C7F1200CBB4022FA0CFE2C
:1003D0004EEA030E01FA07F420FA0CF521FA0CF3A9
:1003E0004FEA1E482543B3FBF8F92C0C08FB1933E0
:1003F0001FFA8EFA44EA034309FB0AF49C4202FA0C
:1004000007F200FA07F10BD91EEB030309F1FF30E5
:1004100080F087809C4240F28480A9F102097344F5
:100420001B1BADB2B3FBF8F008FB103345EA0344E5
:1004300000FB0AFAA24508D91EEB040400F1FF33C1
:100440006BD2A24569D90238744440EA0940A0FB46
:100450000289A4EB0A044C45C2464B4654D351D002
:10046000002E69D0B1EB0A0564EB030404FA0CFC1E
:10047000FD40FC404CEA0505C6E90054002747E76B
:10048000C2F1200320FA03F7954001FA02F021FAA5
:1004900003F34FEA154E3843010CB3FBFEF71FFA86
:1004A00085F80EFB173341EA034107FB08F38B4243
:1004B00004FA02F407D9691807F1FF3C2FD28B42E6
:1004C0002DD9023F2944CB1A81B2B3FBFEF00EFBBB
:1004D000103341EA034100FB08F38B4207D9691846
:1004E00000F1FF3C17D28B4215D902382944C91AB2
:1004F00040EA07473BE73746304609E70746E7E665
:100500001846FBE64145ABD2B8EB020A69EB0E0296
:1005100001381346A4E76046E9E7184695E76746C1
:10052000D1E781467CE702382C4447E7ACF1020C66
:100530002B442FE7384608E73746E9E6704700BF07
:10054000034613F8012B002AFBD1181A0138704713
:1005500001F0FF01102A2BDB10F0070F08D010F874
:10056000013B013A8B422DD010F0070F42B3F6D178
:10057000F0B441EA012141EA014122F007047FF091
:1005800000070023F0E80256083C85EA010586EAE8
:10059000010685FA47F5A3FA87F586FA47F6A5FA24
:1005A00087F68EB9EED1F0BC01F0FF0102F0070230
:1005B00032B110F8013B013A83EA010313B1F8D1DB
:1005C0000020704701387047002D06BF35460338BC
:1005D000073815F0010F07D1013015F4807F02BFF5
:1005E000013015F4C03F0130F0BC0138704700BF46
:1005F00038B50D4C4FF47A730C49054622780868DB
:10060000B3FBF2F3B0FBF3F000F000FA08B90F2DE2
:1006100001D9012038BD002229464FF0FF3000F0FB
:10062000B3F96560002038BD0000002010000020F4
:1006300008B5032000F094F90020FFF7D9FF04F07B
:100640000BFB002008BD00BF034A044B11681B7858
:100650000B441360704700BFB00000200000002072
:10066000014B1868704700BFB000002038B5044641
:10067000FFF7F6FF0546631C02D0044B1B781C44B1
:10068000FFF7EEFF401BA042FAD338BD0000002068
:10069000002800F09180F8B5036C0446002B00F0B0
:1006A0008180236CDB0604D50023012084F83C30D4
:1006B000F8BD236C4D4A4E491A4023684D4D42F017
:1006C000020222644A6822F440324A604A68606842
:1006D00002434A605A68216922F48072D4F808C043
:1006E000E7685A605868A66A40EA0120AE4258603E
:1006F000586820F040705860596841EA0C01596010
:10070000996821F4006199609A6842EA07029A6048
:1007100054D09968E06A21F0706199609A68164334
:100720009E60996821F0405199609A6802439A60EE
:100730009968A56921F00201206A99609A6842EAE5
:1007400045029A60002842D15A6822F400625A6039
:10075000D86A0026E56920F47000D4F830C06A1E1B
:100760006769D8623046DD6A45EA0255DD629D68F8
:1007700025F400759D60996841EA4C21996099685B
:1007800021F4806199609A6842EA87229A606664DF
:10079000236C23F0030343F001032364002384F854
:1007A0003C30F8BD436480F83C3004F09DFA236C83
:1007B000DB063FF579AF7CE7012070479A6822F0AD
:1007C00070629A609A6822F040529A60B0E7586866
:1007D000626A40F40060511E58605A6822F4604218
:1007E0005A605A6842EA41325A60B1E7FDEEFFFFB3
:1007F000002301400100000F90F83C300022F0B5CA
:10080000012B83B0019200F09A800D6801220368E9
:10081000092D80F83C20AFB28A6828D805EB450640
:100820004FF0070C1C690CFA06FC02FA06F624EAE3
:100830000C041C611A6916431E614E68062E06EBF5
:1008400086022DD8053A1F24596B944007FA02F20C
:1008500021EA04015963596B0A435A633C4A9342A3
:1008600030D0002380F83C30184603B0F0BD07EBD1
:1008700047064FF0070CDC681E3EDFF8D8E00CFAA4
:1008800006FC754524EA0C04DC605BD002FA06F62F
:10089000DA681643DE604E68062E06EB8602D1D972
:1008A0000C2E37D8A2F123041F26196BA64007FA95
:1008B00004F221EA060119631C6B1443244A934293
:1008C0001C63CED1122D33D0224B9D4201D0112D6D
:1008D000C7D1214A1F4953688D4243F40003536036
:1008E000BFD102F146721D4B02F52E321B6802F297
:1008F0008332A2FB03239B0C03EB83035B00019376
:10090000019B002BADD0019B013B0193019B002B70
:10091000F9D1A6E7A2F141011F26DC6A8E4007FA51
:1009200001F224EA0604DC62D96A0A43DA6295E736
:10093000D2F8043343F48003C2F8043391E7022071
:1009400003B0F0BDDE6846EA0266DE6075E700BF10
:100950000020014012000010002301401000002080
:1009600007490002074BCA6800F4E06010B44FF674
:10097000FF0422405DF8044B13431843C8607047DE
:1009800000ED00E00000FA05174BDB68C3F302231B
:1009900030B4C3F107051C1D042D28BF0425062C07
:1009A00018D9033B4FF0FF349C4022EA04044FF077
:1009B000FF32002802FA05F221EA020101FA03F2ED
:1009C00042EA04024FEA0212D2B206DB074B1A5483
:1009D00030BC704700242346E9E700F00F00044BC9
:1009E0001A5430BC704700BF00ED00E000E400E0A6
:1009F00014ED00E000F01F010123034A40098B4081
:100A000042F82030704700BF00E100E00138B0F14B
:100A1000807F0DD2074B0022072130B4F025064C11
:100A20005860104684F823509A60196030BC7047B3
:100A30000120704710E000E000ED00E0044A0428C7
:100A400013680CBF43F0040323F0040313607047E2
:100A500010E000E0704700BF08B5FFF7FBFF08BDDE
:100A600088B1037910B503F0FF0204463BB10023BF
:100A700002210122217118462361227110BD4271A9
:100A800004F054F9F3E70120704700BF704700BF3E
:100A900003685A6B910410B5044615D45A6B920042
:100AA00000D410BD04224FF000512046227122696B
:100AB00042F00202226159631A6822F08052BDE8B6
:100AC00010401A6000F036B804224FF40051027151
:100AD000026942F00102026159631A6822F48052ED
:100AE0001A60FFF7D3FF2368D8E700BF4379012BD3
:100AF0001DD070B4D1E900310468022640F6FE75BD
:100B00000B430671C02105FA02F625689340914017
:100B100025EA060501262B4300252360226822EAE8
:100B20000102226006714571284670BC704702239D
:100B300018467047704700BFF8B50446FFF790FDB0
:100B4000002C53D0022223680021054684F835206A
:100B50001A6884F8341022F001021A6005E0FFF7E9
:100B60007FFD401B05283AD823681A68D107F6D4C0
:100B7000D4E90120E16802431F68D4E904050A436F
:100B80000243206AD4E906612A43354D32433D4091
:100B90000A43616A0243042942EA050228D01A6026
:100BA0005A6922F007021143DAB22E4D5961103A08
:100BB0002D492E48A5FB0252194001251309002298
:100BC000C05C032B4FF03F0388BF0431E0658340D6
:100BD0001046A1658B60626584F83550F8BD03232B
:100BE00020221846626584F83530F8BD0120F8BD32
:100BF000D4E90B51A76A45EA010047F0040102431A
:100C00001A605A6922F007021143002DCCD07EB140
:100C1000B6F5005F16D0022F03D9032FC4D1EA0125
:100C2000C2D5012340221846626584F83530F8BDEC
:100C3000012F03D0F3D3022FB6D1F0E7B5F1C07F77
:100C4000B2D1EEE7032FAFD801A252F827F000BFD0
:100C5000230C00081F0C0008230C00083D0C0008A2
:100C60003F8010E0ABAAAAAA00FCFFFF8859000849
:100C7000F0B490F83440012C38D0012590F835407C
:100C8000866DAC4280F8345029D1046802270025D3
:100C900080F83570456587682568402F25F48025E4
:100CA0002560636026D0A160E260C16D3F23026CC5
:100CB0008B40B360236843F016032360636943F0FD
:100CC000800363611AB1236843F00803236022683C
:100CD000002342F0010218462260F0BC7047002257
:100CE000022380F834201846F0BC70470223F0BC81
:100CF00018467047A260E160D7E700BF90F8352042
:100D00000346022A03D0802201205A6570470268F8
:100D10000521002083F83510136823F001031360C8
:100D2000704700BFF0B5044683B000200822664932
:100D300001900E68D4E916739A403D682A4203D0A8
:100D400021680868400759D401229A402A4203D0FA
:100D500021684969080674D404229A402A4203D0C3
:100D600021680968890766D410229A402A4203D074
:100D70002168086800074BD420229A402A4214D0E8
:100D800021680868C00610D5BA6094F83520052A95
:100D900063D00B6813F4802F0B687ED0190340F1E9
:100DA0008980E36B0BB120469847636D23B3636D75
:100DB000DA071AD522680521444B84F83510A3FBC5
:100DC0000636136823F00103B60A136002E01368C5
:100DD000DB0704D5019B0133B3420193F7D900220D
:100DE000012384F8342084F83530E36C23B12046A5
:100DF00003B0BDE8F040184703B0F0BD086820F02C
:100E000004000860BA60626D42F0010262659BE70F
:100E1000BA600A6812F4802F0A6818D1D20503D488
:100E20000A6822F008020A60226C002AA4D0204638
:100E30009047E36DA0E7BA60626D42F0040262651C
:100E400092E7BA60626D42F00202626584E71103C4
:100E5000EAD5A26C002AEAD18EE70A68206C22F05B
:100E600016020A604A6922F080024A6138B30A68B1
:100E700022F008020A603F220020012102FA03F357
:100E8000226DBB6084F8340084F83510002AB3D09A
:100E9000204603B0BDE8F040104713F4807380D1C2
:100EA0000A68012022F010020A6084F8343084F8C5
:100EB000350076E7636C002B7FF475AF75E7A26CA5
:100EC000002AD4D1D7E700BF10000020B5814E1B07
:100ED0002DE9F04FDFF82CC283B08E460025DFF8F5
:100EE0002892D1F8008003E00135102D00F0B68083
:100EF0000123AB4008EA03018B42F5D1DEF8044040
:100F000024F01007022F40F0AC80EF0805F0070A2C
:100F10004FF00F0BDEF8102000EB87074FEA8A0A2C
:100F20003E6A0BFA0AFB02FA0AF24FEA450A26EA7F
:100F30000B064FF0030B32430BFA0AFB04F00306D7
:100F40003A626FEA0B02076806FA0AF617403E4358
:100F500006608668C4F3001706EA020BDEF80C6030
:100F6000AF4006FA0AF646EA0B068660466826EAAD
:100F700003031F434760C668E700DEF8083002EA53
:100F8000060203FA0AF343EA0203C360ACD5D9F8B8
:100F9000446025F0030705F003030F2246F4804662
:100FA00007F180479B00C9F8446007F59C37D9F8E2
:100FB000446002FA03FA06F480460196484E019A0C
:100FC000B042BA6822EA0A0220D006F58066B04232
:100FD0005ED0444EB04260D0434EB04262D0434EE9
:100FE000B04264D0424EB0426BD0424EB0426DD05F
:100FF000414EB04260D0414EB0426CD0404EB04203
:101000000CBF09260A2606FA03F31A43BA60E60360
:10101000DCF800306FEA010205F1010554BF13400E
:101020000B43A703CCF80030DCF8043054BF134066
:101030000B43E602CCF80430DCF8083054BF134010
:101040000B43A402CCF80830DCF80C3054BF13403A
:101050000B43102DCCF80C307FF44AAF03B0BDE841
:10106000F08F4FEA450A0322D0F800B0013F04EAAE
:10107000020602FA0AF2012F6FEA020206FA0AF6E3
:1010800002EA0B0B46EA0B0606603FF674AF60E718
:10109000012606FA03F31A43B8E7022606FA03F319
:1010A0001A43B3E7032606FA03F31A43AEE704260E
:1010B00006FA03F31A43A9E7072606FA03F31A43CD
:1010C000A4E7052606FA03F31A439FE7062606FA65
:1010D00003F31A439AE7082606FA03F31A4395E73F
:1010E0000000024000080240000C024000100240D4
:1010F0000014024000180240001C02400020024080
:1011000000240240003C01400038024003691942BB
:1011100014BF01200020704702B9090481617047A3
:101120004369594041617047044A5169014200D105
:10113000704708B5506103F03BF808BD003C014022
:101140001B4A1C4B116C41F0805130B5116483B0C7
:10115000126C1C4602F080520192019A1A6842F405
:1011600080321A60FFF77CFA054605E0FFF778FA4F
:10117000401BB0F57A7F17D86368DA03F6D5236889
:101180000C4D43F400332360FFF76AFA044605E090
:10119000FFF766FA001BB0F57A7F05D86B689B03F2
:1011A000F6D5002003B030BD032003B030BD00BF32
:1011B00000380240007000400D490E484A6808B5EA
:1011C0004B6802F03F02496813F48003C1F38811B1
:1011D00018BF0023A1FB0001FFF732F8044B5B6846
:1011E000C3F3014301335B00B0FBF3F008BD00BF64
:1011F000003802400024F400002800F03481036825
:101200002DE9F041DD0782B0044635D5AB498A6847
:1012100002F00C02042A00F0FE808A6802F00C0240
:10122000082A00F0F4806368B3F5803F10D0002BEB
:1012300000F01B81B3F5A02FA04B1A6800F062816B
:1012400022F480321A601A6822F480221A6004E0C4
:101250009A4A136843F480331360FFF701FA974DFD
:10126000064605E0FFF7FCF9801B642800F2EE80DB
:101270002B689A03F6D523689F0742D41A0717D51F
:101280006369002B00F0B0808C4B5A6F1D4642F012
:1012900001025A67FFF7E4F9064605E0FFF7E0F9B7
:1012A000801B022800F2D2806B6F9B07F6D5236863
:1012B0005D076BD5814B1A6CD00000F1ED801A6C84
:1012C000012542F080521A641B6C03F08053019395
:1012D000019B7B4B1A68D10540F1A780A368012BC5
:1012E00039D0002B00F0DA80052B744B1A6F00F018
:1012F000118122F001021A671A6F22F004021A67A4
:101300002EE06E4A916811F00C0F62D0916801F0E6
:101310000C0108295AD0E368002B00F0DF80674BEE
:101320001A681D4642F001021A60FFF799F9064655
:1013300005E0FFF795F9801B022800F287802B68F3
:101340009807F6D52B68226923F0F80343EAC20315
:101350002B60236892E7594A136F43F00103136728
:10136000FFF77EF9554E804641F2883705E0FFF7DA
:1013700077F9A0EB0800B84268D8336F9B07F6D521
:1013800025B14E4A136C23F080531364A369CBB18B
:101390004A4A916801F00C01082921D0022B1368F8
:1013A00000F0C08023F0807314461360FFF758F9F3
:1013B000054604E0FFF754F9401B022846D823688D
:1013C0009B01F7D4002002B0BDE8F08152685602BC
:1013D000A1D43A4A126895073CD5E268012A39D06F
:1013E000012002B0BDE8F081344B5A6F1D4622F057
:1013F00001025A67FFF734F9064604E0FFF730F9B7
:10140000801B022822D86B6F9F07F7D44FE74A68EA
:1014100050027FF508AF294A126891037FF52CAF7F
:101420006268002A7FF428AFDAE71A681E4642F4A1
:1014300080721A60FFF714F907463368DA053FF542
:101440004DAFFFF70DF9C01B6428F6D9032002B099
:10145000BDE8F081194920690A6822F0F80242EAE1
:10146000C0020A600AE701207047144B1A681D4643
:1014700022F480321A601A6822F480221A60FFF780
:10148000EFF8064604E0FFF7EBF8801B6428DDD890
:101490002B689B03F7D4EEE600251AE7074B41F2D1
:1014A00088381A6F1E4622F001021A671A6F22F05E
:1014B00004021A67FFF7D4F8074608E00038024034
:1014C00000700040FFF7CCF8C01B4045BED8336F1A
:1014D0009807F7D4002D3FF459AF52E72C4B1A6808
:1014E0001D4622F001021A60FFF7BAF8064604E032
:1014F000FFF7B6F8801B0228A8D82B689907F7D405
:101500002368BBE642F480221A601A6842F48032F3
:101510001A60A2E642F004021A671A6F42F0010252
:101520001A671DE723F0807315461360FFF798F8DC
:10153000064604E0FFF794F8801B022886D82B6843
:101540009901F7D4D4E90732616A1343D4E90A2038
:1015500043EA8113216B52080D4C43EA0063013AC0
:1015600043EA017343EA02436B602B6843F08073E4
:101570002B60FFF775F8054605E0FFF771F8401B93
:1015800002283FF663AF23689A01F6D51AE700BF39
:101590000038024078B14E4A136803F00F038B42C3
:1015A0000BD2136823F00F030B431360136803F08F
:1015B0000F038B4201D00120704703682DE9F041F1
:1015C0009D0714D55C0704D5424CA26842F4E05252
:1015D000A2601A0704D53F4CA26842F46042A260A0
:1015E0003C4C8568A26822F0F0022A43A260DF0723
:1015F00004460D4621D54268364B012A1B685ED051
:10160000022A61D0990728D5324941F288388B687F
:101610000E4623F0030313438B60FFF721F80746C0
:1016200004E0FFF71DF8C01B40454BD8B368626863
:1016300003F00C03B3EB820FF3D1254A136803F0D8
:101640000F03AB420CD9136823F00F032B43136035
:10165000136803F00F03AB4202D00120BDE8F08114
:1016600023685A0706D51B49E0688A6822F4E052CD
:1016700002438A601B0707D5164A2169936823F441
:10168000604343EAC1039360124B9B6803F00C0371
:10169000082B10D0104A0F4B0020104C9B681049AB
:1016A000C3F30313E35C22FA03F30B60FEF7A0FF1E
:1016B0000020BDE8F081FFF77FFD0246EBE79E03C7
:1016C000A2D4CAE70320C9E798019DD4C5E700BFAB
:1016D000003C0240003802400024F4002879000851
:1016E00010000020044B9B6803F00C03082B01D072
:1016F00002487047FFF760BD003802400024F40044
:10170000014B1868704700BF10000020044B054AC9
:101710009B680549C3F382230868D35CD8407047AF
:10172000003802403879000810000020044B054AB8
:101730009B680549C3F342330868D35CD8407047BF
:1017400000380240387900081000002003682DE9B5
:10175000F04313F0010683B004460BD09F4A916812
:1017600021F400019160466B91683143B6FA86F628
:101770007609916013F4002510D09849E56BD1F8F3
:101780008C20B5F5801F22F4401242EA0502C1F810
:101790008C2000F0D481B5FA85F56D09D90210D5F9
:1017A0008E48216CD0F88C20B1F5800F22F44002D5
:1017B00042EA0102C0F88C2000F0BF81002908BF76
:1017C000012513F0807F18BF01269A0600F16D8174
:1017D000DA060CD5814AD2F88C1021F08071C2F85B
:1017E0008C10D2F88C10A06B0143C2F88C105F04EF
:1017F00008D57A49606ED1F8902022F44032024335
:10180000C1F89020180408D57449A06ED1F8902032
:1018100022F440220243C1F89020D90308D56F4931
:10182000E06ED1F8902022F440120243C1F89020DB
:101830009A0308D56949206FD1F8902022F440021C
:101840000243C1F890205F0608D56449606CD1F866
:10185000902022F003020243C1F89020180608D518
:101860005E49A06CD1F8902022F00C020243C1F82E
:101870009020D90508D55949E06CD1F8902022F084
:1018800030020243C1F890209A0508D55349206DD3
:10189000D1F8902022F0C0020243C1F890205F05E9
:1018A00008D54E49606DD1F8902022F44072024371
:1018B000C1F89020180508D54849A06DD1F89020AE
:1018C00022F440620243C1F89020D90408D543496C
:1018D000E06DD1F8902022F440520243C1F89020EC
:1018E0009A0408D53D49206ED1F8902022F4404258
:1018F0000243C1F890205F0208D53849A06FD1F8A3
:10190000902022F080620243C1F8902098020CD50A
:101910003249E06FD1F89020B0F1006F22F0006200
:1019200008BF01250243C1F8902013F0080F18BF2B
:101930000125590308D52949606FD1F8902022F07C
:1019400040720243C1F890201A0209D52349D4F805
:101950008000D1F8902022F080520243C1F89020FC
:101960005F0109D51D49D4F88400D1F8902022F0F8
:1019700000520243C1F89020180109D51749D4F844
:101980008800D1F88C2022F000720243C1F88C202C
:10199000D9000BD4B3F1007F16D0F20714D4012D77
:1019A00000F0D080002003B0BDE8F0830B49B3F114
:1019B000007FD4F88C00D1F88C2022F0806242EABB
:1019C0000002C1F88C20E8D1044B1A681E4622F0B0
:1019D00080621A60FEF744FE074606E000380240C7
:1019E000FEF73EFEC01B64285BD833681B01F7D4AA
:1019F0002368DF0712D5626B82B9D6F88420D6F847
:101A0000847002F44032606807F07067A1683A435E
:101A100042EA801242EA0172C6F884201E0300F1F5
:101A20000F81D80204D5226CB2F5800F00F00D8131
:101A3000D90111D5A44E6068D6F88420D6F88470F8
:101A400002F07062216907F0E0473A4342EA8012EF
:101A500042EA0142C6F884209A010DD523696268E2
:101A60001B04D4E9021043EA8213974A43EA006355
:101A700043EA0173C2F88430934B1A681E4642F061
:101A800080621A60FEF7ECFD074604E0FEF7E8FD11
:101A9000C01B642805D833681B01F7D5012D81D1FF
:101AA00050E0032003B0BDE8F083874A874B116CF8
:101AB0001F4641F080511164126C02F08052019275
:101AC000019A1A6842F480721A60FEF7C9FD8046D6
:101AD00005E0FEF7C5FDA0EB08006428E1D83B68EF
:101AE000DB05F6D5784A236B116F03F4407011F4CF
:101AF000407111D088420FD0116F176F21F44071DF
:101B000047F480371767176F27F480371767116717
:101B1000116FCF0700F1C380B0F5407F00F0B180B6
:101B200069498A6822F4F8128A60674AC3F30B0392
:101B3000116F0B43136723684AE6012641E600252F
:101B400001262BE6604B1A681D4622F080521A606F
:101B5000FEF786FD064604E0FEF782FD801B642842
:101B60009FD82B689F00F7D423681D0300F1928053
:101B7000D8021DD5226CDAB953496569D1F888209D
:101B8000D1F8886002F44032A06906F0E0463243A2
:101B900042EA851242EA0062C1F88820D1F88C201E
:101BA000A06A22F4F852013842EA0022C1F88C20DF
:101BB000990215D5E26FB2F1006F11D14249656902
:101BC000D1F88820D1F8886002F07062206A06F0AF
:101BD000E046324342EA851242EA0042C1F88820D8
:101BE0001A0719D5384A6569D2F88810D2F88830B2
:101BF00001F07061E06903F440330B4343EA85135D
:101C000043EA0073C2F88830D2F88C30E16A23F4DA
:101C100040330B43C2F88C302B4B1A681C4642F001
:101C200080521A60FEF71CFD054605E0FEF718FD20
:101C3000401B64283FF635AF23689B00F6D5B1E61C
:101C4000E26BB2F5801F7FF4ECAE1F4E6068D6F8F1
:101C50008420D6F8847002F44032E16807F0E0474F
:101C60003A4342EA801242EA0162C6F88420D6F87A
:101C70008C10626A21F01F01013A0A43C6F88C20D9
:101C8000D6E6114812498268194022F4F8120A4334
:101C900082604AE7E26B002A3FF46EAF68E71746BE
:101CA00041F28838FEF7DCFC814606E0FEF7D8FCFE
:101CB000A0EB090040453FF6F4AE3B6F9907F5D520
:101CC000236B03F4407027E70038024000700040A7
:101CD000FFFCFF0F0346D0E900205168B0F5827F7A
:101CE00021F0E001516014D0996AB1F5005F08D18C
:101CF00011684DF6FF7001401160116841F4005108
:101D0000116001210022032083F85D1083F85C201C
:101D100070479968B1F5004F02D0B1F5806FE3D1FB
:101D2000116821F040011160DEE700BF70B5054683
:101D30000C4616462B6801E0621C04D1986810F02E
:101D40008000F9D170BD24B1FEF78AFC801B84426B
:101D5000F0D82846BDE87040FFF7BCBF2DE9F04140
:101D6000074682B00C46164698463D680AE0B4F530
:101D7000C06F05D1297BC9B28DF807109DF80720E7
:101D8000731C05D1A8682040F1D102B0BDE8F081F4
:101D90002EB1FEF765FCA0EB08008642E5D8384678
:101DA00002B0BDE8F041FFF795BF00BFF8B543684A
:101DB00004460E461746B3F5827F23D03A46314695
:101DC0002046FFF7B3FF0546A8B96368B3F5827FE5
:101DD00001D02846F8BDA368B3F5004F02D0B3F593
:101DE000806FF6D13B4632464FF4C0612046FFF784
:101DF000B5FF0028EDD0236E032543F020032846CD
:101E00002366F8BD8368B3F5004F02D0B3F5806F49
:101E1000D4D12268136823F040031360CEE700BFDB
:101E200070B50D46164613464FF4C0512A46044677
:101E3000FFF794FF70B9324629462046FFF776FF38
:101E400040B933462A464FF4C0612046FFF786FF6B
:101E500000B970BD236E032043F02003236670BDDC
:101E60002DE9F843044601200F46164684F85C002D
:101E70009946089DFEF7F4FB94F85D108046626871
:101E8000C9B2012910D0B2F5827F08D00220012208
:101E9000002384F85D2084F85C30BDE8F883A368F3
:101EA000002BF3D10429F1D1B9F1000F18BF002E96
:101EB00000D00FB90120EAE794F85D30042B02D07E
:101EC000052384F85D30E36800212664B3F5E06FF4
:101ED0002166A4F84490A4F84690A763A4F83C9027
:101EE000A4F83E90C4E9131121684DD94B6823F43E
:101EF00080534B600B68580603D40B6843F04003D3
:101F00000B60002A00F0B780E38F9BB2012B00F03A
:101F1000B2804FF00109E38F9BB22BB9B4F8463081
:101F20009BB2002B00F08780B9F1000F0FD0E38F38
:101F30009BB263B123689A68910708D537F8022BE2
:101F40004FF00009DA60E38F013B9BB2E387B4F8FE
:101F500046309BB273B123689A68D2070AD5DB6812
:101F60004FF0010926F8023BB4F84630013B9BB222
:101F7000A4F84630681CCED0FEF772FBA0EB080038
:101F80008542C8D8032082E7B4F84630012B4B685D
:101F900040F28B8023F480534B600B685B0640F16A
:101FA0008B80002A6FD0E38F9BB2012B6BD04FF058
:101FB0000109E38F9BB223B9B4F846309BB2002BE2
:101FC00039D0B9F1000F12D0E38F9BB27BB12368F7
:101FD0009A6891070BD5E28F012A5CD937F8022B5A
:101FE0004FF00009DA60E38F023B9BB2E387B4F85D
:101FF00046309BB2B3B123689A68D20712D5B4F8C1
:102000004620012A24D9DA6826F8022BB4F84620A3
:10201000023A92B2A4F84620B4F84620012A23D905
:102020004FF001096B1CC4D0FEF71AFBA0EB0800AF
:102030008542BED8A6E7424629462046FFF7F0FE75
:1020400008B120232366206E003018BF01201EE750
:102050001B7B4FF0010933704E44B4F84630013B0E
:102060009BB2A4F84630DDE75A684FF0010942F40C
:1020700080525A60D6E737F8023BCB60E38F013BD2
:102080009BB2E38745E717F8013B0B73E38F013BF6
:102090009BB2E3878BE73A784FF0000901371A7358
:1020A000E38F013B9BB2E387A1E743F480534B608E
:1020B0000B6858063FF575AF0B6843F040030B60A3
:1020C0006FE700BF00285DD0002290F85D302DE959
:1020D000F0418262044603F0FF02002B4DD0E76816
:1020E00002232268B7F5E06F84F85D3027F40061C1
:1020F000136894BF4FF48055002523F04003B1F5D9
:10210000E06F136035D1A66A236B2BB9B7F5E06F8A
:102110008CBF022301232363A1684FF0000863688A
:1021200020690B43616903430B43D4E906010B4368
:10213000616A4FEA104C00F4007E0F43216A0CF0F4
:10214000040C40460B43616B0F4343EA0E034FF010
:10215000010E47EA0C0733433D4313605560D369D2
:1021600023F40063D361C4F8608084F85DE0BDE8C7
:10217000F08100231E46A362C6E780F85C2002F0CF
:10218000FFFDACE7012070472DE9F0411E4690F8B5
:102190005C3082B0012B69D0012304460D46904685
:1021A00080F85C30FEF75CFA94F85D300746012B4E
:1021B00009D002200122002384F85D2084F85C30DD
:1021C00002B0BDE8F081002D54D0B8FA88F35B0965
:1021D000002B4FD1A1680322A563B1F5004F84F80D
:1021E0005D20A4F83C8023662364A4F83E80A4F814
:1021F00044302268A4F84630C4E9133303D113688D
:1022000043F48043136013685B0603D4136843F000
:1022100040031360E368B3F5E06F34D9E08F80B218
:1022200070B123689A68900751D535F8022BDA60AF
:10223000E38F013B9BB2E387E08F80B20028F0D1AF
:102240003A4631462046FFF7EBFD08B120232366CE
:10225000A36833B922680193D3680193936801930B
:10226000019B206E003018BF0120A3E7022002B0BE
:10227000BDE8F08101209DE72A7801351A73E38FCC
:10228000013B9BB2E387E08F80B20028D8D023685F
:102290009A68920711D5E28F012AEDD935F8022B01
:1022A000DA60E38F023B9BB2E387E08F80B20028C5
:1022B000C6D023689A689207EDD436B1731CE2D079
:1022C000FEF7CEF9C01BB042DDD3032072E7002E2B
:1022D000FBD0711CA2D0FEF7C3F9C01BB0429DD346
:1022E000F3E700BF2DE9F04147681E4682B004467F
:1022F000B7F5827F90460D4690F85C3015D0012BE3
:1023000023D0012384F85C30FEF7AAF994F85D30FD
:102310000746012B1DD002200122002384F85D20F6
:1023200084F85C3002B0BDE8F0818268002AE6D112
:102330000422012B80F85D2007D043460A46009610
:10234000FFF78EFD02B0BDE8F081022002B0BDE8CB
:10235000F081002D7CD0B8FA88F35B09002B77D18F
:102360000422E168A36384F85D20B1F5E06F226880
:102370002366A387A4F84680E3872564A4F84480F5
:10238000C4E9133353688CBF23F4805343F4805360
:102390005360A368B3F5004F03D1136823F480435F
:1023A000136013685B0603D4136843F040031360A3
:1023B000B1F5E06F2AD8B4F846309BB28BB12368F0
:1023C0009A68D0073AD51B7B05F8013BB4F8463034
:1023D000013B9BB2A4F84630B4F846309BB2002BC8
:1023E000EDD13A4631462046FFF7E0FC08B1202304
:1023F0002366206E003018BF01208DE736B3731CB2
:1024000004D0FEF72DF9C01BB0421FD2B4F84630FD
:102410009BB2002BE5D023689A68D207EED5DB6823
:1024200025F8023BB4F84630013B9BB2A4F8463095
:10243000B4F846309BB2002BEDD1D2E736B1711C17
:10244000B9D0FEF70DF9C01BB042B4D3032063E747
:10245000012061E703680020DA6842F00102DA60D7
:102460001A6842F001021A60704700BF036841F227
:102470001111DA6822F00102DA601A6A0A4208D100
:10248000196A40F24442114203D11A6822F0010253
:102490001A600020704700BF03680122186A02FA20
:1024A00001F120EA010010B418620B4C1A6AA34231
:1024B00041EA020119620AD0084A934207D01A6819
:1024C00000205DF8044B42F001021A6070475A6C1C
:1024D00042F400425A64F2E7000001400004014067
:1024E000704700BFFFF7D8BF90F83C30012B66D093
:1024F00003685F4AF0B40224012580F83D409C68DF
:1025000080F83C5022400C68402C9A6000F0978084
:1025100019D9702C00F081802BD9B4F5805F77D069
:10252000B4F5005F1CD1CC68D1E9015299682A4307
:1025300021F47F4142EA04220A439A609A6842F4F5
:1025400080429A600CE0102C43D02FD9202C39D037
:10255000302C05D19A6822F0700242F037029A605E
:102560000023012280F83C3080F83D201846F0BC62
:102570007047502C34D0602CF2D11C6A4D6824F086
:102580001004CE681C6299691A6A21F4704122F025
:10259000A00241EA063142EA051299611A629A687C
:1025A00022F0700242F067029A60D9E7002CD7D17E
:1025B0009A6822F0700242F007029A60D0E7022285
:1025C000104670479A6822F0700242F027029A6023
:1025D000C6E79A6822F0700242F017029A60BFE7DD
:1025E0001E6A1D6A4C6826F00A0625F00105CF68B0
:1025F00034431D629A6922F0F00242EA07129A619E
:102600001C629A6822F0700242F057029A60A7E7B3
:102610009968184A0A409A60A2E7D1E90142CD6858
:1026200022439C68144942EA052224F47F44224351
:102630009A609A68114041F07701996090E71E6AAC
:102640001D6A4C6826F00A0625F00105CF68344360
:102650001D629A6922F0F00242EA07129A611C6236
:102660009A6822F0700242F047029A6078E700BF51
:102670008800FEFFF8FFFEFF88FFFEFF704700BFE7
:10268000704700BF704700BF704700BF03681A69FA
:10269000910710B5044602D5DA68920768D41A6922
:1026A000520702D5DA6850074FD41A69110702D5CC
:1026B000DA68120737D41A69D00602D5DA68D1066B
:1026C0001ED41A69D20702D5DA68D00769D41A690C
:1026D000110602D5DA6812066BD41A69D00502D544
:1026E000DA6811066DD41A69520602D5DA68500606
:1026F0006FD41A69910602D5DA68920649D410BDE2
:102700006FF01001082220461961DB69227713F46B
:10271000407F6FD1FFF7B2FF2046FFF7B3FF0022E3
:1027200023682277CDE76FF0080104222046196163
:10273000DB6922779B075AD1FFF7A0FF2046FFF7FE
:10274000A1FF002223682277B5E76FF0040102227F
:10275000204619619B69227713F4407F44D1FFF72B
:102760008DFF2046FFF78EFF0022236822779CE72B
:102770006FF00201012219619B690277990730D13C
:10278000FFF77CFF2046FFF77DFF002223682277BA
:1027900085E76FF0200220461A61BDE8104000F086
:1027A0006DBA6FF0010220461A6101F023FE236822
:1027B0008DE76FF0800220461A6100F061FA23680D
:1027C0008BE76FF0800220461A6100F059FA236807
:1027D00089E76FF0400220461A61FFF755FF236832
:1027E00087E7FFF74DFFD0E7FFF74AFFBCE7FFF7AA
:1027F00047FFA6E7FFF744FF91E700BFF0B4324E72
:10280000B0F1804F314FA0EB06060368A0EB07073D
:10281000B6FA86F6B7FA87F74FEA56164FEA571711
:1028200025D026BB2A4A90423ED002F580629042D3
:102830003AD002F5806290423BD0002F39D1254A30
:10284000904218D002F58062904214D002F5806266
:10285000904210D0A2F5983290420CD002F58062DE
:10286000904208D002F58062904208D103E023F044
:1028700070034D682B4323F44073CD682B434A69A2
:1028800023F080038C6813430A680360C462826289
:1028900026B91FB90123F0BC436170470B6903637C
:1028A0000123F0BC4361704723F070034A6813436F
:1028B000E1E7094A23F070034C68904243EA0403BD
:1028C000D9D0002FD7D1BAE7000001400004014061
:1028D0000004004000400140000C0040B8B190F8F6
:1028E0003D3010B503F0FF0204465BB102232068BF
:1028F000211D84F83D30FFF781FF0123002084F87B
:102900003D3010BD80F83C2002F0A6FAEEE7012031
:10291000704700BFB8B190F83D3010B503F0FF022A
:1029200004465BB102232068211D84F83D30FFF787
:1029300065FF0123002084F83D3010BD80F83C2065
:10294000FFF7CEFDEEE70120704700BF00284BD017
:102950002DE9F84390F83D3005460C4603F0FF02A0
:10296000002B3CD029460220204A51F8043B85F830
:102970003D009E681846324001269A60FFF73EFFF0
:102980002369A769A0681A01296840EA0728E7694E
:10299000D1F808C0164842EA07228B692768184018
:1029A000E368D4F820904CEA07071A430B6A48EA18
:1029B0000008606923F0AA0E63680E4C42EA0932EF
:1029C00043EA00138F6008EA0404002043EA0E0380
:1029D00022438A610B6285F83D60BDE8F88380F888
:1029E0003C2002F017FABDE701207047F8FFFEFF18
:1029F000FCFCFFFF0303FFFFF0B4046A8D6824F0C2
:102A000001040E68124A0462036A446823F0020358
:102A100087692B430F4D3A40A84242EA06020AD08A
:102A200005F58065A84206D049684460826141632B
:102A30000362F0BC704723F00803CF684D6924F4AB
:102A400040748E693B43354323F004032C43EBE78A
:102A50008CFFFEFF00000140F0B4046A8D6824F092
:102A600010040E68144A0462036A446823F02003C9
:102A7000876943EA0513114D3A40A84242EA06220B
:102A80000AD005F58065A84206D049684460826195
:102A900081630362F0BC704723F08003CF684D6907
:102AA00024F440648E6943EA0713354323F040035E
:102AB00044EA8504E9E700BFFF8CFFFE0000014007
:102AC000F0B4046A8D6824F480740E68144A0462B9
:102AD000036A446823F40073C76943EA0523114D70
:102AE0003A40A84242EA06020AD005F58065A842AB
:102AF00006D049684460C261C1630362F0BC70479C
:102B000023F40063CF684D6924F440548E6943EA8E
:102B10000723354323F4806344EA0514E9E700BF43
:102B20008CFFFEFF00000140F0B4046A8D6824F4BD
:102B300080540E680F4A0462036A446823F4005309
:102B4000C76943EA05330C4D3A40A84242EA0622DF
:102B50000AD005F58065A84206D049684460C26184
:102B600001640362F0BC704724F480444D6944EA78
:102B70008514F2E7FF8CFFFE00000140F0B4046A08
:102B80008D6824F480340E680F4A0462036A446836
:102B900023F40033476D43EA05430C4D3A40A84205
:102BA00042EA06020AD005F58065A84206D04968C7
:102BB0004460426581650362F0BC704724F4803450
:102BC0004D6944EA0524F2E78FFFFEFF0000014053
:102BD000F0B4046A8D6824F480140E680F4A04620D
:102BE000036A446823F40013476D43EA05530C4D10
:102BF0003A40A84242EA06220AD005F58065A8427A
:102C000006D0496844604265C1650362F0BC704704
:102C100024F480244D6944EA8524F2E7FF8FFFFE07
:102C20000000014090F83C30012B70B41FD00268C6
:102C3000114D5368AA42946814D005F58065AA42E4
:102C400010D00E680025896824F0800423F07003FA
:102C5000214333432E465360916080F83C50304608
:102C600070BC704723F470034D682B43E9E70226DC
:102C7000304670BC704700BF00000140704700BF85
:102C8000704700BF38B590F83C30012B00F08D80C4
:102C90000D4602230121044680F83D3080F83C10A7
:102CA000142A1DD8DFE802F00B1C1C1C371C1C1C4E
:102CB0004A1C1C1C5C1C1C1C6F1C1C1C2400294670
:102CC0000068FFF799FE23682869996941F00801B7
:102CD0009961996921F0040199619A6902439A61A5
:102CE00000230122184684F83D2084F83C3038BD8A
:102CF00029460068FFF76CFF23682869596D41F485
:102D000000615965596D21F4806159655A6D42EA37
:102D100000225A65E4E729460068FFF79DFE236814
:102D20002869996941F400619961996921F4806188
:102D300099619A6942EA00229A61D1E729460068BE
:102D4000FFF7BEFE23682869D96941F00801D961FF
:102D5000D96921F00401D961DA690243DA61BFE778
:102D600029460068FFF7E0FE23682869D96941F425
:102D70000061D961D96921F48061D961DA6942EAD7
:102D80000022DA61ACE729460068FFF7F7FE236806
:102D90002869596D41F008015965596D21F0040108
:102DA00059655A6D02435A659AE7022038BD00BF43
:102DB000034690F86A0020282DD171B36AB393F8C6
:102DC0006800012827D0986810B4B0F5805F4FF0F4
:102DD00001045965A3F85820A3F85A2083F86840E5
:102DE0001DD040BB1A6912BBFF22A3F85C2000244F
:102DF0001A682221DC66204683F86A10916883F8FD
:102E0000684041F001015DF8044B9160136843F4A0
:102E100090731360704702207047012070471A6951
:102E2000002AE1D140F2FF12A3F85C20DFE77F2205
:102E3000A3F85C20DBE7B0F1805FD8D11A69002AE3
:102E4000F5D03F22A3F85C20D1E700BFF8B590F899
:102E50006940202C2ED179B3B2FA82F56D095DBBA1
:102E600090F86840012C25D0044601261346212005
:102E7000A4F85220A4F8502084F86860226E0F4E07
:102E8000E566E16484F869001046D6630C4F0D4E88
:102E900015651764D66422682832FDF7E9FE2368B9
:102EA000402228461A629A6884F8685042F08002EC
:102EB0009A60F8BD0220F8BD0120F8BDF52F00088A
:102EC00025300008A93000082DE9F843089D804608
:102ED0000F4616469946D8F8004001E06B1C0AD10F
:102EE000E06937EA00030CBF01200020B042F5D0B2
:102EF0000020BDE8F8833DB1FDF7B2FBA0EB09006F
:102F0000A842E8D3D8F800402368202200210320FB
:102F100023F4D0732360A36823F00103A36088F82F
:102F2000692088F8681088F86A20E2E72DE9F04106
:102F30001F4690F8693084B0202B36D10E46002908
:102F400037D0B2FA82F303925B0993BB90F8681012
:102F50000446012929D0C3660121212380F8681085
:102F600080F86930FDF77CFB039A8046A4F8502076
:102F7000A4F85220B4F85250434600228021ADB24A
:102F800020463DB3B4F852500097013DADB2A4F8CD
:102F90005250FFF799FFC8B9A2682368B2F5805F65
:102FA0000BD0327801369A62E4E7022004B0BDE823
:102FB000F081012004B0BDE8F0812269002AF0D13F
:102FC00036F8022BC2F308029A62D3E7032004B05A
:102FD000BDE8F08100972A464021FFF775FF0028E1
:102FE000F4D1202384F8680084F86930DEE700BF5C
:102FF000704700BF08B50368806B1B6813F48073CB
:103000000BD10268A0F85230936823F080039360DC
:10301000136843F04003136008BDFFF7E9FF08BDE4
:10302000704700BF08B5806BFFF7FAFF08BD00BF0F
:1030300090F86A20222A38B5036814D18468B0F861
:103040005C10B4F5805F426D13D05B6A541C0B407A
:1030500044651370B0F85A40013CA4B2A0F85A403D
:1030600084B1002038BD9A69022042F008029A61BA
:1030700038BD0469002CE8D15B6A0B4022F8023BA2
:103080004265E7E702682025116821F4907111601C
:10309000916821F00101916080F86A5001F04CF9CB
:1030A000204638BD704700BF08B50022836BA3F8E7
:1030B0005A20A3F8522093F86920212A1BD093F8B4
:1030C0006A20222A07D0DA6E184642F01002DA6629
:1030D000FFF7E8FF08BD1A6891684906F3D5116843
:1030E000202021F490711160916821F0010191601C
:1030F00083F86A00E7E71A6891680806DFD5116867
:10310000202021F0C001116083F86900D7E700BFDB
:103110000368DA6970B516071D680446996828D1F6
:10312000910602D5AE0600F18B80160604D4510636
:1031300001D56A0679D470BD2806F8D594F86920BF
:10314000212AF8D1B4F8522092B2002A00F09180DE
:10315000A168E26CB1F5805F00F09480511CE164DD
:1031600012789A62B4F85230013B9BB2A4F8523004
:1031700070BD11F0010102D115F4907FD5D0D007B8
:1031800007D5EE0505D501201862E06E40F001007C
:10319000E066900738D4500701D500293ED11607C4
:1031A00003D5A80650D400294ED1E16E0029C2D023
:1031B000960601D5A80652D4E26E110703D49D6885
:1031C00015F0400550D01A68202122F490721A6040
:1031D0009A6822F001029A6084F86A109A6852068E
:1031E00039D59A68616E22F040029A60002932D087
:1031F0002A4B08460B65FDF781FD00289BD0606EC9
:10320000BDE87040036D18470029C8D0022056075A
:103210001862E06E40F00400E066C0D50420186239
:10322000E06E40F00200E066B9E71A68202120460F
:1032300022F040021A6084F86910FFF7D9FE70BDD1
:10324000BDE87040FFF7F4BE08211962E16E41F05D
:103250000801E166A9E72046FFF724FF70BD20467C
:10326000FFF7E6FE2368A7E72046FFF71BFFE566AA
:1032700070BD1A6822F080021A601A6842F040029B
:103280001A6070BD216900297FF468AF32F8021B13
:10329000C1F308019962E26464E700BFA13200084B
:1032A00008B50022836BA3F85A201846A3F85220D1
:1032B000FFF7F8FE08BD00BFF8B504468368A249D1
:1032C000E669E768A14DD0E904201A432368024368
:1032D0001868AB4201EA000142EA060242EA010232
:1032E000A1691A605868226A20F4405042EA01023B
:1032F00040EA07005860996821F4306142EA01020F
:103300009A6043D0924A93421DD0924A934200F071
:103310009080914A934200F0B880904A934247D0FF
:103320008F4A934200F09F808E4A934200F0E980DA
:103330008D4A934200F0F680B6F5004F00F0D2803F
:1033400001221046F8BD8949894AD1F8901001F050
:103350000C010A441279B6F5004F1FD0082AEFD8A5
:1033600001A151F822F000BF27340008DD33000826
:10337000CF340008413300087F340008413300088F
:10338000413300084133000855340008774A784932
:10339000D2F8902002F003028A5CDCE7082A00F2EF
:1033A000A180DFE802F04328809F6F9F9F9F8E00DF
:1033B00002F5F432D2F8902002F44072B2F5807F28
:1033C0005AD02BD9B2F5007F6AD0B2F5407F3ED0FB
:1033D000B2E7002AB0D1B6F5004F0CD0FEF7A6F93F
:1033E0000022D4E9001300EB5300B0FBF3F080B2ED
:1033F000C8601046F8BDFEF799F90022D4E90035FF
:10340000690801EB4000B0FBF5F0C0F3420120F089
:103410000F00014389B2D9601046F8BD002A8BD154
:10342000B6F5004F02D0FEF771F9D9E7FEF76EF955
:10343000E3E702F5F832D2F8902002F03002102AC9
:103440001AD0EBD9202A2BD0302A7FF475AFB6F5ED
:10345000004F36D060680022410801F50041B1FB01
:10346000F0F189B2D7E702F59232D2F8902002F457
:103470004062B2F5806F38D1B6F5004F02D0FEF74A
:1034800031F9ADE7FEF72EF9B7E702F5F632D2F8DB
:10349000902002F0C002402AEED0BFD9802A2DD160
:1034A000B6F5004F13D161680022324800EB51009D
:1034B000B0FBF1F0C0F3420120F00F00014389B2EC
:1034C000A9E761680022480800F58030F0E76068ED
:1034D0000022294901EB5001B1FBF0F189B21046FD
:1034E000D960F8BD0021012295E77FF672AFB2F5F1
:1034F000006FD5D0B2F5406FA9D01DE7C02AA6D085
:103500001AE702F5E032D2F8902002F44052B2F508
:10351000805FB1D082D9B2F5005FC1D0B2F5405F13
:1035200095D009E702F5DE32D2F8902002F440424D
:10353000B2F5804FA0D07FF671AFB2F5004FAFD09B
:10354000B2F5404F83D0F7E6F369FFEF001001407A
:103550000044004000480040004C00400050004043
:103560000014014000780040007C00400038024018
:10357000905900080048E8010024F400436ADA0783
:1035800010B406D50168846A4A6822F400322243E6
:103590004A609C0706D50168C46A4A6822F48032F2
:1035A00022434A60590706D50168046B4A6822F431
:1035B000802222434A601A0706D50168446B4A6894
:1035C00022F4004222434A60DC0606D50168846B7F
:1035D0008A6822F4805222438A60990606D50168DF
:1035E000C46B8A6822F4005222438A605A060AD5C4
:1035F0000168046C4A68B4F5801F22F4801242EA24
:1036000004024A600BD01B0606D50268816C536821
:1036100023F400230B4353605DF8044B70474A6862
:10362000446C22F4C00222434A60ECE770B50025E6
:10363000044682B0C566FDF713F8226812681307C6
:103640000AD400232022184684F8692084F86830C0
:1036500084F86A2002B070BD6FF07E4603462A46A9
:103660004FF4001100962046FFF72EFC0028E8D00A
:10367000032002B070BD00BF90B390F8693010B560
:1036800003F0FF02044603B322682423204684F893
:103690006930136823F001031360FFF70DFE012862
:1036A00018D0636AC3B9236820465A6822F490424E
:1036B0005A609A6822F02A029A601A6842F001025F
:1036C000BDE810401A60FFF7B1BF80F8682001F034
:1036D0000FFCD9E7012010BD2046FFF74FFFE2E7BE
:1036E0000120704770B582B000224423114D02AE14
:1036F000114C8DF8002006F8043D002210212846C8
:10370000FDF70AFD6423012231462046FEF73CFD09
:103710006423012269462046FEF7E4FD01221021C0
:103720002846FDF7F9FC9DF80030FF2BE5D102B0EB
:1037300070BD00BF000802407404002070B50B4C3F
:1037400005460E46FFF7CEFF204600221021FDF76A
:10375000E3FC3246294664230548FEF715FD204662
:1037600001221021BDE87040FDF7D6BC00080240E0
:1037700074040020F0B5002383B0442207460E46AF
:10378000194D1A4C8DF800308DF80420FF2B4FF0A6
:1037900000024FF01001284611D0FDF7BDFC642354
:1037A000012201A92046FEF7EFFC012369462046CD
:1037B0001A46FEF797FD9DF80030FF2B0CD13A46D4
:1037C000314664230948FEF78DFD01221021064889
:1037D000FDF7A2FC03B0F0BD012210212846FDF741
:1037E0009BFC9DF80030D1E70008024074040020E3
:1037F0002DE9F04182B0104D7723104E02AC804687
:103800000F4628460022102104F8043DFDF784FCF1
:103810002146304664230122FEF7B6FC4246394673
:1038200064233046FEF75EFD284601221021FDF795
:1038300073FC02B0BDE8F08100080240740400206F
:1038400070B582B000224423124D02AE124C8DF8A6
:10385000002006F8043D00224FF480712846FDF751
:103860005BFC6423012231462046FEF78DFC642375
:10387000012269462046FEF735FD01224FF4807192
:103880002846FDF749FC9DF80030FF2BE3D102B03C
:1038900070BD00BF000C0240B400002070B50C4C9D
:1038A00005460E46FFF7CCFF204600224FF48071FC
:1038B000FDF732FC3246294664230648FEF764FCD5
:1038C000204601224FF48071BDE87040FDF724BC12
:1038D000000C0240B400002030B51C4685B0002327
:1038E00011258DF8011001468DF8032001A822460C
:1038F00003938DF802408DF80050CDE9013301F0BB
:1039000019FCFFF79DFF211D6846C9B2FFF7C6FFEE
:1039100005B030BDF0B5002383B0442207460E4603
:103920001A4D1B4C8DF800308DF80420FF2B4FF002
:1039300000024FF48071284611D0FDF7EDFB64239F
:10394000012201A92046FEF71FFC012369462046FB
:103950001A46FEF7C7FC9DF80030FF2B0DD13A4602
:10396000314664230A48FEF7BDFC01224FF4807102
:103970000648FDF7D1FB03B0F0BD01224FF4807182
:103980002846FDF7C9FB9DF80030CFE7000C024048
:10399000B40000202DE9F04182B0114D6623114E94
:1039A00002AC07468846284600224FF4807104F88E
:1039B000013DFDF7B1FB2146304664230122FEF7AD
:1039C000E3FB4246394664233046FEF7DDFB2846DA
:1039D00001224FF48071FDF79FFB02B0BDE8F0813A
:1039E000000C0240B400002010B50122084C114622
:1039F0002046FDF791FB0520FCF738FE204600220B
:103A00000121FDF789FB0520BDE81040FCF72EBE23
:103A10000004024010B582B03323002202ACADF89E
:103A2000042004F8053DFFF75DFE20460121FFF765
:103A300085FE01A90220FFF79DFE9DF8043003F0EA
:103A40000D03052B07D04FF49A7301A80221ADF89E
:103A50000430FFF773FE02B010BD00BFF0B583B0B5
:103A6000002540F21533074602AC0E468DF8025091
:103A7000022124F8083D2046FFF760FE0823322289
:103A8000204619468DF80170ADF802508DF804609B
:103A90008DF805308DF806308DF807308DF8002050
:103AA000FFF74CFE03B0F0BD07EE900AB6EE0E6BCA
:103AB0001D480023B8EE677B1C4AF0B527EE067B55
:103AC0001B4F1C4E87B00025FCEEC77B17EE901AEB
:103AD0004C09A7FB0474E40A013CE4B204FB0000B7
:103AE000091AA6FB0101C808090CC004FCF7A8FBD1
:103AF00010F500268DF80440300A8DF80760320C6E
:103B00000D4B8DF806008DF80520019A029305955E
:103B1000CDE90325FFF7E6FD08210DEB0100FFF7D6
:103B20000DFE07B0F0BD00BFE0707200A08601007E
:103B30008DA93C02B5814E1B1140040010B582B026
:103B40000121044602AB03F8011D1846FFF7F6FDFC
:103B5000FFF7C8FD21460820FFF70CFE02B010BD9C
:103B600010B50A4C01224FF480512046FDF7D4FADB
:103B70000520FCF77BFD204600224FF48051FDF725
:103B8000CBFA0520BDE81040FCF770BD00040240F0
:103B900010B582B03323002202ACADF8042004F843
:103BA000053DFFF74DFE20460121FFF777FE01A9F5
:103BB0000220FFF7AFFE9DF8043003F00D03052B44
:103BC00007D04FF49A7301A80221ADF80430FFF733
:103BD00065FE02B010BD00BF10B5002382B0090120
:103BE00031248DF801008DF802108DF804208DF835
:103BF00003308DF805308DF806308DF80040FFF762
:103C00001FFE07216846FFF749FE02B010BD00BF46
:103C1000F0B583B040F2153300260D4602AC0746DE
:103C20008DF80660022124F8043D20461646FFF771
:103C300035FE084B204604210193FFF72FFE29464D
:103C40003846FFF7A7FE2A4630460321FFF7C4FF98
:103C500003B0F0BD200000FF07EE900AB6EE0E6B39
:103C600019480023B8EE677B184AF0B527EE067BAB
:103C7000174E184D83B0FCEEC77B17EE901A4C0917
:103C8000A6FB0464E40A013CE4B204FB0000091A48
:103C9000A5FB0101C808090CC004FCF7D1FA0423F4
:103CA00010F500268DF8044000224021350C0DEB64
:103CB0000300340A8DF807608DF805508DF8064032
:103CC000FFF70AFE03B0F0BDE0707200A0860100AD
:103CD0008DA93C02B5814E1B10B582B0012104466E
:103CE00002AB03F8011D1846FFF7D8FDFFF7A8FD4A
:103CF00021460820FFF70EFE02B010BD10B50022CD
:103D0000124C80211248FDF707FA0520FCF7AEFCA3
:103D1000204601224FF48061FDF7FEF93220FCF7C6
:103D2000A5FC204600224FF48061FDF7F5F9FA204A
:103D3000FCF79CFC204601224FF48061FDF7ECF972
:103D40003220BDE81040FCF791BC00BF00040240E7
:103D50000010024010B50022022104461548FDF76C
:103D6000DBF9002204211348FDF7D6F9C82300BF70
:103D7000013BFCD1104A44F0B804C8235169C9B2D0
:103D80005161516941EA0421516100BF013BFCD1FD
:103D9000012280210848FDF7BFF9C82200BF013A7F
:103DA000FCD180210448FDF7B7F9C82300BF013BCF
:103DB000FCD110BD000402400010024010B50022EA
:103DC000022104461548FDF7A7F9002204211348F3
:103DD000FDF7A2F9C82300BF013BFCD1104A44F013
:103DE0004004C8235169C9B25161516941EA0421B3
:103DF000516100BF013BFCD1012280210848FDF741
:103E00008BF9C82200BF013AFCD180210448FDF79C
:103E100083F9C82300BF013BFCD110BD0004024060
:103E20000010024010B50022022104461548FDF79B
:103E300073F9002204211348FDF76EF9C82300BF6F
:103E4000013BFCD1104A44F0C004C8235169C9B2F7
:103E50005161516941EA0421516100BF013BFCD12C
:103E6000012280210848FDF757F9C82200BF013A16
:103E7000FCD180210448FDF74FF9C82300BF013B66
:103E8000FCD110BD000402400010024010B5012218
:103E9000022104461448FDF73FF90022042112488C
:103EA000FDF73AF9C82300BF013BFCD10F4AC823F4
:103EB0005169C9B25161516941EA0421516100BFA0
:103EC000013BFCD1012280210848FDF725F9C822D9
:103ED00000BF013AFCD180210448FDF71DF9C82339
:103EE00000BF013BFCD110BD0004024000100240A5
:103EF00010B50022022104461648FDF70DF90022F4
:103F000004211448FDF708F9C82300BF013BFCD188
:103F1000114A44F03E04C823516901F47F415161C4
:103F2000516941EA0421516100BF013BFCD10122EA
:103F300080210948FDF7F0F8C82200BF013AFCD102
:103F400080210548FDF7E8F8C82300BF013BFCD1FC
:103F500010BD00BF000402400010024000220121F9
:103F6000154838B51546FDF7D7F8022112482A46FC
:103F7000FDF7D2F82A4604210F48FDF7CDF8284670
:103F8000FFF7B6FF2846FFF74DFF00242846FFF74E
:103F9000E1FEE0B20134FFF711FF0020FFF776FFEA
:103FA000402CF3D10135EDB2082DEED10120BDE852
:103FB0003840FFF79DBF00BF000802402DE9F04FD9
:103FC00085B01C460F46029000200392FFF72AFF9F
:103FD000012C66D0022C02D005B0BDE8F08F002382
:103FE000DDF80C90DFF870B15A4E0193039C204627
:103FF000FCF7A6FAA9EB04038342EDD20024DDE925
:10400000013203EB020821E0FDF786F800220221CD
:104010003046FDF781F8012204213046FDF77CF897
:1040200005F001003844C0B2FFF794FE0AF03F00EB
:10403000FFF7C4FE99F8003003EB43030BEBC30317
:10404000185D0134FFF722FF182C21D0E5B208EBF0
:10405000550ABAF13F0F14DD0122BAF17F0F304645
:104060001146D1DD01221146FDF756F830460122F6
:104070000221FDF751F8002204213046FDF74CF8EB
:10408000CEE7002201213046FDF746F80122BEE7C7
:10409000019B09F1010903F10C0A5FFA8AF301930C
:1040A000A4E7DDF80C804FF0000BDFF8B0A0C146AC
:1040B000284E4046FCF744FAA9EB080398428BD9F6
:1040C000029B002503EB0B041FE0FDF725F80022FF
:1040D00002213046FDF720F8012204213046FDF789
:1040E0001BF83846FFF736FE04F03F00FFF766FE88
:1040F00099F80030013403EB43030AEB4303585DA6
:104100000135FFF7C3FE062D1CD03F2C13DD012225
:104110007F2C30461146D8DD01221146FCF7FCFF0A
:10412000304601220221FCF7F7FF0022042130462D
:10413000FCF7F2FFD5E7002201213046FCF7ECFF47
:104140000122C5E70BF1060B09F101095FFA8BFBB0
:10415000AFE700BF0008024028610008A45900082A
:1041600010B540210E48FCF7D1FF60B904460D4A56
:1041700007210123FFF722FF224601210A48BDE85B
:104180001040FCF7C9BF094A072100200123FFF7AF
:1041900015FF012204481146BDE81040FCF7BCBFE2
:1041A000001002404C790008000C024040790008E1
:1041B00020282DE9F04387B009D0402802D007B06D
:1041C000BDE8F083FFF7CCFF07B0BDE8F0834E4DAC
:1041D0002C78E4B2012CF2D106AE4C4F214606F801
:1041E000140D3046FFF7AAFA39460820FFF7C2FA45
:1041F000BB78DB0607D42023304601218DF804303C
:10420000FFF79CFADBE7424F4FF4004141484FF083
:104210000008FCF785FF39465D20FFF7E9FA40F218
:104220001533022130468DF80680ADF80430FFF7D3
:1042300085FA3B78424638465D219B096B703B7896
:10424000C3F30113AB7097F813E097F8149097F845
:1042500015C0BB7D4FEA092997F8178049EA0E4936
:104260004FEA082849EA0C0948EA03483B7E48EA35
:104270000308FFF7CDFC6423224627492748FEF7B1
:1042800055FE39465D222548FEF7E0FD6B684B453B
:1042900001D0C5F80490AB68434501D0C5F808804B
:1042A000AB7803F0FF04E3B96A6830461C4900F0BC
:1042B00055FF0123324602216620FFF77FFEAA68E0
:1042C0001849304600F04AFF324601230321662098
:1042D000FFF774FE21460123134A7E20FFF76EFE8E
:1042E00089E70123114A02216620FFF767FE0123B7
:1042F0000F4A03216620FFF761FE01230D4A0021CA
:104300007E20FFF75BFE76E7940000207C02002011
:104310001C02002000000240587900082C030020F5
:104320005C79000868790008747900087C790008D5
:104330008C7900089C7900080268284B9A4200D0CA
:10434000704770B5264C274D237B0133DBB22373B6
:104350002B78412B0DD0217B012223482944FEF7E5
:1043600027FD224B002222485A62BDE87040FEF72A
:1043700071B86B78542BEED1AB782B2BEBD1EB785B
:10438000462BE8D12B79522BE5D16B79412BE2D129
:10439000AB794D2BDFD1EB79452BDCD195F866302D
:1043A0000D2BD8D195F867300A2BD4D110480026B0
:1043B000FEF75CF80D4B324605F109005E625D21A7
:1043C000FFF726FC31468222284600F0BEFE01227D
:1043D000294605482673FEF7EBFCBCE700100140B8
:1043E00094000020580100202C0300200010004001
:1043F000B003002070B5214B04689C4200D070BD12
:104400001F4D6B7B03F0FF0683B31E490B681A68D0
:1044100022F490721A609A6822F001029A609A68F7
:1044200012F0400217D12023A1F85A2081F86A30F7
:1044300015480024FEF71AF8104B214682225C62D0
:10444000124800F082FE2C73012210490D48BDE88D
:104450007040FEF7ADBC9A680024202022F0400294
:104460009A60A1F85A4081F86A00E1E70648FDF732
:10447000FDFF012366626B7370BD00BF001000403A
:10448000940000202C030020B003002058010020DD
:104490002E4A4FF4A0202E4B116C41F0805170B584
:1044A0001164B8B0126C022401264FF4800502F0AA
:1044B000805208210092009A1A6842F440421A6021
:1044C000D8221B68089007A803F4404307960D9470
:1044D0000193019B1092CDE91144CDE90E51FCF7F7
:1044E0008BFE00B1FEE7FCF72BFE034600B1FEE7B2
:1044F0004FF480520F264FF4A055072102A80493D1
:1045000003940296CDE90552FDF744F8034600B145
:10451000FEE7402214A825931492FDF717F90446EC
:1045200000B1FEE7FDF7ECF84FF47A73B0FBF3F05F
:10453000FCF76CFA0420FCF781FA224621464FF082
:10454000FF30FCF721FA38B070BD00BF00380240E0
:1045500000700040B74D03264FF01709DFF80CA399
:104560004FF0200880B598B00127FCF761F8FFF7FD
:104570008FFF2B6B00224FF68C7143F01003AE4877
:1045800014462B632B6B03F010030293029B2B6BDF
:1045900043F080032B632B6B03F080030393039B97
:1045A0002B6B43F004032B632B6B03F00403049386
:1045B000049B2B6B3B432B632B6B3B400593059B71
:1045C0002B6B43F002032B632B6B03F00203069368
:1045D000069B2B6B43F008032B632B6B03F0080344
:1045E0000793079BFCF798FD224641F60741934845
:1045F000FCF792FD3A4610219048FCF78DFD3A46B3
:1046000041F201018E48FCF787FD224640F2064147
:104610008B48FCF781FD3A464FF480718948FCF7DE
:104620007BFD22464FF400418748FCF775FD22468A
:1046300031468448FCF770FD0C230FA97E48CDE974
:104640000F37CDE91144FCF743FC40227F4B0FA903
:1046500079480F9210931194FCF73AFC0FA9774810
:104660001296CDF83C90CDE91074FCF731FC0FA9FF
:1046700072481194CDE90F8AFCF72AFC41F20743F6
:104680000FA96F4812960F93CDE91074FCF720FC28
:104690004FF680730FA9684812960F93CDE91074F6
:1046A000FCF716FC4FF480730FA9664812960F931F
:1046B000CDE91074FCF70CFC4FF427730FA9614887
:1046C0000F93CDE910A4FCF703FC4FF400430FA9AE
:1046D0005D480F931294CDE91074FCF7F9FB4FF489
:1046E000E0530FA955480F931294CDE91074FCF7CD
:1046F000EFFB0FA95348CDE90F67CDE91144FCF753
:10470000E7FB0FA94C481194CDE90F6AFCF7E0FBD9
:10471000224621460620FCF737F90620FCF76AF905
:10472000224621460720FCF72FF90720FCF762F903
:10473000224621460820FCF727F90820FCF75AF901
:10474000224621460920FCF71FF90920FCF752F9FF
:10475000224621460A20FCF717F90A20FCF74AF9FD
:10476000224621464846FCF70FF94846FCF742F935
:104770002B6B2246214643F480034620344E2B63A4
:104780002B6B03F480030193019BFCF7FDF846209B
:10479000FCF730F92F494FF480322F4B3046B4608C
:1047A0003461B4613462F462F460F7613463776158
:1047B000B362C6E90012FBF76BFF00B1FEE70346E8
:1047C0000FA930461193CDE90F37FCF715F800B16A
:1047D000FEE7224C224B20462360FCF741F90346BA
:1047E00000B1FEE720461A460FA9CDE90F33FCF7CA
:1047F0007DF900B1FEE71B4B4FF4007107224FF427
:104800008275194E4FF4E06498609862C3F81C807A
:104810001E605D60DC609961DA62C3E90400C3E98F
:104820000800C3E90C001846FDF74CFC0346F8B13C
:10483000FEE700BF003802400010024000080240BE
:1048400000040240000C0240000002400000311051
:10485000E4020020002001400100000F9C03002022
:1048600000740040B4000020003800400000211017
:10487000774C40F66F01774D6322A060204623619C
:10488000A361E260C4E90051FEF728F800B1FEE739
:1048900018AE4FF48053204646F8343D3146FDF7BC
:1048A00023FE00B1FEE72046FEF734F8034600B1D0
:1048B000FEE708A9204608930A93FEF7B3F90346DA
:1048C00000B1FEE7602520461A460FA913930F9505
:1048D000CDE91033FEF7D6F900B1FEE704220FA9A7
:1048E0005B48FEF7CFF900B1FEE708220FA9584850
:1048F000FEF7C8F9054600B1FEE7574C544800F0F2
:10490000DDFA56494FF4E1320C23204625616361FC
:10491000C4E90255C4E90655C4E90855C4E90012C2
:10492000FEF7AAFE00B1FEE74D4B4FF482724D49EF
:104930004FF4E06598609862196028215A60072258
:10494000DD60D961DA62C3E90400C3E90800C3E9A4
:104950000C004FF4007098611846FDF7B3FB034656
:1049600000B1FEE7404D0127404A0FA910902846AC
:104970001493AB612A600F9711971597CDE9123305
:10498000CDE91633C5E90133C5E90333FDF7DEFF91
:10499000034600B1FEE7284631460B930D93FEF720
:1049A00041F900B1FEE7324D40F2CF7345F25F426C
:1049B0003049A860A8612846EB60C5E90012FDF700
:1049C0008DFF034600B1FEE7202228460FA9119370
:1049D0000F92FEF727F9054600B1FEE70146822255
:1049E000254800F0B2FB82222946244800F0ADFBA6
:1049F0003A4621492046FEF7DBF96420FBF736FEF4
:104A00002A4639461E48FCF787FB2A4602211C48E5
:104A1000FCF782FB2A4604211948FCF77DFBFFF7CF
:104A20006DF9FFF79BFAFEF7DFFFFFF799F80FA884
:104A3000FFF784F89DF83D30442B25D0114C2046DB
:104A40000221FCF76DFBC820FBF710FEF7E700BF63
:104A500018010020000800402C0300200010014035
:104A60007404002000300140DC01002000040040FC
:104A7000B00300200010004058010020F003002087
:104A800000080240000C02409DF83E30632BD5D157
:104A90000FA8FFF721F99DF83D30442BCED19DF8AA
:104AA0003E30632BCAD14FF000085D4F07EB08057D
:104AB0000FACD5F80C3605F5C06528686968AA689A
:104AC0002D7C0FC42570FEF70DFE9DF83C100DF1F6
:104AD0003D00FEF733FE9DF83C30013343441FFA9E
:104AE00083F8B8F5C17FE1D94FF0000807EB08055E
:104AF0000FACD5F80C3605F5C06528686968AA685A
:104B00002D7C0FC42570FEF79BFE9DF83C100DF127
:104B10003D00FEF7C3FE9DF83C30013343441FFACD
:104B200083F8B8F5C17FE1D920243E4D01210FA8BB
:104B30008DF83C40FEF702FE01210FA88DF83C40A5
:104B4000FEF7ACFE28680124FEF7AEFF6868FFF7A9
:104B500083F84FF00308FEF75DFFDFF8F090FFF7F2
:104B600017F85D2100202E27FEF778FF30462346F8
:104B7000222122468DF82C80FEF7AEFE2A4B3222EF
:104B80002A492B480C7000215A63FDF7ABFC002129
:104B90000223284A0846DFF8B8A0FFF70FFA234699
:104BA000254A00216620FFF709FA2A6823490FA841
:104BB00000F0D4FAD9F80000DDF842602346CDF8C1
:104BC00047000FAA02210020CDF843608DF8427003
:104BD000FFF7F4F96A680FA8194900F0BFFAD9F88D
:104BE0000000DDF84250234641460FAACDF84700A9
:104BF00000208DF84270CDF84350FFF7DFF9FFF742
:104C0000AFFA642309220F490F48FEF78FF9504687
:104C10004FF40041FCF784FAC820FBF727FDF6E7C4
:104C2000A45900080800002000080040940000205B
:104C300018010020A4790008AC790008B0790008B8
:104C4000BC790008C47900082C030020B87900085A
:104C500000000240FEE700BF224B03201A6C42F026
:104C6000805200B51A6483B01A6C02F08052009230
:104C7000009A5A6C42F480425A645B6C03F480439D
:104C80000193019BFBF76CFE00226FF00B001146B5
:104C9000FBF77AFE00226FF00A001146FBF774FE64
:104CA00000226FF009001146FBF76EFE00226FF044
:104CB00004001146FBF768FE00226FF00300114666
:104CC000FBF762FE00226FF001001146FBF75CFE6D
:104CD00000224FF0FF30114603B05DF804EBFBF704
:104CE00053BE00BF0038024002680E4B9A4200D00B
:104CF000704703F58C330C485A6C42F4807270B5DF
:104D00005A6486B05B6C0F260325002403F480737D
:104D100001A901960093009BCDE90254FCF7D8F855
:104D200006B070BD00200140000002400268124B36
:104D30009A4200D0704703F5E23303220F4870B562
:104D40001C6C86B00025102644F0005401A91C6498
:104D50001B6C019603F000530093009BCDE90225E4
:104D6000FCF7B6F82A4629463620FBF70DFE36201A
:104D7000FBF740FE06B070BD00740040000002402A
:104D800003681F4A934270B588B01FD01D4A9342F2
:104D900001D008B070BD1C4B4FF4604102200026CA
:104DA0001A6C0325052442F480421A641B6C03919B
:104DB00003A903F48043049014480293029B0794D0
:104DC000CDE90565FCF784F808B070BD0E4BE02115
:104DD000022000265A6C0325052442F480525A64AE
:104DE0005B6C039103A903F480530490084801937A
:104DF000019B0794CDE90565FCF76AF808B070BD22
:104E000000300140003800400038024000040240F9
:104E10000000024002680E4B9A4200D0704703F532
:104E20000D330C4870B51A6C022586B030262A4323
:104E3000002401A91A641B6C01962B40029505956C
:104E40000093009BCDE90344FCF742F806B070BD27
:104E500000040040000402400368154A934210B564
:104E600082B004D0134A93420DD002B010BD124B51
:104E70001A6C42F004021A641B6C03F004030093E2
:104E8000009B02B010BD0C4B002236201C6C11465A
:104E900044F010041C641B6C03F010030193019B8D
:104EA000FBF772FD362002B0BDE81040FBF7A2BD53
:104EB00000080040001000400038024002680A4B21
:104EC0009A4200D0704710B586B0022300224FF4FA
:104ED000E04401A905480392CDE90143CDE904333B
:104EE000FBF7F6FF06B010BD00080040000C0240C2
:104EF000254B02689A4200D0704703F59433022193
:104F00005A6C42F01002F0B55A6487B05B6C0546EB
:104F10004FF4C060002603F0100307220324019021
:104F2000029101A900934FF000671848009B049478
:104F30000592174C0396FBF7CBFF164840214FF420
:104F400080624FF4003320602046E660E6616662CE
:104F500022612362C4E90566C4E90171FBF7ECFD37
:104F600058B900222C662520A5631146FBF70CFDDD
:104F70002520FBF73FFD07B0F0BD4FF4F571064863
:104F8000FFF768FEEDE700BF00100140000002409F
:104F900084020020B8640240D0790008704700BF46
:104FA000FEE700BFFEE700BFFEE700BFFEE700BF71
:104FB000704700BF704700BF704700BF08B5FBF7E0
:104FC00043FBBDE80840FBF747BD00BF0120FCF7ED
:104FD000ABB800BF0220FCF7A7B800BF0420FCF765
:104FE000A3B800BF0820FCF79FB800BF1020FCF753
:104FF0009BB800BF08B52020FCF796F84020FCF7CE
:1050000093F88020FCF790F84FF40070BDE808405A
:10501000FCF78AB80148FEF77BB800BF2C030020DC
:1050200008B50448FBF734FD0348BDE80840FDF728
:105030002DBB00BF9C030020B00300200148FBF7FC
:1050400071BE00BF840200200F4A104BD2F88800C6
:105050000F4940F4700070B4C2F88800002418684A
:105060004FF000650B4E40F0010018609C6018681E
:10507000014019605E60196821F480211960DC60CC
:10508000956070BC704700BF00ED00E00038024042
:10509000FFFFF6FE10300024DFF834D0002103E0DB
:1050A0000C4B5B58435004310B480C4B42189A424E
:1050B000F6D30B4A02E0002342F8043B094B9A4224
:1050C000F9D3FFF7C1FF00F011F8FFF743FA70477B
:1050D00000000820307A000800000020780000203E
:1050E00078000020DC040020FEE7000070B50D4EC3
:1050F0000D4CA41BA4100025A54209D10B4E0C4C4D
:1051000000F036FCA41BA4100025A54205D170BDFB
:1051100056F8253098470135EEE756F82530984780
:105120000135F2E7287A0008287A0008287A000872
:105130002C7A000810B5431E0A44914200D110BDDC
:1051400011F8014B03F8014FF7E70244034693427D
:1051500000D1704703F8011BF9E700000EB400B559
:105160009CB01DAB029006906FF00041094807917A
:105170000491094953F8042B05910068019302A991
:1051800000F066F8029B00221A701CB05DF804EB78
:1051900003B07047140000200802FFFF2DE9F0471C
:1051A0008E689E4282460C469046994637D88A8938
:1051B00012F4906F31D0256809696F1A656902236E
:1051C00005EB450595FBF3F509F101033B449D42D1
:1051D00038BF1D46530530D5294600F021FB064651
:1051E00050B90C23CAF80030A38943F04003A381CF
:1051F0004FF0FF30BDE8F0873A462169FFF79AFF8C
:10520000A38923F4906343F08003A3812661656141
:105210003E44ED1B2660A5604E464E4500D94E46E5
:1052200032464146206800F093FAA3689B1BA360B6
:1052300023681E4426600020DCE72A4600F04AFB73
:1052400006460028E2D12169504600F09BFAC8E7E3
:105250002DE9F04F1D468B891F069DB080460C46F8
:1052600016460FD50B696BB9402100F0D9FA2060C2
:10527000206128B90C23C8F800304FF0FF30C8E097
:10528000402363610023099320238DF829303023C4
:105290008DF82A3003954FF0010B37463D4615F83F
:1052A000013B0BB1252B3ED1B7EB060A0BD0534681
:1052B000324621464046FFF771FF013000F0A480DE
:1052C000099B534409933B78002B00F09D800023F9
:1052D0004FF0FF32CDE90523049307938DF8533047
:1052E0001A932F46052217F8011B5048FBF730F997
:1052F000049BD0B9D90644BF20228DF853201A0749
:1053000044BF2B228DF853202A782A2A15D0079AD9
:105310002F4600200A25394611F8013B303B092B66
:105320004DD9B8B10FE02F46B8E7404A801A0BFAC2
:1053300000F0184304903D46D3E7039A111D12680C
:105340000391002A01DB079204E0524243F002037A
:10535000079204933B782E2B0CD17B782A2B33D1E8
:10536000039B1A1D1B680392002BB8BF4FF0FF333D
:10537000023705932E4D397803222846FBF7E8F8CB
:1053800038B14023401B03FA00F0049B034301376C
:105390000493397827488DF8281006227E1CFBF7E5
:1053A000D7F8002838D0244B13BB039B073323F0D6
:1053B000070308330393099B4B4409936DE705FBEF
:1053C000023201200F46A6E7002301370593194654
:1053D0000A25384610F8012B303A092A03D9002B48
:1053E000C8D00591C6E705FB012101230746F0E778
:1053F00003AB00932246114B04A94046AFF3008053
:10540000B0F1FF3F8146D6D1A3895B063FF535AFAA
:1054100009981DB0BDE8F08F03AB00932246074BFF
:1054200004A9404600F082F8EAE700BFEC790008E2
:10543000F2790008F6790008000000009D5100088C
:105440002DE9F04791461F468A680B69DDF82080F8
:105450009342B8BF1346C9F8003091F8432006467E
:105460000C4612B10133C9F800302368990642BFD7
:10547000D9F800300233C9F80030256815F0060568
:1054800007D104F1190AE368D9F800209B1AAB424E
:1054900028DC94F843302268003318BF01239206B9
:1054A0002DD404F1430239463046C047013020D0A4
:1054B0002368E568D9F8002003F00603042B08BF31
:1054C000AD1AA36822690CBF25EAE5750025934251
:1054D000C4BF9B1AED184FF000091A344D451AD17C
:1054E000002008E00123524639463046C0470130CB
:1054F00003D14FF0FF30BDE8F0870135C3E7E11875
:105500005A1C302081F84300224494F8451082F858
:1055100043100233C5E70123224639463046C047CF
:105520000130E6D009F10109D8E700002DE9F04388
:1055300001F1430C0C46097E85B06E2917460646DC
:1055400098460C9A00F0B38022D8632936D00AD846
:10555000002900F0B980582900F0838004F1420549
:1055600084F8421032E0642901D06929F6D120681C
:105570001368050603F104012AD51B681160002B8E
:1055800003DA2D225B4284F843206F480A2239E077
:10559000732900F09D8008D86F2920D07029DDD1B3
:1055A000236843F02003236003E0752917D078298E
:1055B000D4D1782384F84530644855E01368191D28
:1055C0001B68116004F1420584F8423001238CE02D
:1055D0001B68116010F0400F18BF1BB2CFE71368B3
:1055E0002568181D1060280601D51B6802E06806B2
:1055F000FBD51B8854486F2914BF0A2208220021BA
:1056000084F843106568A560002DC0F2958021687C
:1056100021F004012160002B3DD1002D40F08E804F
:105620006546082A0BD12368DB0708D52369626821
:105630009A42DEBF302305F8013C05F1FF35ACEBA3
:1056400005032361CDF800803B4603AA214630467E
:10565000FFF7F6FE01304DD14FF0FF3005B0BDE849
:10566000F083394884F84510136821681D1D1B68B4
:1056700015600A060BD5CA0744BF41F0200121601E
:105680001BB9226822F0200222601022B7E74D06E3
:1056900048BF9BB2EFE76546B3FBF2F102FB113363
:1056A000C35C05F8013D0B460029F5D1B9E7136845
:1056B00025686169181D106028061B6801D51960EE
:1056C00002E06A06FBD51980002323616546B9E72D
:1056D0001368191D11601D68626800212846FAF7D9
:1056E00037FF08B1401B606063682361002384F8C2
:1056F0004330A7E723692A4639463046C047013080
:10570000AAD023689B0713D4E068039B9842B8BFD4
:105710001846A3E701234A4639463046C0470130C0
:105720009AD00135E368039A9B1AAB42F2DCEBE7AF
:10573000002504F11909F5E7002BACD1037884F8B2
:10574000423004F142056CE7FD7900080E7A00084A
:10575000884210B501EB020307D8421E99420AD0D5
:1057600011F8014B02F8014FF8E78342F5D981188F
:10577000D21AD34200D110BD13F8014D01F8014DEA
:10578000F7E7000038B50546002945D051F8043C3C
:105790000C1F002BB8BFE41800F0D2F81F4A1368A2
:1057A000104633B9636014602846BDE8384000F005
:1057B000C8B8A3420CD921686218934204BF1A6882
:1057C0005B68636004BF521822600460ECE7134614
:1057D0005A680AB1A242FAD919685818A0420BD1E6
:1057E00020680144581882421960DDD1106852685F
:1057F0005A6001441960D7E702D90C232B60D3E724
:10580000206821188A4204BF11685268626004BF90
:10581000091821605C60C7E738BD00BFA400002004
:1058200070B5CD1C25F0030508350C2D38BF0C25AF
:10583000002D064601DBA94203D90C23336000206A
:1058400070BD00F07DF8214A1468214691B9204CC2
:1058500023681BB9304600F063F8206029463046C3
:1058600000F05EF8431C24D10C233360304600F076
:1058700068F8E4E70B685B1B18D40B2B0FD90B609F
:10588000CD50CC18304600F05CF804F10B00231D1D
:1058900020F00700C31AD3D05A42E250D0E78C421E
:1058A0004B6816BF636013600C46EBE70C46496813
:1058B000CCE7C41C24F00304A04205D0211A3046D2
:1058C00000F02EF80130CFD02560DBE7A4000020E7
:1058D000A8000020F8B5074614460E4621B9114627
:1058E000BDE8F840FFF79CBF22B9FFF74BFF254604
:1058F0002846F8BD00F026F8A0420FD221463846CF
:10590000FFF78EFF05460028F2D031462246FFF70A
:1059100011FC31463846FFF735FFE9E73546E7E742
:1059200038B5064C002305460846236000F012F8FF
:10593000431C02D1236803B12B6038BDD80400207A
:105940007047704751F8043C181F002BBCBF0B5820
:10595000C0187047044A05491368002B08BF0B465E
:105960001844106018467047AC000020E004002086
:10597000F8B500BFF8BC08BC9E467047F8B500BF3C
:08598000F8BC08BC9E4670470C
:105988000006101600061016010402080010101078
:105998000410101002101010080000000000000091
:1059A8000000003E4551453E003E6B6F6B3E001CBB
:1059B8003E7C3E1C00183C7E3C180030367F36305A
:1059C80000185C7E5C180000000000000000000069
:1059D800000000000000000000000000000000308F
:1059E800484A360E00062979290600000000000002
:1059F80000607E0A353F002A1C361C2A00007F3EC4
:105A08001C0800081C3E7F000014367F3614000076
:105A18005F005F000006097F017F00224D55592273
:105A28000060606060000014B6FFB6140004067FD2
:105A380006040010307F30100008083E1C080008DB
:105A48001C3E080800784040404000083E083E08D8
:105A580000303C3F3C3000030F3F0F0300000000C4
:105A680000000000065F060000070300070300248B
:105A78007E247E2400242B6A1200006313086463CA
:105A880000364956205000000703000000003E4140
:105A980000000000413E000000083E1C3E080008CF
:105AA800083E08080000E060000000080808080830
:105AB800000060600000002010080402003E514908
:105AC800453E0000427F400000625149494600229D
